{
  "contractName": "WebaverseERC20Proxy",
  "abi": [
    {
      "inputs": [
        {
          "internalType": "address",
          "name": "parentAddress",
          "type": "address"
        },
        {
          "internalType": "address",
          "name": "signerAddress",
          "type": "address"
        },
        {
          "internalType": "uint256",
          "name": "_chainId",
          "type": "uint256"
        }
      ],
      "stateMutability": "nonpayable",
      "type": "constructor"
    },
    {
      "anonymous": false,
      "inputs": [
        {
          "indexed": true,
          "internalType": "address",
          "name": "from",
          "type": "address"
        },
        {
          "indexed": true,
          "internalType": "uint256",
          "name": "amount",
          "type": "uint256"
        }
      ],
      "name": "Deposited",
      "type": "event"
    },
    {
      "anonymous": false,
      "inputs": [
        {
          "indexed": true,
          "internalType": "address",
          "name": "from",
          "type": "address"
        },
        {
          "indexed": true,
          "internalType": "uint256",
          "name": "amount",
          "type": "uint256"
        },
        {
          "indexed": true,
          "internalType": "uint256",
          "name": "timestamp",
          "type": "uint256"
        }
      ],
      "name": "Withdrew",
      "type": "event"
    },
    {
      "inputs": [
        {
          "internalType": "address",
          "name": "newSigner",
          "type": "address"
        }
      ],
      "name": "setSigner",
      "outputs": [],
      "stateMutability": "nonpayable",
      "type": "function"
    },
    {
      "inputs": [
        {
          "internalType": "address",
          "name": "newParent",
          "type": "address"
        }
      ],
      "name": "setERC20Parent",
      "outputs": [],
      "stateMutability": "nonpayable",
      "type": "function"
    },
    {
      "inputs": [
        {
          "internalType": "address",
          "name": "to",
          "type": "address"
        },
        {
          "internalType": "uint256",
          "name": "amount",
          "type": "uint256"
        },
        {
          "internalType": "uint256",
          "name": "timestamp",
          "type": "uint256"
        },
        {
          "internalType": "bytes32",
          "name": "r",
          "type": "bytes32"
        },
        {
          "internalType": "bytes32",
          "name": "s",
          "type": "bytes32"
        },
        {
          "internalType": "uint8",
          "name": "v",
          "type": "uint8"
        }
      ],
      "name": "withdraw",
      "outputs": [],
      "stateMutability": "nonpayable",
      "type": "function"
    },
    {
      "inputs": [
        {
          "internalType": "address",
          "name": "to",
          "type": "address"
        },
        {
          "internalType": "uint256",
          "name": "amount",
          "type": "uint256"
        }
      ],
      "name": "deposit",
      "outputs": [],
      "stateMutability": "nonpayable",
      "type": "function"
    },
    {
      "inputs": [
        {
          "internalType": "address",
          "name": "to",
          "type": "address"
        },
        {
          "internalType": "uint256",
          "name": "amount",
          "type": "uint256"
        },
        {
          "internalType": "uint256",
          "name": "timestamp",
          "type": "uint256"
        }
      ],
      "name": "withdrawNonceUsed",
      "outputs": [
        {
          "internalType": "bool",
          "name": "",
          "type": "bool"
        }
      ],
      "stateMutability": "view",
      "type": "function"
    }
  ],
  "bytecode": "0x60806040526040518060400160405280601c81526020017f19457468657265756d205369676e6564204d6573736167653a0a333200000000815250600590805190602001906200005192919062000116565b503480156200005f57600080fd5b5060405162001519380380620015198339818101604052810190620000859190620001ea565b816000806101000a81548173ffffffffffffffffffffffffffffffffffffffff021916908373ffffffffffffffffffffffffffffffffffffffff1602179055508060018190555082600260006101000a81548173ffffffffffffffffffffffffffffffffffffffff021916908373ffffffffffffffffffffffffffffffffffffffff160217905550505050620002b2565b828054600181600116156101000203166002900490600052602060002090601f016020900481019282601f106200015957805160ff19168380011785556200018a565b828001600101855582156200018a579182015b82811115620001895782518255916020019190600101906200016c565b5b5090506200019991906200019d565b5090565b5b80821115620001b85760008160009055506001016200019e565b5090565b600081519050620001cd816200027e565b92915050565b600081519050620001e48162000298565b92915050565b6000806000606084860312156200020057600080fd5b60006200021086828701620001bc565b93505060206200022386828701620001bc565b92505060406200023686828701620001d3565b9150509250925092565b60006200024d8262000254565b9050919050565b600073ffffffffffffffffffffffffffffffffffffffff82169050919050565b6000819050919050565b620002898162000240565b81146200029557600080fd5b50565b620002a38162000274565b8114620002af57600080fd5b50565b61125780620002c26000396000f3fe608060405234801561001057600080fd5b50600436106100575760003560e01c806301e15b521461005c5780634757ef131461007857806347e7ef24146100a85780636c19e783146100c4578063cbb40dae146100e0575b600080fd5b610076600480360381019061007191906109ca565b6100fc565b005b610092600480360381019061008d9190610a2f565b6101ce565b60405161009f9190610f12565b60405180910390f35b6100c260048036038101906100bd91906109f3565b610263565b005b6100de60048036038101906100d991906109ca565b6103ad565b005b6100fa60048036038101906100f59190610a7e565b61047e565b005b60008054906101000a900473ffffffffffffffffffffffffffffffffffffffff1673ffffffffffffffffffffffffffffffffffffffff163373ffffffffffffffffffffffffffffffffffffffff161461018a576040517f08c379a000000000000000000000000000000000000000000000000000000000815260040161018190610ff4565b60405180910390fd5b80600260006101000a81548173ffffffffffffffffffffffffffffffffffffffff021916908373ffffffffffffffffffffffffffffffffffffffff16021790555050565b600060608484846001546040516020016101eb9493929190610e3c565b6040516020818303038152906040529050600081805190602001209050600060058260405160200161021e929190610e8a565b6040516020818303038152906040528051906020012090506004600082815260200190815260200160002060009054906101000a900460ff1693505050509392505050565b61026f60035482610867565b600381905550808273ffffffffffffffffffffffffffffffffffffffff167f2da466a7b24304f47e87fa2e1e5a81b9831ce54fec19055ce277ca2f39ba42c460405160405180910390a3600260009054906101000a900473ffffffffffffffffffffffffffffffffffffffff1673ffffffffffffffffffffffffffffffffffffffff166323b872dd3330846040518463ffffffff1660e01b815260040161031893929190610eb2565b602060405180830381600087803b15801561033257600080fd5b505af1158015610346573d6000803e3d6000fd5b505050506040513d601f19601f8201168201806040525081019061036a9190610b07565b6103a9576040517f08c379a00000000000000000000000000000000000000000000000000000000081526004016103a090611034565b60405180910390fd5b5050565b60008054906101000a900473ffffffffffffffffffffffffffffffffffffffff1673ffffffffffffffffffffffffffffffffffffffff163373ffffffffffffffffffffffffffffffffffffffff161461043b576040517f08c379a000000000000000000000000000000000000000000000000000000000815260040161043290611014565b60405180910390fd5b806000806101000a81548173ffffffffffffffffffffffffffffffffffffffff021916908373ffffffffffffffffffffffffffffffffffffffff16021790555050565b60608686866001546040516020016104999493929190610e3c565b604051602081830303815290604052905060008180519060200120905060006005826040516020016104cc929190610e8a565b60405160208183030381529060405280519060200120905060008054906101000a900473ffffffffffffffffffffffffffffffffffffffff1673ffffffffffffffffffffffffffffffffffffffff166001828689896040516000815260200160405260405161053e9493929190610f2d565b6020604051602081039080840390855afa158015610560573d6000803e3d6000fd5b5050506020604051035173ffffffffffffffffffffffffffffffffffffffff16146105c0576040517f08c379a00000000000000000000000000000000000000000000000000000000081526004016105b790610f94565b60405180910390fd5b6004600082815260200190815260200160002060009054906101000a900460ff1615610621576040517f08c379a000000000000000000000000000000000000000000000000000000000815260040161061890610fd4565b60405180910390fd5b60016004600083815260200190815260200160002060006101000a81548160ff02191690831515021790555060008860035410905060006106648a6003546108bc565b9050811561067f5761067860035482610867565b6003819055505b61068b6003548b6108bc565b600381905550888a8c73ffffffffffffffffffffffffffffffffffffffff167fadec52fcd1408589179b85e44b434374db078b4eaf793e7d1a1bb0ae4ecfeee560405160405180910390a4811561076c57600260009054906101000a900473ffffffffffffffffffffffffffffffffffffffff1673ffffffffffffffffffffffffffffffffffffffff166340c10f1930836040518363ffffffff1660e01b8152600401610739929190610ee9565b600060405180830381600087803b15801561075357600080fd5b505af1158015610767573d6000803e3d6000fd5b505050505b600260009054906101000a900473ffffffffffffffffffffffffffffffffffffffff1673ffffffffffffffffffffffffffffffffffffffff1663a9059cbb8c8c6040518363ffffffff1660e01b81526004016107c9929190610ee9565b602060405180830381600087803b1580156107e357600080fd5b505af11580156107f7573d6000803e3d6000fd5b505050506040513d601f19601f8201168201806040525081019061081b9190610b07565b61085a576040517f08c379a000000000000000000000000000000000000000000000000000000000815260040161085190611034565b60405180910390fd5b5050505050505050505050565b6000808284019050838110156108b2576040517f08c379a00000000000000000000000000000000000000000000000000000000081526004016108a990610fb4565b60405180910390fd5b8091505092915050565b60006108fe83836040518060400160405280601e81526020017f536166654d6174683a207375627472616374696f6e206f766572666c6f770000815250610906565b905092915050565b600083831115829061094e576040517f08c379a00000000000000000000000000000000000000000000000000000000081526004016109459190610f72565b60405180910390fd5b5060008385039050809150509392505050565b600081359050610970816111ae565b92915050565b600081519050610985816111c5565b92915050565b60008135905061099a816111dc565b92915050565b6000813590506109af816111f3565b92915050565b6000813590506109c48161120a565b92915050565b6000602082840312156109dc57600080fd5b60006109ea84828501610961565b91505092915050565b60008060408385031215610a0657600080fd5b6000610a1485828601610961565b9250506020610a25858286016109a0565b9150509250929050565b600080600060608486031215610a4457600080fd5b6000610a5286828701610961565b9350506020610a63868287016109a0565b9250506040610a74868287016109a0565b9150509250925092565b60008060008060008060c08789031215610a9757600080fd5b6000610aa589828a01610961565b9650506020610ab689828a016109a0565b9550506040610ac789828a016109a0565b9450506060610ad889828a0161098b565b9350506080610ae989828a0161098b565b92505060a0610afa89828a016109b5565b9150509295509295509295565b600060208284031215610b1957600080fd5b6000610b2784828501610976565b91505092915050565b610b39816110ef565b82525050565b610b4881611090565b82525050565b610b5f610b5a82611090565b611158565b82525050565b610b6e816110a2565b82525050565b610b7d816110ae565b82525050565b610b94610b8f826110ae565b61116a565b82525050565b600081546001811660008114610bb75760018114610bdc57610c20565b607f6002830416610bc88187611074565b955060ff1983168652808601935050610c20565b60028204610bea8187611074565b9550610bf585611054565b60005b82811015610c1757815481890152600182019150602081019050610bf8565b82880195505050505b505092915050565b6000610c3382611069565b610c3d818561107f565b9350610c4d818560208601611125565b610c5681611190565b840191505092915050565b6000610c6e60118361107f565b91507f696e76616c6964207369676e61747572650000000000000000000000000000006000830152602082019050919050565b6000610cae601b8361107f565b91507f536166654d6174683a206164646974696f6e206f766572666c6f7700000000006000830152602082019050919050565b6000610cee60118361107f565b91507f6861736820616c726561647920757365640000000000000000000000000000006000830152602082019050919050565b6000610d2e600e8361107f565b91507f6d757374206265207369676e65720000000000000000000000000000000000006000830152602082019050919050565b6000610d6e60288361107f565b91507f6e6577207369676e65722063616e206f6e6c7920626520736574206279206f6c60008301527f64207369676e65720000000000000000000000000000000000000000000000006020830152604082019050919050565b6000610dd4600f8361107f565b91507f7472616e73666572206661696c656400000000000000000000000000000000006000830152602082019050919050565b610e10816110d8565b82525050565b610e27610e22826110d8565b611186565b82525050565b610e36816110e2565b82525050565b6000610e488287610b4e565b601482019150610e588286610e16565b602082019150610e688285610e16565b602082019150610e788284610e16565b60208201915081905095945050505050565b6000610e968285610b9a565b9150610ea28284610b83565b6020820191508190509392505050565b6000606082019050610ec76000830186610b30565b610ed46020830185610b3f565b610ee16040830184610e07565b949350505050565b6000604082019050610efe6000830185610b3f565b610f0b6020830184610e07565b9392505050565b6000602082019050610f276000830184610b65565b92915050565b6000608082019050610f426000830187610b74565b610f4f6020830186610e2d565b610f5c6040830185610b74565b610f696060830184610b74565b95945050505050565b60006020820190508181036000830152610f8c8184610c28565b905092915050565b60006020820190508181036000830152610fad81610c61565b9050919050565b60006020820190508181036000830152610fcd81610ca1565b9050919050565b60006020820190508181036000830152610fed81610ce1565b9050919050565b6000602082019050818103600083015261100d81610d21565b9050919050565b6000602082019050818103600083015261102d81610d61565b9050919050565b6000602082019050818103600083015261104d81610dc7565b9050919050565b60008190508160005260206000209050919050565b600081519050919050565b600081905092915050565b600082825260208201905092915050565b600061109b826110b8565b9050919050565b60008115159050919050565b6000819050919050565b600073ffffffffffffffffffffffffffffffffffffffff82169050919050565b6000819050919050565b600060ff82169050919050565b60006110fa82611101565b9050919050565b600061110c82611113565b9050919050565b600061111e826110b8565b9050919050565b60005b83811015611143578082015181840152602081019050611128565b83811115611152576000848401525b50505050565b600061116382611174565b9050919050565b6000819050919050565b600061117f826111a1565b9050919050565b6000819050919050565b6000601f19601f8301169050919050565b60008160601b9050919050565b6111b781611090565b81146111c257600080fd5b50565b6111ce816110a2565b81146111d957600080fd5b50565b6111e5816110ae565b81146111f057600080fd5b50565b6111fc816110d8565b811461120757600080fd5b50565b611213816110e2565b811461121e57600080fd5b5056fea2646970667358221220f35b6ff23b425d85deacf267f1bc66c1221fe43dd3a7a7003196d0768d00277b64736f6c634300060c0033",
  "immutableReferences": {},
  "source": "// SPDX-License-Identifier: MIT\npragma solidity ^0.6.0;\npragma experimental ABIEncoderV2;\n\nimport \"./WebaverseERC20.sol\";\nimport \"./IERC721Receiver.sol\";\n\n/** @title ERC20 Proxy contract.\n * @dev Manages ERC20 tokens using the Webaverse signing oracle for validation and cross-chain transfer\n */\ncontract WebaverseERC20Proxy {\n    address internal signer; // signer oracle address\n    uint256 internal chainId; // unique chain id\n    WebaverseERC20 internal parent; // managed ERC20 contract\n    uint256 internal deposits; // amount deposited in this contract\n    mapping(bytes32 => bool) internal usedWithdrawHashes; // deposit hashes that have been used up (replay protection)\n\n    bytes internal prefix = \"\\x19Ethereum Signed Message:\\n32\"; // Signed message prefix\n\n    /**\n     * @dev Construct the proxy with a managed parent and chain ID\n     * @param parentAddress Address of the managed ERC20 contract\n     * @param signerAddress Address of an authorized signer\n     * @param _chainId Chain ID this contract is attached to\n     * Default parent address: 0xd7523103ba15c1dfcf0f5ea1c553bc18179ac656\n     * Default signer address: 0xfa80e7480e9c42a9241e16d6c1e7518c1b1757e4\n     */\n    constructor(\n        address parentAddress,\n        address signerAddress,\n        uint256 _chainId\n    ) public {\n        signer = signerAddress;\n        chainId = _chainId;\n        parent = WebaverseERC20(parentAddress);\n    }\n\n    /** @dev Log the fact that we withdrew oracle-signed fungible tokens\n     * @param from Address withdrawn from\n     * @param amount Amount to withdraw\n     * @param timestamp Time of the transaction withdrawl\n     */\n    event Withdrew(\n        address indexed from,\n        uint256 indexed amount,\n        uint256 indexed timestamp\n    );\n\n    /** @dev Used by the oracle when signing\n     * @param from Address deposited from\n     * @param amount Amount to deposit\n     */\n    event Deposited(address indexed from, uint256 indexed amount);\n\n    /** @dev Set the address for the signer oracle\n     * @param newSigner Address of the new signer\n     */\n    function setSigner(address newSigner) public {\n        require(\n            msg.sender == signer,\n            \"new signer can only be set by old signer\"\n        );\n        signer = newSigner;\n    }\n\n    /** @dev Set the parent contract that this proxy manages\n     * @param newParent Address of parent contract\n     */\n    function setERC20Parent(address newParent) public {\n        require(msg.sender == signer, \"must be signer\");\n        parent = WebaverseERC20(newParent);\n    }\n\n    /** @dev Withdraw ERC20 tokens to an address\n     * @param to Address to withdraw to\n     * Example is 0x08E242bB06D85073e69222aF8273af419d19E4f6\n     * @param amount Amount to withdraw\n     * @param timestamp Timestamp of the transaction\n     * @param r ECDSA output\n     * Example is 0xc336b0bb5cac4584d79e77b1680ab789171ebc95f44f68bb1cc0a7b1174058ad\n     * @param s ECDSA output\n     * Example is 0x72b888e952c0c39a8054f2b6dc41df645f5d4dc3d9cc6118535d88aa34945440\n     * @param v Recovery ID\n     * Example is 0x1c\n     * Example args: 0x08E242bB06D85073e69222aF8273af419d19E4f6, 1, 10, 0xc336b0bb5cac4584d79e77b1680ab789171ebc95f44f68bb1cc0a7b1174058ad, 0x72b888e952c0c39a8054f2b6dc41df645f5d4dc3d9cc6118535d88aa34945440, 0x1c\n     */\n    function withdraw(\n        address to,\n        uint256 amount,\n        uint256 timestamp,\n        bytes32 r,\n        bytes32 s,\n        uint8 v\n    ) public {\n        bytes memory message = abi.encodePacked(to, amount, timestamp, chainId); // Encode message\n        bytes32 messageHash = keccak256(message); // Hash the message\n        bytes32 prefixedHash = keccak256(abi.encodePacked(prefix, messageHash)); // Add the signed preview and hash that\n        require(\n            ecrecover(prefixedHash, v, r, s) == signer,\n            \"invalid signature\"\n        ); // Recover address from sig check if it's the signer\n        require(!usedWithdrawHashes[prefixedHash], \"hash already used\"); // Check if this transaction has been used (to prevent replay attacks)\n        usedWithdrawHashes[prefixedHash] = true; // Mark the transaction hash as used, so it can't be used again\n\n        bool needsMint = deposits < amount; // Check if we have enough token, or if we need to mint more\n        uint256 balanceNeeded = SafeMath.sub(amount, deposits); // Calculate how much we need\n        if (needsMint) {\n            deposits = SafeMath.add(deposits, balanceNeeded); // If we need to mint more, add the balance\n        }\n        deposits = SafeMath.sub(deposits, amount); // Set remaining deposits\n\n        emit Withdrew(to, amount, timestamp); // Emit Withdraw event\n\n        if (needsMint) {\n            parent.mint(address(this), balanceNeeded); // If we need to mint more, mint it\n        }\n\n        require(parent.transfer(to, amount), \"transfer failed\"); // Attempt the transfer, back out if it fails\n    }\n\n    /** @dev Deposit ERC20 tokens to an address\n     * @param to Address to deposit to\n     * Example is 0x08E242bB06D85073e69222aF8273af419d19E4f6\n     * @param amount Amount to withdraw\n     */\n    function deposit(address to, uint256 amount) public {\n        deposits = SafeMath.add(deposits, amount); // add the amount to deposits\n\n        emit Deposited(to, amount); // emit Deposited event\n\n        require(\n            parent.transferFrom(msg.sender, address(this), amount),\n            \"transfer failed\"\n        ); // Attempt transfer and back out if it fails\n    }\n\n    /** @dev Check if the nonce has been used\n     * @param to Address to deposit to\n     * Example is 0x08E242bB06D85073e69222aF8273af419d19E4f6\n     * @param amount Amount to withdraw\n     * @param timestamp Timestamp of the transaction\n     * @return true if the nonce has been used\n     */\n    function withdrawNonceUsed(\n        address to,\n        uint256 amount,\n        uint256 timestamp\n    ) public view returns (bool) {\n        bytes memory message = abi.encodePacked(to, amount, timestamp, chainId);\n        bytes32 messageHash = keccak256(message);\n        bytes32 prefixedHash = keccak256(abi.encodePacked(prefix, messageHash));\n        return usedWithdrawHashes[prefixedHash]; // return true if it exists\n    }\n}\n",
  "sourcePath": "/home/beast/Documents/GitHub/contracts/ethereum/WebaverseERC20Proxy.sol",
  "compiler": {
    "name": "solc",
    "version": "0.6.12+commit.27d51765.Emscripten.clang"
  },
  "schemaVersion": "3.3.4",
  "updatedAt": "2021-03-23T05:08:06.311Z",
  "networkType": "ethereum",
  "devdoc": {
    "details": "Manages ERC20 tokens using the Webaverse signing oracle for validation and cross-chain transfer",
    "events": {
      "Deposited(address,uint256)": {
        "details": "Used by the oracle when signing",
        "params": {
          "amount": "Amount to deposit",
          "from": "Address deposited from"
        }
      },
      "Withdrew(address,uint256,uint256)": {
        "details": "Log the fact that we withdrew oracle-signed fungible tokens",
        "params": {
          "amount": "Amount to withdraw",
          "from": "Address withdrawn from",
          "timestamp": "Time of the transaction withdrawl"
        }
      }
    },
    "kind": "dev",
    "methods": {
      "constructor": {
        "details": "Construct the proxy with a managed parent and chain ID",
        "params": {
          "_chainId": "Chain ID this contract is attached to Default parent address: 0xd7523103ba15c1dfcf0f5ea1c553bc18179ac656 Default signer address: 0xfa80e7480e9c42a9241e16d6c1e7518c1b1757e4",
          "parentAddress": "Address of the managed ERC20 contract",
          "signerAddress": "Address of an authorized signer"
        }
      },
      "deposit(address,uint256)": {
        "details": "Deposit ERC20 tokens to an address",
        "params": {
          "amount": "Amount to withdraw",
          "to": "Address to deposit to Example is 0x08E242bB06D85073e69222aF8273af419d19E4f6"
        }
      },
      "setERC20Parent(address)": {
        "details": "Set the parent contract that this proxy manages",
        "params": {
          "newParent": "Address of parent contract"
        }
      },
      "setSigner(address)": {
        "details": "Set the address for the signer oracle",
        "params": {
          "newSigner": "Address of the new signer"
        }
      },
      "withdraw(address,uint256,uint256,bytes32,bytes32,uint8)": {
        "details": "Withdraw ERC20 tokens to an address",
        "params": {
          "amount": "Amount to withdraw",
          "r": "ECDSA output Example is 0xc336b0bb5cac4584d79e77b1680ab789171ebc95f44f68bb1cc0a7b1174058ad",
          "s": "ECDSA output Example is 0x72b888e952c0c39a8054f2b6dc41df645f5d4dc3d9cc6118535d88aa34945440",
          "timestamp": "Timestamp of the transaction",
          "to": "Address to withdraw to Example is 0x08E242bB06D85073e69222aF8273af419d19E4f6",
          "v": "Recovery ID Example is 0x1c Example args: 0x08E242bB06D85073e69222aF8273af419d19E4f6, 1, 10, 0xc336b0bb5cac4584d79e77b1680ab789171ebc95f44f68bb1cc0a7b1174058ad, 0x72b888e952c0c39a8054f2b6dc41df645f5d4dc3d9cc6118535d88aa34945440, 0x1c"
        }
      },
      "withdrawNonceUsed(address,uint256,uint256)": {
        "details": "Check if the nonce has been used",
        "params": {
          "amount": "Amount to withdraw",
          "timestamp": "Timestamp of the transaction",
          "to": "Address to deposit to Example is 0x08E242bB06D85073e69222aF8273af419d19E4f6"
        },
        "returns": {
          "_0": "true if the nonce has been used"
        }
      }
    },
    "title": "ERC20 Proxy contract.",
    "version": 1
  },
  "userdoc": {
    "kind": "user",
    "methods": {},
    "version": 1
  }
}