{
  "contractName": "WebaverseTrade",
  "abi": [
    {
      "inputs": [
        {
          "internalType": "address",
          "name": "parentERC20Address",
          "type": "address"
        },
        {
          "internalType": "address",
          "name": "parentERC721Address",
          "type": "address"
        },
        {
          "internalType": "address",
          "name": "signerAddress",
          "type": "address"
        }
      ],
      "stateMutability": "nonpayable",
      "type": "constructor"
    },
    {
      "anonymous": false,
      "inputs": [
        {
          "indexed": true,
          "internalType": "uint256",
          "name": "id",
          "type": "uint256"
        }
      ],
      "name": "Buy",
      "type": "event"
    },
    {
      "anonymous": false,
      "inputs": [
        {
          "indexed": true,
          "internalType": "uint256",
          "name": "id",
          "type": "uint256"
        },
        {
          "indexed": true,
          "internalType": "address",
          "name": "seller",
          "type": "address"
        },
        {
          "indexed": true,
          "internalType": "uint256",
          "name": "tokenId",
          "type": "uint256"
        },
        {
          "indexed": false,
          "internalType": "uint256",
          "name": "price",
          "type": "uint256"
        }
      ],
      "name": "Sell",
      "type": "event"
    },
    {
      "anonymous": false,
      "inputs": [
        {
          "indexed": true,
          "internalType": "uint256",
          "name": "id",
          "type": "uint256"
        }
      ],
      "name": "Unsell",
      "type": "event"
    },
    {
      "inputs": [
        {
          "internalType": "address",
          "name": "newSigner",
          "type": "address"
        }
      ],
      "name": "setSigner",
      "outputs": [],
      "stateMutability": "nonpayable",
      "type": "function"
    },
    {
      "inputs": [
        {
          "internalType": "address",
          "name": "newParentERC20",
          "type": "address"
        }
      ],
      "name": "setERC20Parent",
      "outputs": [],
      "stateMutability": "nonpayable",
      "type": "function"
    },
    {
      "inputs": [
        {
          "internalType": "address",
          "name": "newParentERC721Address",
          "type": "address"
        }
      ],
      "name": "setERC721Parent",
      "outputs": [],
      "stateMutability": "nonpayable",
      "type": "function"
    },
    {
      "inputs": [
        {
          "internalType": "uint256",
          "name": "tokenId",
          "type": "uint256"
        },
        {
          "internalType": "uint256",
          "name": "price",
          "type": "uint256"
        }
      ],
      "name": "addStore",
      "outputs": [],
      "stateMutability": "nonpayable",
      "type": "function"
    },
    {
      "inputs": [
        {
          "internalType": "uint256",
          "name": "buyId",
          "type": "uint256"
        }
      ],
      "name": "removeStore",
      "outputs": [],
      "stateMutability": "nonpayable",
      "type": "function"
    },
    {
      "inputs": [
        {
          "internalType": "uint256",
          "name": "buyId",
          "type": "uint256"
        }
      ],
      "name": "buy",
      "outputs": [],
      "stateMutability": "nonpayable",
      "type": "function"
    },
    {
      "inputs": [],
      "name": "numStores",
      "outputs": [
        {
          "internalType": "uint256",
          "name": "",
          "type": "uint256"
        }
      ],
      "stateMutability": "view",
      "type": "function"
    },
    {
      "inputs": [
        {
          "internalType": "uint256",
          "name": "buyId",
          "type": "uint256"
        }
      ],
      "name": "getStoreByIndex",
      "outputs": [
        {
          "components": [
            {
              "internalType": "uint256",
              "name": "id",
              "type": "uint256"
            },
            {
              "internalType": "address",
              "name": "seller",
              "type": "address"
            },
            {
              "internalType": "uint256",
              "name": "tokenId",
              "type": "uint256"
            },
            {
              "internalType": "uint256",
              "name": "price",
              "type": "uint256"
            },
            {
              "internalType": "bool",
              "name": "live",
              "type": "bool"
            }
          ],
          "internalType": "struct WebaverseTrade.Store",
          "name": "",
          "type": "tuple"
        }
      ],
      "stateMutability": "view",
      "type": "function"
    },
    {
      "inputs": [
        {
          "internalType": "address",
          "name": "from",
          "type": "address"
        },
        {
          "internalType": "address",
          "name": "to",
          "type": "address"
        },
        {
          "internalType": "uint256",
          "name": "fromFt",
          "type": "uint256"
        },
        {
          "internalType": "uint256",
          "name": "toFt",
          "type": "uint256"
        },
        {
          "internalType": "uint256",
          "name": "a1",
          "type": "uint256"
        },
        {
          "internalType": "uint256",
          "name": "b1",
          "type": "uint256"
        },
        {
          "internalType": "uint256",
          "name": "a2",
          "type": "uint256"
        },
        {
          "internalType": "uint256",
          "name": "b2",
          "type": "uint256"
        },
        {
          "internalType": "uint256",
          "name": "a3",
          "type": "uint256"
        },
        {
          "internalType": "uint256",
          "name": "b3",
          "type": "uint256"
        }
      ],
      "name": "trade",
      "outputs": [],
      "stateMutability": "nonpayable",
      "type": "function"
    }
  ],
  "bytecode": "0x60806040523480156200001157600080fd5b5060405162001a7538038062001a75833981810160405281019062000037919062000121565b826000806101000a81548173ffffffffffffffffffffffffffffffffffffffff021916908373ffffffffffffffffffffffffffffffffffffffff16021790555081600160006101000a81548173ffffffffffffffffffffffffffffffffffffffff021916908373ffffffffffffffffffffffffffffffffffffffff16021790555080600260006101000a81548173ffffffffffffffffffffffffffffffffffffffff021916908373ffffffffffffffffffffffffffffffffffffffff1602179055506000600381905550505050620001c5565b6000815190506200011b81620001ab565b92915050565b6000806000606084860312156200013757600080fd5b600062000147868287016200010a565b93505060206200015a868287016200010a565b92505060406200016d868287016200010a565b9150509250925092565b600062000184826200018b565b9050919050565b600073ffffffffffffffffffffffffffffffffffffffff82169050919050565b620001b68162000177565b8114620001c257600080fd5b50565b6118a080620001d56000396000f3fe608060405234801561001057600080fd5b50600436106100935760003560e01c80636c19e783116100665780636c19e7831461010a578063987f639b146101265780639bc0432c14610142578063bf2b15221461015e578063d96a094a1461018e57610093565b806301e15b521461009857806311eb33ec146100b45780632d96a297146100d0578063492c5b9e146100ec575b600080fd5b6100b260048036038101906100ad91906111a1565b6101aa565b005b6100ce60048036038101906100c991906111a1565b61027d565b005b6100ea60048036038101906100e591906112f7565b610351565b005b6100f461052b565b604051610101919061177b565b60405180910390f35b610124600480360381019061011f91906111a1565b610535565b005b610140600480360381019061013b91906111ca565b610609565b005b61015c600480360381019061015791906112ce565b610c2f565b005b610178600480360381019061017391906112ce565b610e36565b6040516101859190611760565b60405180910390f35b6101a860048036038101906101a391906112ce565b610ef2565b005b600260009054906101000a900473ffffffffffffffffffffffffffffffffffffffff1673ffffffffffffffffffffffffffffffffffffffff163373ffffffffffffffffffffffffffffffffffffffff161461023a576040517f08c379a0000000000000000000000000000000000000000000000000000000008152600401610231906116c0565b60405180910390fd5b806000806101000a81548173ffffffffffffffffffffffffffffffffffffffff021916908373ffffffffffffffffffffffffffffffffffffffff16021790555050565b600260009054906101000a900473ffffffffffffffffffffffffffffffffffffffff1673ffffffffffffffffffffffffffffffffffffffff163373ffffffffffffffffffffffffffffffffffffffff161461030d576040517f08c379a0000000000000000000000000000000000000000000000000000000008152600401610304906116c0565b60405180910390fd5b80600160006101000a81548173ffffffffffffffffffffffffffffffffffffffff021916908373ffffffffffffffffffffffffffffffffffffffff16021790555050565b600060036000815460010191905081905590506040518060a001604052808281526020013373ffffffffffffffffffffffffffffffffffffffff16815260200184815260200183815260200160011515815250600460008381526020019081526020016000206000820151816000015560208201518160010160006101000a81548173ffffffffffffffffffffffffffffffffffffffff021916908373ffffffffffffffffffffffffffffffffffffffff160217905550604082015181600201556060820151816003015560808201518160040160006101000a81548160ff021916908315150217905550905050823373ffffffffffffffffffffffffffffffffffffffff16827fce55bfae73b3c55d09c9fb6723466656ecb31fc2f7c5b90c296456857480c88c85604051610487919061177b565b60405180910390a46000309050600160009054906101000a900473ffffffffffffffffffffffffffffffffffffffff1673ffffffffffffffffffffffffffffffffffffffff166323b872dd3383876040518463ffffffff1660e01b81526004016104f3939291906115db565b600060405180830381600087803b15801561050d57600080fd5b505af1158015610521573d6000803e3d6000fd5b5050505050505050565b6000600354905090565b600260009054906101000a900473ffffffffffffffffffffffffffffffffffffffff1673ffffffffffffffffffffffffffffffffffffffff163373ffffffffffffffffffffffffffffffffffffffff16146105c5576040517f08c379a00000000000000000000000000000000000000000000000000000000081526004016105bc906116e0565b60405180910390fd5b80600260006101000a81548173ffffffffffffffffffffffffffffffffffffffff021916908373ffffffffffffffffffffffffffffffffffffffff16021790555050565b600260009054906101000a900473ffffffffffffffffffffffffffffffffffffffff1673ffffffffffffffffffffffffffffffffffffffff163373ffffffffffffffffffffffffffffffffffffffff1614610699576040517f08c379a000000000000000000000000000000000000000000000000000000000815260040161069090611680565b60405180910390fd5b600088146107905760008054906101000a900473ffffffffffffffffffffffffffffffffffffffff1673ffffffffffffffffffffffffffffffffffffffff166323b872dd8b8b8b6040518463ffffffff1660e01b81526004016106fe93929190611649565b602060405180830381600087803b15801561071857600080fd5b505af115801561072c573d6000803e3d6000fd5b505050506040513d601f19601f8201168201806040525081019061075091906112a5565b61078f576040517f08c379a000000000000000000000000000000000000000000000000000000000815260040161078690611720565b60405180910390fd5b5b600087146108875760008054906101000a900473ffffffffffffffffffffffffffffffffffffffff1673ffffffffffffffffffffffffffffffffffffffff166323b872dd8a8c8a6040518463ffffffff1660e01b81526004016107f593929190611649565b602060405180830381600087803b15801561080f57600080fd5b505af1158015610823573d6000803e3d6000fd5b505050506040513d601f19601f8201168201806040525081019061084791906112a5565b610886576040517f08c379a000000000000000000000000000000000000000000000000000000000815260040161087d90611740565b60405180910390fd5b5b6000861461092157600160009054906101000a900473ffffffffffffffffffffffffffffffffffffffff1673ffffffffffffffffffffffffffffffffffffffff166323b872dd8b8b896040518463ffffffff1660e01b81526004016108ee93929190611649565b600060405180830381600087803b15801561090857600080fd5b505af115801561091c573d6000803e3d6000fd5b505050505b600085146109bb57600160009054906101000a900473ffffffffffffffffffffffffffffffffffffffff1673ffffffffffffffffffffffffffffffffffffffff166323b872dd8a8c886040518463ffffffff1660e01b815260040161098893929190611649565b600060405180830381600087803b1580156109a257600080fd5b505af11580156109b6573d6000803e3d6000fd5b505050505b60008414610a5557600160009054906101000a900473ffffffffffffffffffffffffffffffffffffffff1673ffffffffffffffffffffffffffffffffffffffff166323b872dd8b8b876040518463ffffffff1660e01b8152600401610a2293929190611649565b600060405180830381600087803b158015610a3c57600080fd5b505af1158015610a50573d6000803e3d6000fd5b505050505b60008314610aef57600160009054906101000a900473ffffffffffffffffffffffffffffffffffffffff1673ffffffffffffffffffffffffffffffffffffffff166323b872dd8a8c866040518463ffffffff1660e01b8152600401610abc93929190611649565b600060405180830381600087803b158015610ad657600080fd5b505af1158015610aea573d6000803e3d6000fd5b505050505b60008214610b8957600160009054906101000a900473ffffffffffffffffffffffffffffffffffffffff1673ffffffffffffffffffffffffffffffffffffffff166323b872dd8b8b856040518463ffffffff1660e01b8152600401610b5693929190611649565b600060405180830381600087803b158015610b7057600080fd5b505af1158015610b84573d6000803e3d6000fd5b505050505b60008114610c2357600160009054906101000a900473ffffffffffffffffffffffffffffffffffffffff1673ffffffffffffffffffffffffffffffffffffffff166323b872dd8a8c846040518463ffffffff1660e01b8152600401610bf093929190611649565b600060405180830381600087803b158015610c0a57600080fd5b505af1158015610c1e573d6000803e3d6000fd5b505050505b50505050505050505050565b60006004600083815260200190815260200160002090503373ffffffffffffffffffffffffffffffffffffffff168160010160009054906101000a900473ffffffffffffffffffffffffffffffffffffffff1673ffffffffffffffffffffffffffffffffffffffff1614610cd8576040517f08c379a0000000000000000000000000000000000000000000000000000000008152600401610ccf906116a0565b60405180910390fd5b8060040160009054906101000a900460ff16610d29576040517f08c379a0000000000000000000000000000000000000000000000000000000008152600401610d2090611700565b60405180910390fd5b60008160040160006101000a81548160ff021916908315150217905550817f572bb6682d648f108d9e67f0e924a6ae966c2b4f723c399957ef4f7b1197db2860405160405180910390a26000309050600160009054906101000a900473ffffffffffffffffffffffffffffffffffffffff1673ffffffffffffffffffffffffffffffffffffffff166323b872dd828460010160009054906101000a900473ffffffffffffffffffffffffffffffffffffffff1685600201546040518463ffffffff1660e01b8152600401610dff93929190611649565b600060405180830381600087803b158015610e1957600080fd5b505af1158015610e2d573d6000803e3d6000fd5b50505050505050565b610e3e61111b565b600460008381526020019081526020016000206040518060a0016040529081600082015481526020016001820160009054906101000a900473ffffffffffffffffffffffffffffffffffffffff1673ffffffffffffffffffffffffffffffffffffffff1673ffffffffffffffffffffffffffffffffffffffff16815260200160028201548152602001600382015481526020016004820160009054906101000a900460ff1615151515815250509050919050565b60006004600083815260200190815260200160002090508060040160009054906101000a900460ff16610f5a576040517f08c379a0000000000000000000000000000000000000000000000000000000008152600401610f5190611700565b60405180910390fd5b60008160040160006101000a81548160ff021916908315150217905550817f3e32821836f4caf5b64b2c8c6b460049a9797526960d31502f7575b8da39d5ae60405160405180910390a260008054906101000a900473ffffffffffffffffffffffffffffffffffffffff1673ffffffffffffffffffffffffffffffffffffffff166323b872dd338360010160009054906101000a900473ffffffffffffffffffffffffffffffffffffffff1684600301546040518463ffffffff1660e01b8152600401611029939291906115db565b602060405180830381600087803b15801561104357600080fd5b505af1158015611057573d6000803e3d6000fd5b505050506040513d601f19601f8201168201806040525081019061107b91906112a5565b506000309050600160009054906101000a900473ffffffffffffffffffffffffffffffffffffffff1673ffffffffffffffffffffffffffffffffffffffff166323b872dd823385600201546040518463ffffffff1660e01b81526004016110e493929190611612565b600060405180830381600087803b1580156110fe57600080fd5b505af1158015611112573d6000803e3d6000fd5b50505050505050565b6040518060a0016040528060008152602001600073ffffffffffffffffffffffffffffffffffffffff16815260200160008152602001600081526020016000151581525090565b60008135905061117181611825565b92915050565b6000815190506111868161183c565b92915050565b60008135905061119b81611853565b92915050565b6000602082840312156111b357600080fd5b60006111c184828501611162565b91505092915050565b6000806000806000806000806000806101408b8d0312156111ea57600080fd5b60006111f88d828e01611162565b9a505060206112098d828e01611162565b995050604061121a8d828e0161118c565b985050606061122b8d828e0161118c565b975050608061123c8d828e0161118c565b96505060a061124d8d828e0161118c565b95505060c061125e8d828e0161118c565b94505060e061126f8d828e0161118c565b9350506101006112818d828e0161118c565b9250506101206112938d828e0161118c565b9150509295989b9194979a5092959850565b6000602082840312156112b757600080fd5b60006112c584828501611177565b91505092915050565b6000602082840312156112e057600080fd5b60006112ee8482850161118c565b91505092915050565b6000806040838503121561130a57600080fd5b60006113188582860161118c565b92505060206113298582860161118c565b9150509250929050565b61133c816117ef565b82525050565b61134b816117a7565b82525050565b61135a816117a7565b82525050565b611369816117b9565b82525050565b600061137c601383611796565b91507f756e617574686f72697a6564207369676e6572000000000000000000000000006000830152602082019050919050565b60006113bc600d83611796565b91507f6e6f7420796f75722073616c65000000000000000000000000000000000000006000830152602082019050919050565b60006113fc600e83611796565b91507f6d757374206265207369676e65720000000000000000000000000000000000006000830152602082019050919050565b600061143c602883611796565b91507f6e6577207369676e65722063616e206f6e6c7920626520736574206279206f6c60008301527f64207369676e65720000000000000000000000000000000000000000000000006020830152604082019050919050565b60006114a2600d83611796565b91507f73616c65206e6f74206c697665000000000000000000000000000000000000006000830152602082019050919050565b60006114e2601d83611796565b91507f7472616e736665722066742066726f6d202d3e20746f206661696c65640000006000830152602082019050919050565b6000611522601d83611796565b91507f7472616e736665722066742066726f6d203c2d20746f206661696c65640000006000830152602082019050919050565b60a08201600082015161156b60008501826115bd565b50602082015161157e6020850182611342565b50604082015161159160408501826115bd565b5060608201516115a460608501826115bd565b5060808201516115b76080850182611360565b50505050565b6115c6816117e5565b82525050565b6115d5816117e5565b82525050565b60006060820190506115f06000830186611333565b6115fd6020830185611351565b61160a60408301846115cc565b949350505050565b60006060820190506116276000830186611351565b6116346020830185611333565b61164160408301846115cc565b949350505050565b600060608201905061165e6000830186611351565b61166b6020830185611351565b61167860408301846115cc565b949350505050565b600060208201905081810360008301526116998161136f565b9050919050565b600060208201905081810360008301526116b9816113af565b9050919050565b600060208201905081810360008301526116d9816113ef565b9050919050565b600060208201905081810360008301526116f98161142f565b9050919050565b6000602082019050818103600083015261171981611495565b9050919050565b60006020820190508181036000830152611739816114d5565b9050919050565b6000602082019050818103600083015261175981611515565b9050919050565b600060a0820190506117756000830184611555565b92915050565b600060208201905061179060008301846115cc565b92915050565b600082825260208201905092915050565b60006117b2826117c5565b9050919050565b60008115159050919050565b600073ffffffffffffffffffffffffffffffffffffffff82169050919050565b6000819050919050565b60006117fa82611801565b9050919050565b600061180c82611813565b9050919050565b600061181e826117c5565b9050919050565b61182e816117a7565b811461183957600080fd5b50565b611845816117b9565b811461185057600080fd5b50565b61185c816117e5565b811461186757600080fd5b5056fea26469706673582212209c6e69d4b3472f4ad402ea7c35ec5022932dfd8fbcbf2d5fb8a5e90cc36623ea64736f6c634300060c0033",
  "immutableReferences": {},
  "source": "// SPDX-License-Identifier: MIT\npragma solidity ^0.6.0;\npragma experimental ABIEncoderV2;\n\nimport \"./WebaverseERC20.sol\";\nimport \"./WebaverseERC721.sol\";\n\n/** @title Webaverse Trade Contract\n * @dev Trade contract to manage user to user trading of fungible and non-fungible tokens\n */\ncontract WebaverseTrade {\n    struct Store {\n        uint256 id;\n        address seller;\n        uint256 tokenId;\n        uint256 price;\n        bool live;\n    }\n    event Sell(\n        uint256 indexed id,\n        address indexed seller,\n        uint256 indexed tokenId,\n        uint256 price\n    );\n    event Unsell(uint256 indexed id);\n    event Buy(uint256 indexed id);\n\n    WebaverseERC20 parentERC20; // managed ERC20 contract\n    WebaverseERC721 parentERC721; // managed ERC721 contract\n    address signer; // signer oracle address\n    uint256 nextBuyId; // next buy id\n    mapping(uint256 => Store) stores;\n\n    /**\n     * @dev Construct the contract with managed ERC20 and ERC721 contryacts\n     * @param parentERC20Address Address of the managed ERC20 contract\n     * @param parentERC721Address Address of the managed ERC721 contract\n     * @param signerAddress Address of an authorized signer\n     * Default parentERC20Address address: 0xd7523103ba15c1dfcf0f5ea1c553bc18179ac656\n     * Default parentERC721Address address: 0xfa80e7480e9c42a9241e16d6c1e7518c1b1757e4\n     */\n    // 0xd7523103ba15c1dfcf0f5ea1c553bc18179ac656\n    // 0xfa80e7480e9c42a9241e16d6c1e7518c1b1757e4\n    constructor(\n        address parentERC20Address,\n        address parentERC721Address,\n        address signerAddress\n    ) public {\n        parentERC20 = WebaverseERC20(parentERC20Address);\n        parentERC721 = WebaverseERC721(parentERC721Address);\n        signer = signerAddress;\n        nextBuyId = 0;\n    }\n\n    /** @dev Set the address for the signer oracle\n     * @param newSigner Address of the new signer\n     */\n    function setSigner(address newSigner) public {\n        require(\n            msg.sender == signer,\n            \"new signer can only be set by old signer\"\n        );\n        signer = newSigner;\n    }\n\n    /** @dev Set the parent ERC20 contract that this contract manages\n     * @param newParentERC20 Address of parent contract\n     */\n    function setERC20Parent(address newParentERC20) public {\n        require(msg.sender == signer, \"must be signer\");\n        parentERC20 = WebaverseERC20(newParentERC20);\n    }\n\n    /** @dev Set the ERC721 contract that this contract manages\n     * @param newParentERC721Address Address of parent contract\n     */\n    function setERC721Parent(address newParentERC721Address) public {\n        require(msg.sender == signer, \"must be signer\");\n        parentERC721 = WebaverseERC721(newParentERC721Address);\n    }\n\n    /** @dev Add a non-fungible token to the store to be sold\n     * @param tokenId Token to sell\n     * @param price Price to sell token for\n     */\n    function addStore(uint256 tokenId, uint256 price) public {\n        uint256 buyId = ++nextBuyId;\n        stores[buyId] = Store(buyId, msg.sender, tokenId, price, true);\n\n        emit Sell(buyId, msg.sender, tokenId, price);\n\n        address contractAddress = address(this);\n        parentERC721.transferFrom(msg.sender, contractAddress, tokenId);\n    }\n\n    /** @dev Remove a token from the store for sale\n     * @param buyId ID of the asset in the store\n     */\n    function removeStore(uint256 buyId) public {\n        Store storage store = stores[buyId];\n        require(store.seller == msg.sender, \"not your sale\");\n        require(store.live, \"sale not live\");\n        store.live = false;\n\n        emit Unsell(buyId);\n\n        address contractAddress = address(this);\n        parentERC721.transferFrom(contractAddress, store.seller, store.tokenId);\n    }\n\n    /** @dev Purchase a token for sale\n     * @param buyId ID of the asset in the store\n     */\n    function buy(uint256 buyId) public {\n        Store storage store = stores[buyId];\n        require(store.live, \"sale not live\");\n        store.live = false;\n\n        emit Buy(buyId);\n\n        parentERC20.transferFrom(msg.sender, store.seller, store.price);\n        address contractAddress = address(this);\n        parentERC721.transferFrom(contractAddress, msg.sender, store.tokenId);\n    }\n\n    /** @dev Get the number of stored assets by the next available ID\n     * @return Next usable buy ID, which is an incremented counter\n     */\n    function numStores() public view returns (uint256) {\n        return nextBuyId;\n    }\n\n    /** @dev Get the stored value by buyID\n     * @param buyId ID of the asset in the store\n     * @return Value in the store keyed by buyId\n     */\n    function getStoreByIndex(uint256 buyId) public view returns (Store memory) {\n        return stores[buyId];\n    }\n\n    /** @dev Trade assets between users\n     * @param from ID of player A\n     * @param to ID of player B\n     * @param fromFt Amount of ERC20 tokens player A has committed to trade\n     * @param toFt Amount of ERC20 tokens player B has committed to trade\n     * @param a1 Item 1 in player A's trade window\n     * @param b1 Item 1 in player B's trade window\n     * @param a2 Item 2 in player A's trade window\n     * @param b2 Item 2 in player B's trade window\n     * @param a3 Item 3 in player A's trade window\n     * @param b3 Item 3 in player B's trade window\n     */\n    function trade(\n        address from,\n        address to,\n        uint256 fromFt,\n        uint256 toFt,\n        uint256 a1,\n        uint256 b1,\n        uint256 a2,\n        uint256 b2,\n        uint256 a3,\n        uint256 b3\n    ) public {\n        require(msg.sender == signer, \"unauthorized signer\");\n        if (fromFt != 0)\n            require(\n                parentERC20.transferFrom(from, to, fromFt),\n                \"transfer ft from -> to failed\"\n            );\n        if (toFt != 0)\n            require(\n                parentERC20.transferFrom(to, from, toFt),\n                \"transfer ft from <- to failed\"\n            );\n        if (a1 != 0) parentERC721.transferFrom(from, to, a1);\n        if (b1 != 0) parentERC721.transferFrom(to, from, b1);\n        if (a2 != 0) parentERC721.transferFrom(from, to, a2);\n        if (b2 != 0) parentERC721.transferFrom(to, from, b2);\n        if (a3 != 0) parentERC721.transferFrom(from, to, a3);\n        if (b3 != 0) parentERC721.transferFrom(to, from, b3);\n    }\n}\n",
  "sourcePath": "/home/beast/Documents/GitHub/contracts/ethereum/WebaverseTrade.sol",
  "compiler": {
    "name": "solc",
    "version": "0.6.12+commit.27d51765.Emscripten.clang"
  },
  "schemaVersion": "3.3.4",
  "updatedAt": "2021-03-23T02:28:20.043Z",
  "networkType": "ethereum",
  "devdoc": {
    "details": "Trade contract to manage user to user trading of fungible and non-fungible tokens",
    "kind": "dev",
    "methods": {
      "addStore(uint256,uint256)": {
        "details": "Add a non-fungible token to the store to be sold",
        "params": {
          "price": "Price to sell token for",
          "tokenId": "Token to sell"
        }
      },
      "buy(uint256)": {
        "details": "Purchase a token for sale",
        "params": {
          "buyId": "ID of the asset in the store"
        }
      },
      "constructor": {
        "details": "Construct the contract with managed ERC20 and ERC721 contryacts",
        "params": {
          "parentERC20Address": "Address of the managed ERC20 contract",
          "parentERC721Address": "Address of the managed ERC721 contract",
          "signerAddress": "Address of an authorized signer Default parentERC20Address address: 0xd7523103ba15c1dfcf0f5ea1c553bc18179ac656 Default parentERC721Address address: 0xfa80e7480e9c42a9241e16d6c1e7518c1b1757e4"
        }
      },
      "getStoreByIndex(uint256)": {
        "details": "Get the stored value by buyID",
        "params": {
          "buyId": "ID of the asset in the store"
        },
        "returns": {
          "_0": "Value in the store keyed by buyId"
        }
      },
      "numStores()": {
        "details": "Get the number of stored assets by the next available ID",
        "returns": {
          "_0": "Next usable buy ID, which is an incremented counter"
        }
      },
      "removeStore(uint256)": {
        "details": "Remove a token from the store for sale",
        "params": {
          "buyId": "ID of the asset in the store"
        }
      },
      "setERC20Parent(address)": {
        "details": "Set the parent ERC20 contract that this contract manages",
        "params": {
          "newParentERC20": "Address of parent contract"
        }
      },
      "setERC721Parent(address)": {
        "details": "Set the ERC721 contract that this contract manages",
        "params": {
          "newParentERC721Address": "Address of parent contract"
        }
      },
      "setSigner(address)": {
        "details": "Set the address for the signer oracle",
        "params": {
          "newSigner": "Address of the new signer"
        }
      },
      "trade(address,address,uint256,uint256,uint256,uint256,uint256,uint256,uint256,uint256)": {
        "details": "Trade assets between users",
        "params": {
          "a1": "Item 1 in player A's trade window",
          "a2": "Item 2 in player A's trade window",
          "a3": "Item 3 in player A's trade window",
          "b1": "Item 1 in player B's trade window",
          "b2": "Item 2 in player B's trade window",
          "b3": "Item 3 in player B's trade window",
          "from": "ID of player A",
          "fromFt": "Amount of ERC20 tokens player A has committed to trade",
          "to": "ID of player B",
          "toFt": "Amount of ERC20 tokens player B has committed to trade"
        }
      }
    },
    "title": "Webaverse Trade Contract",
    "version": 1
  },
  "userdoc": {
    "kind": "user",
    "methods": {},
    "version": 1
  }
}