{
  "contractName": "WebaverseERC721",
  "abi": [
    {
      "inputs": [
        {
          "internalType": "string",
          "name": "name",
          "type": "string"
        },
        {
          "internalType": "string",
          "name": "symbol",
          "type": "string"
        },
        {
          "internalType": "string",
          "name": "baseUri",
          "type": "string"
        },
        {
          "internalType": "contract WebaverseERC20",
          "name": "_erc20Contract",
          "type": "address"
        },
        {
          "internalType": "uint256",
          "name": "_mintFee",
          "type": "uint256"
        },
        {
          "internalType": "address",
          "name": "_treasuryAddress",
          "type": "address"
        },
        {
          "internalType": "bool",
          "name": "_isSingleIssue",
          "type": "bool"
        },
        {
          "internalType": "bool",
          "name": "_isPublicallyMintable",
          "type": "bool"
        }
      ],
      "stateMutability": "nonpayable",
      "type": "constructor"
    },
    {
      "anonymous": false,
      "inputs": [
        {
          "indexed": true,
          "internalType": "address",
          "name": "owner",
          "type": "address"
        },
        {
          "indexed": true,
          "internalType": "address",
          "name": "approved",
          "type": "address"
        },
        {
          "indexed": true,
          "internalType": "uint256",
          "name": "tokenId",
          "type": "uint256"
        }
      ],
      "name": "Approval",
      "type": "event"
    },
    {
      "anonymous": false,
      "inputs": [
        {
          "indexed": true,
          "internalType": "address",
          "name": "owner",
          "type": "address"
        },
        {
          "indexed": true,
          "internalType": "address",
          "name": "operator",
          "type": "address"
        },
        {
          "indexed": false,
          "internalType": "bool",
          "name": "approved",
          "type": "bool"
        }
      ],
      "name": "ApprovalForAll",
      "type": "event"
    },
    {
      "anonymous": false,
      "inputs": [
        {
          "indexed": false,
          "internalType": "string",
          "name": "oldHash",
          "type": "string"
        },
        {
          "indexed": false,
          "internalType": "string",
          "name": "newHash",
          "type": "string"
        }
      ],
      "name": "HashUpdate",
      "type": "event"
    },
    {
      "anonymous": false,
      "inputs": [
        {
          "indexed": false,
          "internalType": "string",
          "name": "hash",
          "type": "string"
        },
        {
          "indexed": false,
          "internalType": "string",
          "name": "key",
          "type": "string"
        },
        {
          "indexed": false,
          "internalType": "string",
          "name": "value",
          "type": "string"
        }
      ],
      "name": "MetadataSet",
      "type": "event"
    },
    {
      "anonymous": false,
      "inputs": [
        {
          "indexed": false,
          "internalType": "uint256",
          "name": "tokenId",
          "type": "uint256"
        },
        {
          "indexed": false,
          "internalType": "string",
          "name": "key",
          "type": "string"
        },
        {
          "indexed": false,
          "internalType": "string",
          "name": "value",
          "type": "string"
        }
      ],
      "name": "SingleMetadataSet",
      "type": "event"
    },
    {
      "anonymous": false,
      "inputs": [
        {
          "indexed": true,
          "internalType": "address",
          "name": "from",
          "type": "address"
        },
        {
          "indexed": true,
          "internalType": "address",
          "name": "to",
          "type": "address"
        },
        {
          "indexed": true,
          "internalType": "uint256",
          "name": "tokenId",
          "type": "uint256"
        }
      ],
      "name": "Transfer",
      "type": "event"
    },
    {
      "inputs": [
        {
          "internalType": "address",
          "name": "to",
          "type": "address"
        },
        {
          "internalType": "uint256",
          "name": "tokenId",
          "type": "uint256"
        }
      ],
      "name": "approve",
      "outputs": [],
      "stateMutability": "nonpayable",
      "type": "function"
    },
    {
      "inputs": [
        {
          "internalType": "address",
          "name": "owner",
          "type": "address"
        }
      ],
      "name": "balanceOf",
      "outputs": [
        {
          "internalType": "uint256",
          "name": "",
          "type": "uint256"
        }
      ],
      "stateMutability": "view",
      "type": "function"
    },
    {
      "inputs": [],
      "name": "baseURI",
      "outputs": [
        {
          "internalType": "string",
          "name": "",
          "type": "string"
        }
      ],
      "stateMutability": "view",
      "type": "function"
    },
    {
      "inputs": [
        {
          "internalType": "uint256",
          "name": "tokenId",
          "type": "uint256"
        }
      ],
      "name": "getApproved",
      "outputs": [
        {
          "internalType": "address",
          "name": "",
          "type": "address"
        }
      ],
      "stateMutability": "view",
      "type": "function"
    },
    {
      "inputs": [
        {
          "internalType": "address",
          "name": "owner",
          "type": "address"
        },
        {
          "internalType": "address",
          "name": "operator",
          "type": "address"
        }
      ],
      "name": "isApprovedForAll",
      "outputs": [
        {
          "internalType": "bool",
          "name": "",
          "type": "bool"
        }
      ],
      "stateMutability": "view",
      "type": "function"
    },
    {
      "inputs": [],
      "name": "name",
      "outputs": [
        {
          "internalType": "string",
          "name": "",
          "type": "string"
        }
      ],
      "stateMutability": "view",
      "type": "function"
    },
    {
      "inputs": [
        {
          "internalType": "uint256",
          "name": "tokenId",
          "type": "uint256"
        }
      ],
      "name": "ownerOf",
      "outputs": [
        {
          "internalType": "address",
          "name": "",
          "type": "address"
        }
      ],
      "stateMutability": "view",
      "type": "function"
    },
    {
      "inputs": [
        {
          "internalType": "address",
          "name": "from",
          "type": "address"
        },
        {
          "internalType": "address",
          "name": "to",
          "type": "address"
        },
        {
          "internalType": "uint256",
          "name": "tokenId",
          "type": "uint256"
        }
      ],
      "name": "safeTransferFrom",
      "outputs": [],
      "stateMutability": "nonpayable",
      "type": "function"
    },
    {
      "inputs": [
        {
          "internalType": "address",
          "name": "from",
          "type": "address"
        },
        {
          "internalType": "address",
          "name": "to",
          "type": "address"
        },
        {
          "internalType": "uint256",
          "name": "tokenId",
          "type": "uint256"
        },
        {
          "internalType": "bytes",
          "name": "_data",
          "type": "bytes"
        }
      ],
      "name": "safeTransferFrom",
      "outputs": [],
      "stateMutability": "nonpayable",
      "type": "function"
    },
    {
      "inputs": [
        {
          "internalType": "address",
          "name": "operator",
          "type": "address"
        },
        {
          "internalType": "bool",
          "name": "approved",
          "type": "bool"
        }
      ],
      "name": "setApprovalForAll",
      "outputs": [],
      "stateMutability": "nonpayable",
      "type": "function"
    },
    {
      "inputs": [
        {
          "internalType": "bytes4",
          "name": "interfaceId",
          "type": "bytes4"
        }
      ],
      "name": "supportsInterface",
      "outputs": [
        {
          "internalType": "bool",
          "name": "",
          "type": "bool"
        }
      ],
      "stateMutability": "view",
      "type": "function"
    },
    {
      "inputs": [],
      "name": "symbol",
      "outputs": [
        {
          "internalType": "string",
          "name": "",
          "type": "string"
        }
      ],
      "stateMutability": "view",
      "type": "function"
    },
    {
      "inputs": [
        {
          "internalType": "uint256",
          "name": "index",
          "type": "uint256"
        }
      ],
      "name": "tokenByIndex",
      "outputs": [
        {
          "internalType": "uint256",
          "name": "",
          "type": "uint256"
        }
      ],
      "stateMutability": "view",
      "type": "function"
    },
    {
      "inputs": [
        {
          "internalType": "address",
          "name": "owner",
          "type": "address"
        },
        {
          "internalType": "uint256",
          "name": "index",
          "type": "uint256"
        }
      ],
      "name": "tokenOfOwnerByIndex",
      "outputs": [
        {
          "internalType": "uint256",
          "name": "",
          "type": "uint256"
        }
      ],
      "stateMutability": "view",
      "type": "function"
    },
    {
      "inputs": [],
      "name": "totalSupply",
      "outputs": [
        {
          "internalType": "uint256",
          "name": "",
          "type": "uint256"
        }
      ],
      "stateMutability": "view",
      "type": "function"
    },
    {
      "inputs": [
        {
          "internalType": "address",
          "name": "from",
          "type": "address"
        },
        {
          "internalType": "address",
          "name": "to",
          "type": "address"
        },
        {
          "internalType": "uint256",
          "name": "tokenId",
          "type": "uint256"
        }
      ],
      "name": "transferFrom",
      "outputs": [],
      "stateMutability": "nonpayable",
      "type": "function"
    },
    {
      "inputs": [
        {
          "internalType": "uint256",
          "name": "_mintFee",
          "type": "uint256"
        }
      ],
      "name": "setMintFee",
      "outputs": [],
      "stateMutability": "nonpayable",
      "type": "function"
    },
    {
      "inputs": [
        {
          "internalType": "address",
          "name": "_treasuryAddress",
          "type": "address"
        }
      ],
      "name": "setTreasuryAddress",
      "outputs": [],
      "stateMutability": "nonpayable",
      "type": "function"
    },
    {
      "inputs": [
        {
          "internalType": "uint256",
          "name": "tokenId",
          "type": "uint256"
        }
      ],
      "name": "getPackedBalance",
      "outputs": [
        {
          "internalType": "uint256",
          "name": "",
          "type": "uint256"
        }
      ],
      "stateMutability": "view",
      "type": "function"
    },
    {
      "inputs": [
        {
          "internalType": "address",
          "name": "from",
          "type": "address"
        },
        {
          "internalType": "uint256",
          "name": "tokenId",
          "type": "uint256"
        },
        {
          "internalType": "uint256",
          "name": "amount",
          "type": "uint256"
        }
      ],
      "name": "pack",
      "outputs": [],
      "stateMutability": "nonpayable",
      "type": "function"
    },
    {
      "inputs": [
        {
          "internalType": "address",
          "name": "to",
          "type": "address"
        },
        {
          "internalType": "uint256",
          "name": "tokenId",
          "type": "uint256"
        },
        {
          "internalType": "uint256",
          "name": "amount",
          "type": "uint256"
        }
      ],
      "name": "unpack",
      "outputs": [],
      "stateMutability": "nonpayable",
      "type": "function"
    },
    {
      "inputs": [
        {
          "internalType": "address",
          "name": "to",
          "type": "address"
        },
        {
          "internalType": "string",
          "name": "hash",
          "type": "string"
        },
        {
          "internalType": "string",
          "name": "name",
          "type": "string"
        },
        {
          "internalType": "string",
          "name": "ext",
          "type": "string"
        },
        {
          "internalType": "string",
          "name": "description",
          "type": "string"
        },
        {
          "internalType": "uint256",
          "name": "count",
          "type": "uint256"
        }
      ],
      "name": "mint",
      "outputs": [],
      "stateMutability": "nonpayable",
      "type": "function"
    },
    {
      "inputs": [
        {
          "internalType": "address",
          "name": "to",
          "type": "address"
        },
        {
          "internalType": "string",
          "name": "hash",
          "type": "string"
        }
      ],
      "name": "mintSingle",
      "outputs": [],
      "stateMutability": "nonpayable",
      "type": "function"
    },
    {
      "inputs": [
        {
          "internalType": "uint256",
          "name": "tokenId",
          "type": "uint256"
        }
      ],
      "name": "getMinter",
      "outputs": [
        {
          "internalType": "address",
          "name": "",
          "type": "address"
        }
      ],
      "stateMutability": "view",
      "type": "function"
    },
    {
      "inputs": [
        {
          "internalType": "address",
          "name": "to",
          "type": "address"
        },
        {
          "internalType": "uint256",
          "name": "tokenId",
          "type": "uint256"
        }
      ],
      "name": "mintTokenId",
      "outputs": [],
      "stateMutability": "nonpayable",
      "type": "function"
    },
    {
      "inputs": [
        {
          "internalType": "string",
          "name": "baseURI_",
          "type": "string"
        }
      ],
      "name": "setBaseURI",
      "outputs": [],
      "stateMutability": "nonpayable",
      "type": "function"
    },
    {
      "inputs": [
        {
          "internalType": "uint256",
          "name": "tokenId",
          "type": "uint256"
        }
      ],
      "name": "tokenURI",
      "outputs": [
        {
          "internalType": "string",
          "name": "",
          "type": "string"
        }
      ],
      "stateMutability": "view",
      "type": "function"
    },
    {
      "inputs": [
        {
          "internalType": "uint256",
          "name": "tokenId",
          "type": "uint256"
        }
      ],
      "name": "tokenExists",
      "outputs": [
        {
          "internalType": "bool",
          "name": "",
          "type": "bool"
        }
      ],
      "stateMutability": "view",
      "type": "function"
    },
    {
      "inputs": [
        {
          "internalType": "address",
          "name": "a",
          "type": "address"
        }
      ],
      "name": "isAllowedMinter",
      "outputs": [
        {
          "internalType": "bool",
          "name": "",
          "type": "bool"
        }
      ],
      "stateMutability": "view",
      "type": "function"
    },
    {
      "inputs": [
        {
          "internalType": "address",
          "name": "a",
          "type": "address"
        }
      ],
      "name": "addAllowedMinter",
      "outputs": [],
      "stateMutability": "nonpayable",
      "type": "function"
    },
    {
      "inputs": [
        {
          "internalType": "address",
          "name": "a",
          "type": "address"
        }
      ],
      "name": "removeAllowedMinter",
      "outputs": [],
      "stateMutability": "nonpayable",
      "type": "function"
    },
    {
      "inputs": [
        {
          "internalType": "string",
          "name": "hash",
          "type": "string"
        },
        {
          "internalType": "address",
          "name": "a",
          "type": "address"
        }
      ],
      "name": "isCollaborator",
      "outputs": [
        {
          "internalType": "bool",
          "name": "",
          "type": "bool"
        }
      ],
      "stateMutability": "view",
      "type": "function"
    },
    {
      "inputs": [
        {
          "internalType": "string",
          "name": "hash",
          "type": "string"
        },
        {
          "internalType": "address",
          "name": "a",
          "type": "address"
        }
      ],
      "name": "addCollaborator",
      "outputs": [],
      "stateMutability": "nonpayable",
      "type": "function"
    },
    {
      "inputs": [
        {
          "internalType": "string",
          "name": "hash",
          "type": "string"
        },
        {
          "internalType": "address",
          "name": "a",
          "type": "address"
        }
      ],
      "name": "removeCollaborator",
      "outputs": [],
      "stateMutability": "nonpayable",
      "type": "function"
    },
    {
      "inputs": [
        {
          "internalType": "uint256",
          "name": "tokenId",
          "type": "uint256"
        },
        {
          "internalType": "address",
          "name": "a",
          "type": "address"
        }
      ],
      "name": "isSingleCollaborator",
      "outputs": [
        {
          "internalType": "bool",
          "name": "",
          "type": "bool"
        }
      ],
      "stateMutability": "view",
      "type": "function"
    },
    {
      "inputs": [
        {
          "internalType": "uint256",
          "name": "tokenId",
          "type": "uint256"
        },
        {
          "internalType": "address",
          "name": "a",
          "type": "address"
        }
      ],
      "name": "addSingleCollaborator",
      "outputs": [],
      "stateMutability": "nonpayable",
      "type": "function"
    },
    {
      "inputs": [
        {
          "internalType": "uint256",
          "name": "tokenId",
          "type": "uint256"
        },
        {
          "internalType": "address",
          "name": "a",
          "type": "address"
        }
      ],
      "name": "removeSingleCollaborator",
      "outputs": [],
      "stateMutability": "nonpayable",
      "type": "function"
    },
    {
      "inputs": [
        {
          "internalType": "string",
          "name": "hash",
          "type": "string"
        }
      ],
      "name": "seal",
      "outputs": [],
      "stateMutability": "nonpayable",
      "type": "function"
    },
    {
      "inputs": [
        {
          "internalType": "uint256",
          "name": "tokenId",
          "type": "uint256"
        }
      ],
      "name": "getHash",
      "outputs": [
        {
          "internalType": "string",
          "name": "",
          "type": "string"
        }
      ],
      "stateMutability": "view",
      "type": "function"
    },
    {
      "inputs": [
        {
          "internalType": "address",
          "name": "owner",
          "type": "address"
        },
        {
          "internalType": "string",
          "name": "hash",
          "type": "string"
        }
      ],
      "name": "balanceOfHash",
      "outputs": [
        {
          "internalType": "uint256",
          "name": "",
          "type": "uint256"
        }
      ],
      "stateMutability": "view",
      "type": "function"
    },
    {
      "inputs": [
        {
          "internalType": "string",
          "name": "hash",
          "type": "string"
        }
      ],
      "name": "totalSupplyOfHash",
      "outputs": [
        {
          "internalType": "uint256",
          "name": "",
          "type": "uint256"
        }
      ],
      "stateMutability": "view",
      "type": "function"
    },
    {
      "inputs": [
        {
          "internalType": "address",
          "name": "owner",
          "type": "address"
        }
      ],
      "name": "getTokenIdsOf",
      "outputs": [
        {
          "internalType": "uint256[]",
          "name": "",
          "type": "uint256[]"
        }
      ],
      "stateMutability": "view",
      "type": "function"
    },
    {
      "inputs": [
        {
          "internalType": "uint256",
          "name": "tokenId",
          "type": "uint256"
        }
      ],
      "name": "tokenByIdFull",
      "outputs": [
        {
          "components": [
            {
              "internalType": "uint256",
              "name": "id",
              "type": "uint256"
            },
            {
              "internalType": "string",
              "name": "hash",
              "type": "string"
            },
            {
              "internalType": "string",
              "name": "name",
              "type": "string"
            },
            {
              "internalType": "string",
              "name": "ext",
              "type": "string"
            },
            {
              "internalType": "address",
              "name": "minter",
              "type": "address"
            },
            {
              "internalType": "address",
              "name": "owner",
              "type": "address"
            },
            {
              "internalType": "uint256",
              "name": "balance",
              "type": "uint256"
            },
            {
              "internalType": "uint256",
              "name": "totalSupply",
              "type": "uint256"
            }
          ],
          "internalType": "struct WebaverseERC721.Token",
          "name": "",
          "type": "tuple"
        }
      ],
      "stateMutability": "view",
      "type": "function"
    },
    {
      "inputs": [
        {
          "internalType": "address",
          "name": "owner",
          "type": "address"
        },
        {
          "internalType": "uint256",
          "name": "index",
          "type": "uint256"
        }
      ],
      "name": "tokenOfOwnerByIndexFull",
      "outputs": [
        {
          "components": [
            {
              "internalType": "uint256",
              "name": "id",
              "type": "uint256"
            },
            {
              "internalType": "string",
              "name": "hash",
              "type": "string"
            },
            {
              "internalType": "string",
              "name": "name",
              "type": "string"
            },
            {
              "internalType": "string",
              "name": "ext",
              "type": "string"
            },
            {
              "internalType": "address",
              "name": "minter",
              "type": "address"
            },
            {
              "internalType": "address",
              "name": "owner",
              "type": "address"
            },
            {
              "internalType": "uint256",
              "name": "balance",
              "type": "uint256"
            },
            {
              "internalType": "uint256",
              "name": "totalSupply",
              "type": "uint256"
            }
          ],
          "internalType": "struct WebaverseERC721.Token",
          "name": "",
          "type": "tuple"
        }
      ],
      "stateMutability": "view",
      "type": "function"
    },
    {
      "inputs": [
        {
          "internalType": "string",
          "name": "hash",
          "type": "string"
        },
        {
          "internalType": "string",
          "name": "key",
          "type": "string"
        }
      ],
      "name": "getMetadata",
      "outputs": [
        {
          "internalType": "string",
          "name": "",
          "type": "string"
        }
      ],
      "stateMutability": "view",
      "type": "function"
    },
    {
      "inputs": [
        {
          "internalType": "string",
          "name": "hash",
          "type": "string"
        },
        {
          "internalType": "string",
          "name": "key",
          "type": "string"
        },
        {
          "internalType": "string",
          "name": "value",
          "type": "string"
        }
      ],
      "name": "setMetadata",
      "outputs": [],
      "stateMutability": "nonpayable",
      "type": "function"
    },
    {
      "inputs": [
        {
          "internalType": "uint256",
          "name": "tokenId",
          "type": "uint256"
        },
        {
          "internalType": "string",
          "name": "key",
          "type": "string"
        }
      ],
      "name": "getSingleMetadata",
      "outputs": [
        {
          "internalType": "string",
          "name": "",
          "type": "string"
        }
      ],
      "stateMutability": "view",
      "type": "function"
    },
    {
      "inputs": [
        {
          "internalType": "uint256",
          "name": "tokenId",
          "type": "uint256"
        },
        {
          "internalType": "string",
          "name": "key",
          "type": "string"
        },
        {
          "internalType": "string",
          "name": "value",
          "type": "string"
        }
      ],
      "name": "setSingleMetadata",
      "outputs": [],
      "stateMutability": "nonpayable",
      "type": "function"
    },
    {
      "inputs": [
        {
          "internalType": "string",
          "name": "oldHash",
          "type": "string"
        },
        {
          "internalType": "string",
          "name": "newHash",
          "type": "string"
        }
      ],
      "name": "updateHash",
      "outputs": [],
      "stateMutability": "nonpayable",
      "type": "function"
    }
  ],
  "bytecode": "0x60806040526000600e553480156200001657600080fd5b506040516200829e3803806200829e83398181016040528101906200003c919062000458565b8787620000566301ffc9a760e01b6200020660201b60201c565b81600690805190602001906200006e929190620002fa565b50806007908051906020019062000087929190620002fa565b50620000a06380ac58cd60e01b6200020660201b60201c565b620000b8635b5e139f60e01b6200020660201b60201c565b620000d063780e9d6360e01b6200020660201b60201c565b5050620000e386620002de60201b60201c565b84600a60006101000a81548173ffffffffffffffffffffffffffffffffffffffff021916908373ffffffffffffffffffffffffffffffffffffffff16021790555083600b8190555082600c60006101000a81548173ffffffffffffffffffffffffffffffffffffffff021916908373ffffffffffffffffffffffffffffffffffffffff16021790555081600c60146101000a81548160ff02191690831515021790555080600c60156101000a81548160ff0219169083151502179055506001600d60003373ffffffffffffffffffffffffffffffffffffffff1673ffffffffffffffffffffffffffffffffffffffff16815260200190815260200160002060006101000a81548160ff021916908315150217905550505050505050505062000732565b63ffffffff60e01b817bffffffffffffffffffffffffffffffffffffffffffffffffffffffff1916141562000272576040517f08c379a00000000000000000000000000000000000000000000000000000000081526004016200026990620005a8565b60405180910390fd5b6001600080837bffffffffffffffffffffffffffffffffffffffffffffffffffffffff19167bffffffffffffffffffffffffffffffffffffffffffffffffffffffff1916815260200190815260200160002060006101000a81548160ff02191690831515021790555050565b8060099080519060200190620002f6929190620002fa565b5050565b828054600181600116156101000203166002900490600052602060002090601f016020900481019282601f106200033d57805160ff19168380011785556200036e565b828001600101855582156200036e579182015b828111156200036d57825182559160200191906001019062000350565b5b5090506200037d919062000381565b5090565b5b808211156200039c57600081600090555060010162000382565b5090565b600081519050620003b181620006ca565b92915050565b600081519050620003c881620006e4565b92915050565b600081519050620003df81620006fe565b92915050565b600082601f830112620003f757600080fd5b81516200040e6200040882620005f8565b620005ca565b915080825260208301602083018583830111156200042b57600080fd5b6200043883828462000694565b50505092915050565b600081519050620004528162000718565b92915050565b600080600080600080600080610100898b0312156200047657600080fd5b600089015167ffffffffffffffff8111156200049157600080fd5b6200049f8b828c01620003e5565b985050602089015167ffffffffffffffff811115620004bd57600080fd5b620004cb8b828c01620003e5565b975050604089015167ffffffffffffffff811115620004e957600080fd5b620004f78b828c01620003e5565b96505060606200050a8b828c01620003ce565b95505060806200051d8b828c0162000441565b94505060a0620005308b828c01620003a0565b93505060c0620005438b828c01620003b7565b92505060e0620005568b828c01620003b7565b9150509295985092959890939650565b600062000575601c8362000625565b91507f4552433136353a20696e76616c696420696e74657266616365206964000000006000830152602082019050919050565b60006020820190508181036000830152620005c38162000566565b9050919050565b6000604051905081810181811067ffffffffffffffff82111715620005ee57600080fd5b8060405250919050565b600067ffffffffffffffff8211156200061057600080fd5b601f19601f8301169050602081019050919050565b600082825260208201905092915050565b600062000643826200066a565b9050919050565b60008115159050919050565b6000620006638262000636565b9050919050565b600073ffffffffffffffffffffffffffffffffffffffff82169050919050565b6000819050919050565b60005b83811015620006b457808201518184015260208101905062000697565b83811115620006c4576000848401525b50505050565b620006d58162000636565b8114620006e157600080fd5b50565b620006ef816200064a565b8114620006fb57600080fd5b50565b620007098162000656565b81146200071557600080fd5b50565b62000723816200068a565b81146200072f57600080fd5b50565b617b5c80620007426000396000f3fe608060405234801561001057600080fd5b50600436106102ba5760003560e01c80635324f9aa11610182578063953e5880116100e9578063c87b56dd116100a2578063eacc4c6e1161007c578063eacc4c6e14610957578063eddd0d9c14610987578063ef3c198f146109a3578063f2f2cf21146109bf576102ba565b8063c87b56dd146108db578063d96d6b3c1461090b578063e985e9c514610927576102ba565b8063953e58801461081d57806395d89b411461084d578063a22cb4651461086b578063b88d4fde14610887578063bad39b96146108a3578063be000767146108bf576102ba565b80636605bfda1161013b5780636605bfda146107235780636b2fafa91461073f5780636c0360eb1461076f57806370a082311461078d57806377bb26d0146107bd578063831013ba146107ed576102ba565b80635324f9aa1461063f57806355f804b31461066f5780635b7121f81461068b5780635d91407c146106bb57806362f46d15146106d75780636352211e146106f3576102ba565b80631de70289116102265780633e68d630116101df5780633e68d6301461055b57806342842e0e1461058b578063488603df146105a75780634ca9a979146105c35780634dfa54d7146105df5780634f6ccce71461060f576102ba565b80631de702891461048b5780631f3b4c90146104a757806323b872dd146104d75780632f745c59146104f357806332761d16146105235780633a0b1f8e1461053f576102ba565b8063091638ec11610278578063091638ec146103b9578063095ea7b3146103d55780630c9fe527146103f15780630d9cc27514610421578063144b09191461043d57806318160ddd1461046d576102ba565b8062923f9e146102bf57806301ffc9a7146102ef57806306fdde031461031f578063076c88a21461033d578063081812fc1461036d5780630890d80c1461039d575b600080fd5b6102d960048036038101906102d49190616099565b6109db565b6040516102e69190617201565b60405180910390f35b61030960048036038101906103049190615eaf565b6109ed565b6040516103169190617201565b60405180910390f35b610327610a54565b604051610334919061721c565b60405180910390f35b61035760048036038101906103529190615dfb565b610af6565b60405161036491906177c1565b60405180910390f35b61038760048036038101906103829190616099565b610e6a565b60405161039491906170e1565b60405180910390f35b6103b760048036038101906103b29190616002565b610eef565b005b6103d360048036038101906103ce91906160c2565b61118b565b005b6103ef60048036038101906103ea9190615dfb565b6112d4565b005b61040b60048036038101906104069190616099565b6113ec565b60405161041891906177c1565b60405180910390f35b61043b60048036038101906104369190615cbe565b611765565b005b61045760048036038101906104529190615f42565b611ad9565b6040516104649190617201565b60405180910390f35b610475611bb4565b60405161048291906177e3565b60405180910390f35b6104a560048036038101906104a09190615e37565b611bc5565b005b6104c160048036038101906104bc9190615b53565b611db8565b6040516104ce9190617201565b60405180910390f35b6104f160048036038101906104ec9190615bb8565b611e0e565b005b61050d60048036038101906105089190615dfb565b611e6e565b60405161051a91906177e3565b60405180910390f35b61053d60048036038101906105389190615dfb565b611ec9565b005b61055960048036038101906105549190616152565b611f1f565b005b61057560048036038101906105709190616099565b6121cd565b60405161058291906177e3565b60405180910390f35b6105a560048036038101906105a09190615bb8565b6121ea565b005b6105c160048036038101906105bc9190615b53565b61220a565b005b6105dd60048036038101906105d89190615f96565b6122c0565b005b6105f960048036038101906105f491906160c2565b612643565b6040516106069190617201565b60405180910390f35b61062960048036038101906106249190616099565b612708565b60405161063691906177e3565b60405180910390f35b61065960048036038101906106549190615b53565b61272b565b60405161066691906171df565b60405180910390f35b61068960048036038101906106849190615f01565b6127ca565b005b6106a560048036038101906106a09190616099565b612862565b6040516106b291906170e1565b60405180910390f35b6106d560048036038101906106d09190615e37565b61289f565b005b6106f160048036038101906106ec9190615d12565b612a10565b005b61070d60048036038101906107089190616099565b6130b7565b60405161071a91906170e1565b60405180910390f35b61073d60048036038101906107389190615b53565b6130ee565b005b61075960048036038101906107549190616099565b6131c2565b604051610766919061721c565b60405180910390f35b610777613277565b604051610784919061721c565b60405180910390f35b6107a760048036038101906107a29190615b53565b613319565b6040516107b491906177e3565b60405180910390f35b6107d760048036038101906107d29190615cbe565b6133d8565b6040516107e491906177e3565b60405180910390f35b61080760048036038101906108029190615f96565b6134e8565b604051610814919061721c565b60405180910390f35b61083760048036038101906108329190615f01565b6136f9565b60405161084491906177e3565b60405180910390f35b610855613721565b604051610862919061721c565b60405180910390f35b61088560048036038101906108809190615c82565b6137c3565b005b6108a1600480360381019061089c9190615c07565b613944565b005b6108bd60048036038101906108b89190615b53565b6139a6565b005b6108d960048036038101906108d49190615f42565b613a91565b005b6108f560048036038101906108f09190616099565b613d87565b604051610902919061721c565b60405180910390f35b61092560048036038101906109209190615f42565b613dc1565b005b610941600480360381019061093c9190615b7c565b613ed7565b60405161094e9190617201565b60405180910390f35b610971600480360381019061096c91906160fe565b613f6b565b60405161097e919061721c565b60405180910390f35b6109a1600480360381019061099c9190616099565b61415b565b005b6109bd60048036038101906109b89190615f01565b6141f5565b005b6109d960048036038101906109d491906160c2565b61426b565b005b60006109e682614568565b9050919050565b6000806000837bffffffffffffffffffffffffffffffffffffffffffffffffffffffff19167bffffffffffffffffffffffffffffffffffffffffffffffffffffffff1916815260200190815260200160002060009054906101000a900460ff169050919050565b606060068054600181600116156101000203166002900480601f016020809104026020016040519081016040528092919081815260200182805460018160011615610100020316600290048015610aec5780601f10610ac157610100808354040283529160200191610aec565b820191906000526020600020905b815481529060010190602001808311610acf57829003601f168201915b5050505050905090565b610afe615615565b6000610b0a8484611e6e565b90506060806060600c60149054906101000a900460ff1615610c5b57610b65846040518060400160405280600481526020017f6861736800000000000000000000000000000000000000000000000000000000815250613f6b565b9250600f60008581526020019081526020016000208054600181600116156101000203166002900480601f016020809104026020016040519081016040528092919081815260200182805460018160011615610100020316600290048015610c0e5780601f10610be357610100808354040283529160200191610c0e565b820191906000526020600020905b815481529060010190602001808311610bf157829003601f168201915b50505050509150610c54846040518060400160405280600381526020017f6578740000000000000000000000000000000000000000000000000000000000815250613f6b565b9050610d8c565b600f60008581526020019081526020016000208054600181600116156101000203166002900480601f016020809104026020016040519081016040528092919081815260200182805460018160011615610100020316600290048015610d025780601f10610cd757610100808354040283529160200191610d02565b820191906000526020600020905b815481529060010190602001808311610ce557829003601f168201915b50505050509250610d48836040518060400160405280600481526020017f6e616d65000000000000000000000000000000000000000000000000000000008152506134e8565b9150610d89836040518060400160405280600381526020017f65787400000000000000000000000000000000000000000000000000000000008152506134e8565b90505b60006015600086815260200190815260200160002060009054906101000a900473ffffffffffffffffffffffffffffffffffffffff1690506000610dd089866133d8565b90506000601186604051610de491906170a6565b90815260200160405180910390205490506040518061010001604052808881526020018781526020018681526020018581526020018473ffffffffffffffffffffffffffffffffffffffff1681526020018b73ffffffffffffffffffffffffffffffffffffffff1681526020018381526020018281525097505050505050505092915050565b6000610e7582614568565b610eb4576040517f08c379a0000000000000000000000000000000000000000000000000000000008152600401610eab906175e1565b60405180910390fd5b6004600083815260200190815260200160002060009054906101000a900473ffffffffffffffffffffffffffffffffffffffff169050919050565b610ef98333611ad9565b610f38576040517f08c379a0000000000000000000000000000000000000000000000000000000008152600401610f2f90617721565b60405180910390fd5b6000805b601285604051610f4c91906170a6565b9081526020016040518091039020805490508110156110ab57611041601286604051610f7891906170a6565b90815260200160405180910390208281548110610f9157fe5b90600052602060002090600202016000018054600181600116156101000203166002900480601f0160208091040260200160405190810160405280929190818152602001828054600181600116156101000203166002900480156110365780601f1061100b57610100808354040283529160200191611036565b820191906000526020600020905b81548152906001019060200180831161101957829003601f168201915b505050505085614585565b1561109e578260128660405161105791906170a6565b9081526020016040518091039020828154811061107057fe5b90600052602060002090600202016001019080519060200190611094929190615686565b50600191506110ab565b8080600101915050610f3c565b508061114a576012846040516110c191906170a6565b908152602001604051809103902060405180604001604052808581526020018481525090806001815401808255809150506001900390600052602060002090600202016000909190919091506000820151816000019080519060200190611129929190615686565b506020820151816001019080519060200190611146929190615686565b5050505b7f8377145d9399028a063fdd9af215c1354b18cba9fe8763d27fcd8e424e01af9784848460405161117d93929190617275565b60405180910390a150505050565b8073ffffffffffffffffffffffffffffffffffffffff166111ab836130b7565b73ffffffffffffffffffffffffffffffffffffffff1614806111d357506111d28233612643565b5b611212576040517f08c379a0000000000000000000000000000000000000000000000000000000008152600401611209906173e1565b60405180910390fd5b61121c8282612643565b1561125c576040517f08c379a000000000000000000000000000000000000000000000000000000000815260040161125390617621565b60405180910390fd5b60176000838152602001908152602001600020819080600181540180825580915050600190039060005260206000200160009091909190916101000a81548173ffffffffffffffffffffffffffffffffffffffff021916908373ffffffffffffffffffffffffffffffffffffffff1602179055505050565b60006112df826130b7565b90508073ffffffffffffffffffffffffffffffffffffffff168373ffffffffffffffffffffffffffffffffffffffff161415611350576040517f08c379a000000000000000000000000000000000000000000000000000000000815260040161134790617681565b60405180910390fd5b8073ffffffffffffffffffffffffffffffffffffffff1661136f6145de565b73ffffffffffffffffffffffffffffffffffffffff16148061139e575061139d816113986145de565b613ed7565b5b6113dd576040517f08c379a00000000000000000000000000000000000000000000000000000000081526004016113d4906174e1565b60405180910390fd5b6113e783836145e6565b505050565b6113f4615615565b6060806060600c60149054906101000a900460ff16156115435761144d856040518060400160405280600481526020017f6861736800000000000000000000000000000000000000000000000000000000815250613f6b565b9250600f60008681526020019081526020016000208054600181600116156101000203166002900480601f0160208091040260200160405190810160405280929190818152602001828054600181600116156101000203166002900480156114f65780601f106114cb576101008083540402835291602001916114f6565b820191906000526020600020905b8154815290600101906020018083116114d957829003601f168201915b5050505050915061153c856040518060400160405280600381526020017f6578740000000000000000000000000000000000000000000000000000000000815250613f6b565b9050611674565b600f60008681526020019081526020016000208054600181600116156101000203166002900480601f0160208091040260200160405190810160405280929190818152602001828054600181600116156101000203166002900480156115ea5780601f106115bf576101008083540402835291602001916115ea565b820191906000526020600020905b8154815290600101906020018083116115cd57829003601f168201915b50505050509250611630836040518060400160405280600481526020017f6e616d65000000000000000000000000000000000000000000000000000000008152506134e8565b9150611671836040518060400160405280600381526020017f65787400000000000000000000000000000000000000000000000000000000008152506134e8565b90505b60006015600087815260200190815260200160002060009054906101000a900473ffffffffffffffffffffffffffffffffffffffff16905060006116b787614568565b6116c25760006116cc565b6116cb876130b7565b5b905060006011866040516116e091906170a6565b90815260200160405180910390205490506040518061010001604052808981526020018781526020018681526020018581526020018473ffffffffffffffffffffffffffffffffffffffff1681526020018373ffffffffffffffffffffffffffffffffffffffff16815260200160008152602001828152509650505050505050919050565b600c60149054906101000a900460ff166117b4576040517f08c379a00000000000000000000000000000000000000000000000000000000081526004016117ab90617341565b60405180910390fd5b600c60159054906101000a900460ff16806117d457506117d333611db8565b5b611813576040517f08c379a000000000000000000000000000000000000000000000000000000000815260040161180a90617761565b60405180910390fd5b600060118260405161182591906170a6565b90815260200160405180910390205414611874576040517f08c379a000000000000000000000000000000000000000000000000000000000815260040161186b90617541565b60405180910390fd5b611881600e54600161469f565b600e819055506000600e54905061189883826146f4565b826015600083815260200190815260200160002060006101000a81548173ffffffffffffffffffffffffffffffffffffffff021916908373ffffffffffffffffffffffffffffffffffffffff16021790555081600f60008381526020019081526020016000209080519060200190611911929190615686565b50600160118360405161192491906170a6565b90815260200160405180910390208190555060138260405161194691906170a6565b9081526020016040518091039020839080600181540180825580915050600190039060005260206000200160009091909190916101000a81548173ffffffffffffffffffffffffffffffffffffffff021916908373ffffffffffffffffffffffffffffffffffffffff1602179055506000600b5414611ad457600a60009054906101000a900473ffffffffffffffffffffffffffffffffffffffff1673ffffffffffffffffffffffffffffffffffffffff166323b872dd33600c60009054906101000a900473ffffffffffffffffffffffffffffffffffffffff16600b546040518463ffffffff1660e01b8152600401611a42939291906170fc565b602060405180830381600087803b158015611a5c57600080fd5b505af1158015611a70573d6000803e3d6000fd5b505050506040513d601f19601f82011682018060405250810190611a949190615e86565b611ad3576040517f08c379a0000000000000000000000000000000000000000000000000000000008152600401611aca906174a1565b60405180910390fd5b5b505050565b600080600090505b601384604051611af191906170a6565b908152602001604051809103902080549050811015611ba8578273ffffffffffffffffffffffffffffffffffffffff16601385604051611b3191906170a6565b90815260200160405180910390208281548110611b4a57fe5b9060005260206000200160009054906101000a900473ffffffffffffffffffffffffffffffffffffffff1673ffffffffffffffffffffffffffffffffffffffff161415611b9b576001915050611bae565b8080600101915050611ae1565b50600090505b92915050565b6000611bc06002614882565b905090565b3373ffffffffffffffffffffffffffffffffffffffff16611be5836130b7565b73ffffffffffffffffffffffffffffffffffffffff1614611c3b576040517f08c379a0000000000000000000000000000000000000000000000000000000008152600401611c3290617521565b60405180910390fd5b8060146000848152602001908152602001600020541015611c91576040517f08c379a0000000000000000000000000000000000000000000000000000000008152600401611c8890617661565b60405180910390fd5b611cae601460008481526020019081526020016000205482614897565b6014600084815260200190815260200160002081905550600a60009054906101000a900473ffffffffffffffffffffffffffffffffffffffff1673ffffffffffffffffffffffffffffffffffffffff1663a9059cbb84836040518363ffffffff1660e01b8152600401611d229291906171b6565b602060405180830381600087803b158015611d3c57600080fd5b505af1158015611d50573d6000803e3d6000fd5b505050506040513d601f19601f82011682018060405250810190611d749190615e86565b611db3576040517f08c379a0000000000000000000000000000000000000000000000000000000008152600401611daa90617741565b60405180910390fd5b505050565b6000600d60008373ffffffffffffffffffffffffffffffffffffffff1673ffffffffffffffffffffffffffffffffffffffff16815260200190815260200160002060009054906101000a900460ff169050919050565b611e1f611e196145de565b826148e1565b611e5e576040517f08c379a0000000000000000000000000000000000000000000000000000000008152600401611e55906176e1565b60405180910390fd5b611e698383836149bf565b505050565b6000611ec182600160008673ffffffffffffffffffffffffffffffffffffffff1673ffffffffffffffffffffffffffffffffffffffff168152602001908152602001600020614bd690919063ffffffff16565b905092915050565b611ed233611db8565b611f11576040517f08c379a0000000000000000000000000000000000000000000000000000000008152600401611f0890617501565b60405180910390fd5b611f1b82826146f4565b5050565b3373ffffffffffffffffffffffffffffffffffffffff16611f3f846130b7565b73ffffffffffffffffffffffffffffffffffffffff161480611f675750611f668333612643565b5b611fa6576040517f08c379a0000000000000000000000000000000000000000000000000000000008152600401611f9d90617361565b60405180910390fd5b6000805b60166000868152602001908152602001600020805490508110156120f857612099601660008781526020019081526020016000208281548110611fe957fe5b90600052602060002090600202016000018054600181600116156101000203166002900480601f01602080910402602001604051908101604052809291908181526020018280546001816001161561010002031660029004801561208e5780601f106120635761010080835404028352916020019161208e565b820191906000526020600020905b81548152906001019060200180831161207157829003601f168201915b505050505085614585565b156120eb57826016600087815260200190815260200160002082815481106120bd57fe5b906000526020600020906002020160010190805190602001906120e1929190615686565b50600191506120f8565b8080600101915050611faa565b508061218c57601660008581526020019081526020016000206040518060400160405280858152602001848152509080600181540180825580915050600190039060005260206000209060020201600090919091909150600082015181600001908051906020019061216b929190615686565b506020820151816001019080519060200190612188929190615686565b5050505b7fb8814a4649a63613b0ae2f7d5f71b3771676c2eba17542b79a2a6d5c19d4af3c8484846040516121bf939291906177fe565b60405180910390a150505050565b600060146000838152602001908152602001600020549050919050565b61220583838360405180602001604052806000815250613944565b505050565b61221333611db8565b61221c57600080fd5b61222581611db8565b15612265576040517f08c379a000000000000000000000000000000000000000000000000000000000815260040161225c906172c1565b60405180910390fd5b6001600d60008373ffffffffffffffffffffffffffffffffffffffff1673ffffffffffffffffffffffffffffffffffffffff16815260200190815260200160002060006101000a81548160ff02191690831515021790555050565b60006011836040516122d291906170a6565b90815260200160405180910390205411612321576040517f08c379a0000000000000000000000000000000000000000000000000000000008152600401612318906177a1565b60405180910390fd5b600060118260405161233391906170a6565b90815260200160405180910390205414612382576040517f08c379a000000000000000000000000000000000000000000000000000000000815260040161237990617301565b60405180910390fd5b61238c8233611ad9565b6123cb576040517f08c379a00000000000000000000000000000000000000000000000000000000081526004016123c290617721565b60405180910390fd5b60006010836040516123dd91906170a6565b9081526020016040518091039020549050600060118460405161240091906170a6565b908152602001604051809103902054905060005b818110156124535783600f600083860181526020019081526020016000209080519060200190612445929190615686565b508080600101915050612414565b5060108460405161246491906170a6565b90815260200160405180910390205460108460405161248391906170a6565b9081526020016040518091039020819055506011846040516124a591906170a6565b9081526020016040518091039020546011846040516124c491906170a6565b9081526020016040518091039020819055506012846040516124e691906170a6565b908152602001604051809103902060128460405161250491906170a6565b9081526020016040518091039020908054612520929190615706565b5060138460405161253191906170a6565b908152602001604051809103902060138460405161254f91906170a6565b908152602001604051809103902090805461256b9291906157ae565b5060108460405161257c91906170a6565b90815260200160405180910390206000905560118460405161259e91906170a6565b9081526020016040518091039020600090556012846040516125c091906170a6565b908152602001604051809103902060006125da9190615800565b6013846040516125ea91906170a6565b908152602001604051809103902060006126049190615824565b7f224afc3822d8f8365592e22aa470e6da5a347b5c09d399fe8111fcad70c3040d848460405161263592919061723e565b60405180910390a150505050565b600080600090505b60176000858152602001908152602001600020805490508110156126fc578273ffffffffffffffffffffffffffffffffffffffff1660176000868152602001908152602001600020828154811061269e57fe5b9060005260206000200160009054906101000a900473ffffffffffffffffffffffffffffffffffffffff1673ffffffffffffffffffffffffffffffffffffffff1614156126ef576001915050612702565b808060010191505061264b565b50600090505b92915050565b60008061271f836002614bf090919063ffffffff16565b50905080915050919050565b6060600061273883613319565b905060608167ffffffffffffffff8111801561275357600080fd5b506040519080825280602002602001820160405280156127825781602001602082028036833780820191505090505b50905060005b828110156127bf5761279a8582611e6e565b8282815181106127a657fe5b6020026020010181815250508080600101915050612788565b508092505050919050565b600d60003373ffffffffffffffffffffffffffffffffffffffff1673ffffffffffffffffffffffffffffffffffffffff16815260200190815260200160002060009054906101000a900460ff16612856576040517f08c379a000000000000000000000000000000000000000000000000000000000815260040161284d906176c1565b60405180910390fd5b61285f81614c1c565b50565b60006015600083815260200190815260200160002060009054906101000a900473ffffffffffffffffffffffffffffffffffffffff169050919050565b6128a882614568565b6128e7576040517f08c379a00000000000000000000000000000000000000000000000000000000081526004016128de906175c1565b60405180910390fd5b61290460146000848152602001908152602001600020548261469f565b6014600084815260200190815260200160002081905550600a60009054906101000a900473ffffffffffffffffffffffffffffffffffffffff1673ffffffffffffffffffffffffffffffffffffffff166323b872dd8430846040518463ffffffff1660e01b815260040161297a9392919061717f565b602060405180830381600087803b15801561299457600080fd5b505af11580156129a8573d6000803e3d6000fd5b505050506040513d601f19601f820116820180604052508101906129cc9190615e86565b612a0b576040517f08c379a0000000000000000000000000000000000000000000000000000000008152600401612a0290617741565b60405180910390fd5b505050565b600c60149054906101000a900460ff1615612a60576040517f08c379a0000000000000000000000000000000000000000000000000000000008152600401612a5790617341565b60405180910390fd5b600c60159054906101000a900460ff1680612a805750612a7f33611db8565b5b612abf576040517f08c379a0000000000000000000000000000000000000000000000000000000008152600401612ab690617761565b60405180910390fd5b6000855111612b03576040517f08c379a0000000000000000000000000000000000000000000000000000000008152600401612afa90617421565b60405180910390fd5b60008111612b46576040517f08c379a0000000000000000000000000000000000000000000000000000000008152600401612b3d906176a1565b60405180910390fd5b6000601186604051612b5891906170a6565b90815260200160405180910390205414612ba7576040517f08c379a0000000000000000000000000000000000000000000000000000000008152600401612b9e90617541565b60405180910390fd5b6001600e5401601086604051612bbd91906170a6565b90815260200160405180910390208190555060005b81811015612c8657612be7600e54600161469f565b600e819055506000600e549050612bfe88826146f4565b876015600083815260200190815260200160002060006101000a81548173ffffffffffffffffffffffffffffffffffffffff021916908373ffffffffffffffffffffffffffffffffffffffff16021790555086600f60008381526020019081526020016000209080519060200190612c77929190615686565b50818060010192505050612bd2565b81601187604051612c9791906170a6565b908152602001604051809103902081905550601286604051612cb991906170a6565b908152602001604051809103902060405180604001604052806040518060400160405280600481526020017f6e616d650000000000000000000000000000000000000000000000000000000081525081526020018781525090806001815401808255809150506001900390600052602060002090600202016000909190919091506000820151816000019080519060200190612d56929190615686565b506020820151816001019080519060200190612d73929190615686565b505050601286604051612d8691906170a6565b908152602001604051809103902060405180604001604052806040518060400160405280600381526020017f657874000000000000000000000000000000000000000000000000000000000081525081526020018681525090806001815401808255809150506001900390600052602060002090600202016000909190919091506000820151816000019080519060200190612e23929190615686565b506020820151816001019080519060200190612e40929190615686565b505050601286604051612e5391906170a6565b908152602001604051809103902060405180604001604052806040518060400160405280600b81526020017f6465736372697074696f6e00000000000000000000000000000000000000000081525081526020018581525090806001815401808255809150506001900390600052602060002090600202016000909190919091506000820151816000019080519060200190612ef0929190615686565b506020820151816001019080519060200190612f0d929190615686565b505050601386604051612f2091906170a6565b9081526020016040518091039020879080600181540180825580915050600190039060005260206000200160009091909190916101000a81548173ffffffffffffffffffffffffffffffffffffffff021916908373ffffffffffffffffffffffffffffffffffffffff1602179055506000600b54146130ae57600a60009054906101000a900473ffffffffffffffffffffffffffffffffffffffff1673ffffffffffffffffffffffffffffffffffffffff166323b872dd33600c60009054906101000a900473ffffffffffffffffffffffffffffffffffffffff16600b546040518463ffffffff1660e01b815260040161301c939291906170fc565b602060405180830381600087803b15801561303657600080fd5b505af115801561304a573d6000803e3d6000fd5b505050506040513d601f19601f8201168201806040525081019061306e9190615e86565b6130ad576040517f08c379a00000000000000000000000000000000000000000000000000000000081526004016130a4906174a1565b60405180910390fd5b5b50505050505050565b60006130e782604051806060016040528060298152602001617afe602991396002614c369092919063ffffffff16565b9050919050565b600c60009054906101000a900473ffffffffffffffffffffffffffffffffffffffff1673ffffffffffffffffffffffffffffffffffffffff163373ffffffffffffffffffffffffffffffffffffffff161461317e576040517f08c379a000000000000000000000000000000000000000000000000000000000815260040161317590617601565b60405180910390fd5b80600c60006101000a81548173ffffffffffffffffffffffffffffffffffffffff021916908373ffffffffffffffffffffffffffffffffffffffff16021790555050565b6060600f60008381526020019081526020016000208054600181600116156101000203166002900480601f01602080910402602001604051908101604052809291908181526020018280546001816001161561010002031660029004801561326b5780601f106132405761010080835404028352916020019161326b565b820191906000526020600020905b81548152906001019060200180831161324e57829003601f168201915b50505050509050919050565b606060098054600181600116156101000203166002900480601f01602080910402602001604051908101604052809291908181526020018280546001816001161561010002031660029004801561330f5780601f106132e45761010080835404028352916020019161330f565b820191906000526020600020905b8154815290600101906020018083116132f257829003601f168201915b5050505050905090565b60008073ffffffffffffffffffffffffffffffffffffffff168273ffffffffffffffffffffffffffffffffffffffff16141561338a576040517f08c379a000000000000000000000000000000000000000000000000000000000815260040161338190617561565b60405180910390fd5b6133d1600160008473ffffffffffffffffffffffffffffffffffffffff1673ffffffffffffffffffffffffffffffffffffffff168152602001908152602001600020614c55565b9050919050565b6000806000905060006133ea85613319565b905060005b818110156134dc5760006134038783611e6e565b90506060600f60008381526020019081526020016000208054600181600116156101000203166002900480601f0160208091040260200160405190810160405280929190818152602001828054600181600116156101000203166002900480156134ae5780601f10613483576101008083540402835291602001916134ae565b820191906000526020600020905b81548152906001019060200180831161349157829003601f168201915b505050505090506134bf8188614585565b156134cd5784806001019550505b505080806001019150506133ef565b50819250505092915050565b606060005b6012846040516134fd91906170a6565b9081526020016040518091039020805490508110156136df576135f260128560405161352991906170a6565b9081526020016040518091039020828154811061354257fe5b90600052602060002090600202016000018054600181600116156101000203166002900480601f0160208091040260200160405190810160405280929190818152602001828054600181600116156101000203166002900480156135e75780601f106135bc576101008083540402835291602001916135e7565b820191906000526020600020905b8154815290600101906020018083116135ca57829003601f168201915b505050505084614585565b156136d25760128460405161360791906170a6565b9081526020016040518091039020818154811061362057fe5b90600052602060002090600202016001018054600181600116156101000203166002900480601f0160208091040260200160405190810160405280929190818152602001828054600181600116156101000203166002900480156136c55780601f1061369a576101008083540402835291602001916136c5565b820191906000526020600020905b8154815290600101906020018083116136a857829003601f168201915b50505050509150506136f3565b80806001019150506134ed565b506040518060200160405280600081525090505b92915050565b600060118260405161370b91906170a6565b9081526020016040518091039020549050919050565b606060078054600181600116156101000203166002900480601f0160208091040260200160405190810160405280929190818152602001828054600181600116156101000203166002900480156137b95780601f1061378e576101008083540402835291602001916137b9565b820191906000526020600020905b81548152906001019060200180831161379c57829003601f168201915b5050505050905090565b6137cb6145de565b73ffffffffffffffffffffffffffffffffffffffff168273ffffffffffffffffffffffffffffffffffffffff161415613839576040517f08c379a000000000000000000000000000000000000000000000000000000000815260040161383090617441565b60405180910390fd5b80600560006138466145de565b73ffffffffffffffffffffffffffffffffffffffff1673ffffffffffffffffffffffffffffffffffffffff16815260200190815260200160002060008473ffffffffffffffffffffffffffffffffffffffff1673ffffffffffffffffffffffffffffffffffffffff16815260200190815260200160002060006101000a81548160ff0219169083151502179055508173ffffffffffffffffffffffffffffffffffffffff166138f36145de565b73ffffffffffffffffffffffffffffffffffffffff167f17307eab39ab6107e8899845ad3d59bd9653f200f220920489ca2b5937696c31836040516139389190617201565b60405180910390a35050565b61395561394f6145de565b836148e1565b613994576040517f08c379a000000000000000000000000000000000000000000000000000000000815260040161398b906176e1565b60405180910390fd5b6139a084848484614c6a565b50505050565b6139af33611db8565b6139ee576040517f08c379a00000000000000000000000000000000000000000000000000000000081526004016139e5906173c1565b60405180910390fd5b6139f781611db8565b613a36576040517f08c379a0000000000000000000000000000000000000000000000000000000008152600401613a2d90617781565b60405180910390fd5b6000600d60008373ffffffffffffffffffffffffffffffffffffffff1673ffffffffffffffffffffffffffffffffffffffff16815260200190815260200160002060006101000a81548160ff02191690831515021790555050565b613a9b8233611ad9565b613ada576040517f08c379a0000000000000000000000000000000000000000000000000000000008152600401613ad1906173e1565b60405180910390fd5b613ae48233611ad9565b613b23576040517f08c379a0000000000000000000000000000000000000000000000000000000008152600401613b1a906174c1565b60405180910390fd5b6000805b601384604051613b3791906170a6565b908152602001604051809103902080549050811015613bec578273ffffffffffffffffffffffffffffffffffffffff16601385604051613b7791906170a6565b90815260200160405180910390208281548110613b9057fe5b9060005260206000200160009054906101000a900473ffffffffffffffffffffffffffffffffffffffff1673ffffffffffffffffffffffffffffffffffffffff1614613bdf5781806001019250505b8080600101915050613b27565b5060608167ffffffffffffffff81118015613c0657600080fd5b50604051908082528060200260200182016040528015613c355781602001602082028036833780820191505090505b5090506000805b601386604051613c4c91906170a6565b908152602001604051809103902080549050811015613d4c576000601387604051613c7791906170a6565b90815260200160405180910390208281548110613c9057fe5b9060005260206000200160009054906101000a900473ffffffffffffffffffffffffffffffffffffffff1690508573ffffffffffffffffffffffffffffffffffffffff168173ffffffffffffffffffffffffffffffffffffffff1614613d3e5780848480600101955081518110613d0357fe5b602002602001019073ffffffffffffffffffffffffffffffffffffffff16908173ffffffffffffffffffffffffffffffffffffffff16815250505b508080600101915050613c3c565b5081601386604051613d5e91906170a6565b90815260200160405180910390209080519060200190613d7f929190615845565b505050505050565b6060613d91613277565b613d9a83614cc6565b604051602001613dab9291906170bd565b6040516020818303038152906040529050919050565b613dcb8233611ad9565b613e0a576040517f08c379a0000000000000000000000000000000000000000000000000000000008152600401613e01906173e1565b60405180910390fd5b613e148282611ad9565b15613e54576040517f08c379a0000000000000000000000000000000000000000000000000000000008152600401613e4b90617621565b60405180910390fd5b601382604051613e6491906170a6565b9081526020016040518091039020819080600181540180825580915050600190039060005260206000200160009091909190916101000a81548173ffffffffffffffffffffffffffffffffffffffff021916908373ffffffffffffffffffffffffffffffffffffffff1602179055505050565b6000600560008473ffffffffffffffffffffffffffffffffffffffff1673ffffffffffffffffffffffffffffffffffffffff16815260200190815260200160002060008373ffffffffffffffffffffffffffffffffffffffff1673ffffffffffffffffffffffffffffffffffffffff16815260200190815260200160002060009054906101000a900460ff16905092915050565b606060005b60166000858152602001908152602001600020805490508110156141415761405f601660008681526020019081526020016000208281548110613faf57fe5b90600052602060002090600202016000018054600181600116156101000203166002900480601f0160208091040260200160405190810160405280929190818152602001828054600181600116156101000203166002900480156140545780601f1061402957610100808354040283529160200191614054565b820191906000526020600020905b81548152906001019060200180831161403757829003601f168201915b505050505084614585565b156141345760166000858152602001908152602001600020818154811061408257fe5b90600052602060002090600202016001018054600181600116156101000203166002900480601f0160208091040260200160405190810160405280929190818152602001828054600181600116156101000203166002900480156141275780601f106140fc57610100808354040283529160200191614127565b820191906000526020600020905b81548152906001019060200180831161410a57829003601f168201915b5050505050915050614155565b8080600101915050613f70565b506040518060200160405280600081525090505b92915050565b600c60009054906101000a900473ffffffffffffffffffffffffffffffffffffffff1673ffffffffffffffffffffffffffffffffffffffff163373ffffffffffffffffffffffffffffffffffffffff16146141eb576040517f08c379a00000000000000000000000000000000000000000000000000000000081526004016141e290617601565b60405180910390fd5b80600b8190555050565b6141ff8133611ad9565b61423e576040517f08c379a000000000000000000000000000000000000000000000000000000000815260040161423590617721565b60405180910390fd5b60138160405161424e91906170a6565b908152602001604051809103902060006142689190615824565b50565b8073ffffffffffffffffffffffffffffffffffffffff1661428b836130b7565b73ffffffffffffffffffffffffffffffffffffffff1614806142b357506142b28233612643565b5b6142f2576040517f08c379a00000000000000000000000000000000000000000000000000000000081526004016142e9906173e1565b60405180910390fd5b6142fc8233612643565b61433b576040517f08c379a0000000000000000000000000000000000000000000000000000000008152600401614332906174c1565b60405180910390fd5b6000805b60176000858152602001908152602001600020805490508110156143ee578273ffffffffffffffffffffffffffffffffffffffff1660176000868152602001908152602001600020828154811061439257fe5b9060005260206000200160009054906101000a900473ffffffffffffffffffffffffffffffffffffffff1673ffffffffffffffffffffffffffffffffffffffff16146143e15781806001019250505b808060010191505061433f565b5060608167ffffffffffffffff8111801561440857600080fd5b506040519080825280602002602001820160405280156144375781602001602082028036833780820191505090505b5090506000805b601760008781526020019081526020016000208054905081101561453857600060176000888152602001908152602001600020828154811061447c57fe5b9060005260206000200160009054906101000a900473ffffffffffffffffffffffffffffffffffffffff1690508573ffffffffffffffffffffffffffffffffffffffff168173ffffffffffffffffffffffffffffffffffffffff161461452a57808484806001019550815181106144ef57fe5b602002602001019073ffffffffffffffffffffffffffffffffffffffff16908173ffffffffffffffffffffffffffffffffffffffff16815250505b50808060010191505061443e565b5081601760008781526020019081526020016000209080519060200190614560929190615845565b505050505050565b600061457e826002614e0a90919063ffffffff16565b9050919050565b60008160405160200161459891906170a6565b60405160208183030381529060405280519060200120836040516020016145bf91906170a6565b6040516020818303038152906040528051906020012014905092915050565b600033905090565b816004600083815260200190815260200160002060006101000a81548173ffffffffffffffffffffffffffffffffffffffff021916908373ffffffffffffffffffffffffffffffffffffffff160217905550808273ffffffffffffffffffffffffffffffffffffffff16614659836130b7565b73ffffffffffffffffffffffffffffffffffffffff167f8c5be1e5ebec7d5bd14f71427d1e84f3dd0314c0f7b2291e5b200ac8c7c3b92560405160405180910390a45050565b6000808284019050838110156146ea576040517f08c379a00000000000000000000000000000000000000000000000000000000081526004016146e1906173a1565b60405180910390fd5b8091505092915050565b600073ffffffffffffffffffffffffffffffffffffffff168273ffffffffffffffffffffffffffffffffffffffff161415614764576040517f08c379a000000000000000000000000000000000000000000000000000000000815260040161475b906175a1565b60405180910390fd5b61476d81614568565b156147ad576040517f08c379a00000000000000000000000000000000000000000000000000000000081526004016147a490617381565b60405180910390fd5b6147b960008383614e24565b61480a81600160008573ffffffffffffffffffffffffffffffffffffffff1673ffffffffffffffffffffffffffffffffffffffff168152602001908152602001600020614e2990919063ffffffff16565b5061482181836002614e439092919063ffffffff16565b50808273ffffffffffffffffffffffffffffffffffffffff16600073ffffffffffffffffffffffffffffffffffffffff167fddf252ad1be2c89b69c2b068fc378daa952ba7f163c4a11628f55a4df523b3ef60405160405180910390a45050565b600061489082600001614e78565b9050919050565b60006148d983836040518060400160405280601e81526020017f536166654d6174683a207375627472616374696f6e206f766572666c6f770000815250614e89565b905092915050565b60006148ec82614568565b61492b576040517f08c379a000000000000000000000000000000000000000000000000000000000815260040161492290617481565b60405180910390fd5b6000614936836130b7565b90508073ffffffffffffffffffffffffffffffffffffffff168473ffffffffffffffffffffffffffffffffffffffff1614806149a557508373ffffffffffffffffffffffffffffffffffffffff1661498d84610e6a565b73ffffffffffffffffffffffffffffffffffffffff16145b806149b657506149b58185613ed7565b5b91505092915050565b8273ffffffffffffffffffffffffffffffffffffffff166149df826130b7565b73ffffffffffffffffffffffffffffffffffffffff1614614a35576040517f08c379a0000000000000000000000000000000000000000000000000000000008152600401614a2c90617641565b60405180910390fd5b600073ffffffffffffffffffffffffffffffffffffffff168273ffffffffffffffffffffffffffffffffffffffff161415614aa5576040517f08c379a0000000000000000000000000000000000000000000000000000000008152600401614a9c90617401565b60405180910390fd5b614ab0838383614e24565b614abb6000826145e6565b614b0c81600160008673ffffffffffffffffffffffffffffffffffffffff1673ffffffffffffffffffffffffffffffffffffffff168152602001908152602001600020614ee490919063ffffffff16565b50614b5e81600160008573ffffffffffffffffffffffffffffffffffffffff1673ffffffffffffffffffffffffffffffffffffffff168152602001908152602001600020614e2990919063ffffffff16565b50614b7581836002614e439092919063ffffffff16565b50808273ffffffffffffffffffffffffffffffffffffffff168473ffffffffffffffffffffffffffffffffffffffff167fddf252ad1be2c89b69c2b068fc378daa952ba7f163c4a11628f55a4df523b3ef60405160405180910390a4505050565b6000614be58360000183614efe565b60001c905092915050565b600080600080614c038660000186614f6b565b915091508160001c8160001c9350935050509250929050565b8060099080519060200190614c32929190615686565b5050565b6000614c49846000018460001b84614fee565b60001c90509392505050565b6000614c638260000161507f565b9050919050565b614c758484846149bf565b614c8184848484615090565b614cc0576040517f08c379a0000000000000000000000000000000000000000000000000000000008152600401614cb790617321565b60405180910390fd5b50505050565b60606000821415614d0e576040518060400160405280600181526020017f30000000000000000000000000000000000000000000000000000000000000008152509050614e05565b600082905060005b60008214614d38578080600101915050600a8281614d3057fe5b049150614d16565b60608167ffffffffffffffff81118015614d5157600080fd5b506040519080825280601f01601f191660200182016040528015614d845781602001600182028036833780820191505090505b50905060006001830390505b60008614614dfd57600a8681614da257fe5b0660300160f81b82828060019003935081518110614dbc57fe5b60200101907effffffffffffffffffffffffffffffffffffffffffffffffffffffffffffff1916908160001a905350600a8681614df557fe5b049550614d90565b819450505050505b919050565b6000614e1c836000018360001b6151f4565b905092915050565b505050565b6000614e3b836000018360001b615217565b905092915050565b6000614e6f846000018460001b8473ffffffffffffffffffffffffffffffffffffffff1660001b615287565b90509392505050565b600081600001805490509050919050565b6000838311158290614ed1576040517f08c379a0000000000000000000000000000000000000000000000000000000008152600401614ec8919061721c565b60405180910390fd5b5060008385039050809150509392505050565b6000614ef6836000018360001b615363565b905092915050565b600081836000018054905011614f49576040517f08c379a0000000000000000000000000000000000000000000000000000000008152600401614f40906172e1565b60405180910390fd5b826000018281548110614f5857fe5b9060005260206000200154905092915050565b60008082846000018054905011614fb7576040517f08c379a0000000000000000000000000000000000000000000000000000000008152600401614fae90617581565b60405180910390fd5b6000846000018481548110614fc857fe5b906000526020600020906002020190508060000154816001015492509250509250929050565b60008084600101600085815260200190815260200160002054905060008114158390615050576040517f08c379a0000000000000000000000000000000000000000000000000000000008152600401615047919061721c565b60405180910390fd5b5084600001600182038154811061506357fe5b9060005260206000209060020201600101549150509392505050565b600081600001805490509050919050565b60006150b18473ffffffffffffffffffffffffffffffffffffffff1661544b565b6150be57600190506151ec565b606061518563150b7a0260e01b6150d36145de565b8887876040516024016150e99493929190617133565b604051602081830303815290604052907bffffffffffffffffffffffffffffffffffffffffffffffffffffffff19166020820180517bffffffffffffffffffffffffffffffffffffffffffffffffffffffff8381831617835250505050604051806060016040528060328152602001617acc603291398773ffffffffffffffffffffffffffffffffffffffff1661545e9092919063ffffffff16565b905060008180602001905181019061519d9190615ed8565b905063150b7a0260e01b7bffffffffffffffffffffffffffffffffffffffffffffffffffffffff1916817bffffffffffffffffffffffffffffffffffffffffffffffffffffffff191614925050505b949350505050565b600080836001016000848152602001908152602001600020541415905092915050565b60006152238383615476565b61527c578260000182908060018154018082558091505060019003906000526020600020016000909190919091505582600001805490508360010160008481526020019081526020016000208190555060019050615281565b600090505b92915050565b600080846001016000858152602001908152602001600020549050600081141561532e5784600001604051806040016040528086815260200185815250908060018154018082558091505060019003906000526020600020906002020160009091909190915060008201518160000155602082015181600101555050846000018054905085600101600086815260200190815260200160002081905550600191505061535c565b8285600001600183038154811061534157fe5b90600052602060002090600202016001018190555060009150505b9392505050565b6000808360010160008481526020019081526020016000205490506000811461543f57600060018203905060006001866000018054905003905060008660000182815481106153ae57fe5b90600052602060002001549050808760000184815481106153cb57fe5b906000526020600020018190555060018301876001016000838152602001908152602001600020819055508660000180548061540357fe5b60019003818190600052602060002001600090559055866001016000878152602001908152602001600020600090556001945050505050615445565b60009150505b92915050565b600080823b905060008111915050919050565b606061546d8484600085615499565b90509392505050565b600080836001016000848152602001908152602001600020541415905092915050565b6060824710156154de576040517f08c379a00000000000000000000000000000000000000000000000000000000081526004016154d590617461565b60405180910390fd5b6154e78561544b565b615526576040517f08c379a000000000000000000000000000000000000000000000000000000000815260040161551d90617701565b60405180910390fd5b600060608673ffffffffffffffffffffffffffffffffffffffff168587604051615550919061708f565b60006040518083038185875af1925050503d806000811461558d576040519150601f19603f3d011682016040523d82523d6000602084013e615592565b606091505b50915091506155a28282866155ae565b92505050949350505050565b606083156155be5782905061560e565b6000835111156155d15782518084602001fd5b816040517f08c379a0000000000000000000000000000000000000000000000000000000008152600401615605919061721c565b60405180910390fd5b9392505050565b60405180610100016040528060008152602001606081526020016060815260200160608152602001600073ffffffffffffffffffffffffffffffffffffffff168152602001600073ffffffffffffffffffffffffffffffffffffffff16815260200160008152602001600081525090565b828054600181600116156101000203166002900490600052602060002090601f016020900481019282601f106156c757805160ff19168380011785556156f5565b828001600101855582156156f5579182015b828111156156f45782518255916020019190600101906156d9565b5b50905061570291906158cf565b5090565b82805482825590600052602060002090600202810192821561579d5760005260206000209160020282015b8281111561579c578282600082018160000190805460018160011615610100020316600290046157629291906158ec565b506001820181600101908054600181600116156101000203166002900461578a9291906158ec565b50505091600201919060020190615731565b5b5090506157aa9190615973565b5090565b8280548282559060005260206000209081019282156157ef5760005260206000209182015b828111156157ee5782548255916001019190600101906157d3565b5b5090506157fc91906159aa565b5090565b50805460008255600202906000526020600020908101906158219190615973565b50565b508054600082559060005260206000209081019061584291906158cf565b50565b8280548282559060005260206000209081019282156158be579160200282015b828111156158bd5782518260006101000a81548173ffffffffffffffffffffffffffffffffffffffff021916908373ffffffffffffffffffffffffffffffffffffffff16021790555091602001919060010190615865565b5b5090506158cb91906159aa565b5090565b5b808211156158e85760008160009055506001016158d0565b5090565b828054600181600116156101000203166002900490600052602060002090601f016020900481019282601f106159255780548555615962565b8280016001018555821561596257600052602060002091601f016020900482015b82811115615961578254825591600101919060010190615946565b5b50905061596f91906158cf565b5090565b5b808211156159a6576000808201600061598d91906159e5565b60018201600061599d91906159e5565b50600201615974565b5090565b5b808211156159e157600081816101000a81549073ffffffffffffffffffffffffffffffffffffffff0219169055506001016159ab565b5090565b50805460018160011615610100020316600290046000825580601f10615a0b5750615a2a565b601f016020900490600052602060002090810190615a2991906158cf565b5b50565b600081359050615a3c81617a6f565b92915050565b600081359050615a5181617a86565b92915050565b600081519050615a6681617a86565b92915050565b600081359050615a7b81617a9d565b92915050565b600081519050615a9081617a9d565b92915050565b600082601f830112615aa757600080fd5b8135615aba615ab582617870565b617843565b91508082526020830160208301858383011115615ad657600080fd5b615ae1838284617a1c565b50505092915050565b600082601f830112615afb57600080fd5b8135615b0e615b098261789c565b617843565b91508082526020830160208301858383011115615b2a57600080fd5b615b35838284617a1c565b50505092915050565b600081359050615b4d81617ab4565b92915050565b600060208284031215615b6557600080fd5b6000615b7384828501615a2d565b91505092915050565b60008060408385031215615b8f57600080fd5b6000615b9d85828601615a2d565b9250506020615bae85828601615a2d565b9150509250929050565b600080600060608486031215615bcd57600080fd5b6000615bdb86828701615a2d565b9350506020615bec86828701615a2d565b9250506040615bfd86828701615b3e565b9150509250925092565b60008060008060808587031215615c1d57600080fd5b6000615c2b87828801615a2d565b9450506020615c3c87828801615a2d565b9350506040615c4d87828801615b3e565b925050606085013567ffffffffffffffff811115615c6a57600080fd5b615c7687828801615a96565b91505092959194509250565b60008060408385031215615c9557600080fd5b6000615ca385828601615a2d565b9250506020615cb485828601615a42565b9150509250929050565b60008060408385031215615cd157600080fd5b6000615cdf85828601615a2d565b925050602083013567ffffffffffffffff811115615cfc57600080fd5b615d0885828601615aea565b9150509250929050565b60008060008060008060c08789031215615d2b57600080fd5b6000615d3989828a01615a2d565b965050602087013567ffffffffffffffff811115615d5657600080fd5b615d6289828a01615aea565b955050604087013567ffffffffffffffff811115615d7f57600080fd5b615d8b89828a01615aea565b945050606087013567ffffffffffffffff811115615da857600080fd5b615db489828a01615aea565b935050608087013567ffffffffffffffff811115615dd157600080fd5b615ddd89828a01615aea565b92505060a0615dee89828a01615b3e565b9150509295509295509295565b60008060408385031215615e0e57600080fd5b6000615e1c85828601615a2d565b9250506020615e2d85828601615b3e565b9150509250929050565b600080600060608486031215615e4c57600080fd5b6000615e5a86828701615a2d565b9350506020615e6b86828701615b3e565b9250506040615e7c86828701615b3e565b9150509250925092565b600060208284031215615e9857600080fd5b6000615ea684828501615a57565b91505092915050565b600060208284031215615ec157600080fd5b6000615ecf84828501615a6c565b91505092915050565b600060208284031215615eea57600080fd5b6000615ef884828501615a81565b91505092915050565b600060208284031215615f1357600080fd5b600082013567ffffffffffffffff811115615f2d57600080fd5b615f3984828501615aea565b91505092915050565b60008060408385031215615f5557600080fd5b600083013567ffffffffffffffff811115615f6f57600080fd5b615f7b85828601615aea565b9250506020615f8c85828601615a2d565b9150509250929050565b60008060408385031215615fa957600080fd5b600083013567ffffffffffffffff811115615fc357600080fd5b615fcf85828601615aea565b925050602083013567ffffffffffffffff811115615fec57600080fd5b615ff885828601615aea565b9150509250929050565b60008060006060848603121561601757600080fd5b600084013567ffffffffffffffff81111561603157600080fd5b61603d86828701615aea565b935050602084013567ffffffffffffffff81111561605a57600080fd5b61606686828701615aea565b925050604084013567ffffffffffffffff81111561608357600080fd5b61608f86828701615aea565b9150509250925092565b6000602082840312156160ab57600080fd5b60006160b984828501615b3e565b91505092915050565b600080604083850312156160d557600080fd5b60006160e385828601615b3e565b92505060206160f485828601615a2d565b9150509250929050565b6000806040838503121561611157600080fd5b600061611f85828601615b3e565b925050602083013567ffffffffffffffff81111561613c57600080fd5b61614885828601615aea565b9150509250929050565b60008060006060848603121561616757600080fd5b600061617586828701615b3e565b935050602084013567ffffffffffffffff81111561619257600080fd5b61619e86828701615aea565b925050604084013567ffffffffffffffff8111156161bb57600080fd5b6161c786828701615aea565b9150509250925092565b60006161dd8383617071565b60208301905092915050565b6161f2816179e6565b82525050565b61620181617972565b82525050565b61621081617960565b82525050565b61621f81617960565b82525050565b6000616230826178d8565b61623a8185617906565b9350616245836178c8565b8060005b8381101561627657815161625d88826161d1565b9750616268836178f9565b925050600181019050616249565b5085935050505092915050565b61628c81617984565b82525050565b600061629d826178e3565b6162a78185617917565b93506162b7818560208601617a2b565b6162c081617a5e565b840191505092915050565b60006162d6826178e3565b6162e08185617928565b93506162f0818560208601617a2b565b80840191505092915050565b6000616307826178ee565b6163118185617933565b9350616321818560208601617a2b565b61632a81617a5e565b840191505092915050565b6000616340826178ee565b61634a8185617944565b935061635a818560208601617a2b565b61636381617a5e565b840191505092915050565b6000616379826178ee565b6163838185617955565b9350616393818560208601617a2b565b80840191505092915050565b60006163ac601a83617944565b91507f74617267657420697320616c72656164792061206d696e7465720000000000006000830152602082019050919050565b60006163ec602283617944565b91507f456e756d657261626c655365743a20696e646578206f7574206f6620626f756e60008301527f64730000000000000000000000000000000000000000000000000000000000006020830152604082019050919050565b6000616452601783617944565b91507f6e6577206861736820616c7265616479206578697374730000000000000000006000830152602082019050919050565b6000616492603283617944565b91507f4552433732313a207472616e7366657220746f206e6f6e20455243373231526560008301527f63656976657220696d706c656d656e74657200000000000000000000000000006020830152604082019050919050565b60006164f8601883617944565b91507f77726f6e67206d696e74206d6574686f642063616c6c656400000000000000006000830152602082019050919050565b6000616538601c83617944565b91507f6e6f7420616e206f776e6572206f7220636f6c6c61626f7261746f72000000006000830152602082019050919050565b6000616578601c83617944565b91507f4552433732313a20746f6b656e20616c7265616479206d696e746564000000006000830152602082019050919050565b60006165b8601b83617944565b91507f536166654d6174683a206164646974696f6e206f766572666c6f7700000000006000830152602082019050919050565b60006165f8601683617944565b91507f73656e646572206973206e6f742061206d696e746572000000000000000000006000830152602082019050919050565b6000616638601a83617944565b91507f796f7520617265206e6f74206120636f6c6c61626f7261746f720000000000006000830152602082019050919050565b6000616678602483617944565b91507f4552433732313a207472616e7366657220746f20746865207a65726f2061646460008301527f72657373000000000000000000000000000000000000000000000000000000006020830152604082019050919050565b60006166de601483617944565b91507f686173682063616e6e6f7420626520656d7074790000000000000000000000006000830152602082019050919050565b600061671e601983617944565b91507f4552433732313a20617070726f766520746f2063616c6c6572000000000000006000830152602082019050919050565b600061675e602683617944565b91507f416464726573733a20696e73756666696369656e742062616c616e636520666f60008301527f722063616c6c00000000000000000000000000000000000000000000000000006020830152604082019050919050565b60006167c4602c83617944565b91507f4552433732313a206f70657261746f7220717565727920666f72206e6f6e657860008301527f697374656e7420746f6b656e00000000000000000000000000000000000000006020830152604082019050919050565b600061682a601483617944565b91507f6d696e74207472616e73666572206661696c65640000000000000000000000006000830152602082019050919050565b600061686a601b83617944565b91507f7468657920617265206e6f74206120636f6c6c61626f7261746f7200000000006000830152602082019050919050565b60006168aa603883617944565b91507f4552433732313a20617070726f76652063616c6c6572206973206e6f74206f7760008301527f6e6572206e6f7220617070726f76656420666f7220616c6c00000000000000006020830152604082019050919050565b6000616910601283617944565b91507f6d696e746572206e6f7420616c6c6f77656400000000000000000000000000006000830152602082019050919050565b6000616950600e83617944565b91507f6e6f7420796f757220746f6b656e0000000000000000000000000000000000006000830152602082019050919050565b6000616990601383617944565b91507f6861736820616c726561647920657869737473000000000000000000000000006000830152602082019050919050565b60006169d0602a83617944565b91507f4552433732313a2062616c616e636520717565727920666f7220746865207a6560008301527f726f2061646472657373000000000000000000000000000000000000000000006020830152604082019050919050565b6000616a36602283617944565b91507f456e756d657261626c654d61703a20696e646578206f7574206f6620626f756e60008301527f64730000000000000000000000000000000000000000000000000000000000006020830152604082019050919050565b6000616a9c602083617944565b91507f4552433732313a206d696e7420746f20746865207a65726f20616464726573736000830152602082019050919050565b6000616adc601783617944565b91507f746f6b656e20696420646f6573206e6f742065786973740000000000000000006000830152602082019050919050565b6000616b1c602c83617944565b91507f4552433732313a20617070726f76656420717565727920666f72206e6f6e657860008301527f697374656e7420746f6b656e00000000000000000000000000000000000000006020830152604082019050919050565b6000616b82602183617944565b91507f6d757374206265207365742066726f6d2074726561737572792061646472657360008301527f73000000000000000000000000000000000000000000000000000000000000006020830152604082019050919050565b6000616be8601f83617944565b91507f746865792061726520616c7265616479206120636f6c6c61626f7261746f72006000830152602082019050919050565b6000616c28602983617944565b91507f4552433732313a207472616e73666572206f6620746f6b656e2074686174206960008301527f73206e6f74206f776e00000000000000000000000000000000000000000000006020830152604082019050919050565b6000616c8e601483617944565b91507f696e73756666696369656e742062616c616e63650000000000000000000000006000830152602082019050919050565b6000616cce602183617944565b91507f4552433732313a20617070726f76616c20746f2063757272656e74206f776e6560008301527f72000000000000000000000000000000000000000000000000000000000000006020830152604082019050919050565b6000616d34601f83617944565b91507f636f756e74206d7573742062652067726561746572207468616e207a65726f006000830152602082019050919050565b6000616d74602183617944565b91507f6f6e6c79206d696e746572732063616e2073657420746865206261736520757260008301527f69000000000000000000000000000000000000000000000000000000000000006020830152604082019050919050565b6000616dda603183617944565b91507f4552433732313a207472616e736665722063616c6c6572206973206e6f74206f60008301527f776e6572206e6f7220617070726f7665640000000000000000000000000000006020830152604082019050919050565b6000616e40601d83617944565b91507f416464726573733a2063616c6c20746f206e6f6e2d636f6e74726163740000006000830152602082019050919050565b6000616e80601283617944565b91507f6e6f74206120636f6c6c61626f7261746f7200000000000000000000000000006000830152602082019050919050565b6000616ec0600f83617944565b91507f7472616e73666572206661696c656400000000000000000000000000000000006000830152602082019050919050565b6000616f00601383617944565b91507f6e6f7420616c6c6f77656420746f206d696e74000000000000000000000000006000830152602082019050919050565b6000616f40601683617944565b91507f746172676574206973206e6f742061206d696e746572000000000000000000006000830152602082019050919050565b6000616f80601783617944565b91507f6f6c64206861736820646f6573206e6f742065786973740000000000000000006000830152602082019050919050565b600061010083016000830151616fcc6000860182617071565b5060208301518482036020860152616fe482826162fc565b91505060408301518482036040860152616ffe82826162fc565b9150506060830151848203606086015261701882826162fc565b915050608083015161702d6080860182616207565b5060a083015161704060a0860182616207565b5060c083015161705360c0860182617071565b5060e083015161706660e0860182617071565b508091505092915050565b61707a816179dc565b82525050565b617089816179dc565b82525050565b600061709b82846162cb565b915081905092915050565b60006170b2828461636e565b915081905092915050565b60006170c9828561636e565b91506170d5828461636e565b91508190509392505050565b60006020820190506170f66000830184616216565b92915050565b600060608201905061711160008301866161e9565b61711e6020830185616216565b61712b6040830184617080565b949350505050565b600060808201905061714860008301876161f8565b6171556020830186616216565b6171626040830185617080565b81810360608301526171748184616292565b905095945050505050565b60006060820190506171946000830186616216565b6171a16020830185616216565b6171ae6040830184617080565b949350505050565b60006040820190506171cb6000830185616216565b6171d86020830184617080565b9392505050565b600060208201905081810360008301526171f98184616225565b905092915050565b60006020820190506172166000830184616283565b92915050565b600060208201905081810360008301526172368184616335565b905092915050565b600060408201905081810360008301526172588185616335565b9050818103602083015261726c8184616335565b90509392505050565b6000606082019050818103600083015261728f8186616335565b905081810360208301526172a38185616335565b905081810360408301526172b78184616335565b9050949350505050565b600060208201905081810360008301526172da8161639f565b9050919050565b600060208201905081810360008301526172fa816163df565b9050919050565b6000602082019050818103600083015261731a81616445565b9050919050565b6000602082019050818103600083015261733a81616485565b9050919050565b6000602082019050818103600083015261735a816164eb565b9050919050565b6000602082019050818103600083015261737a8161652b565b9050919050565b6000602082019050818103600083015261739a8161656b565b9050919050565b600060208201905081810360008301526173ba816165ab565b9050919050565b600060208201905081810360008301526173da816165eb565b9050919050565b600060208201905081810360008301526173fa8161662b565b9050919050565b6000602082019050818103600083015261741a8161666b565b9050919050565b6000602082019050818103600083015261743a816166d1565b9050919050565b6000602082019050818103600083015261745a81616711565b9050919050565b6000602082019050818103600083015261747a81616751565b9050919050565b6000602082019050818103600083015261749a816167b7565b9050919050565b600060208201905081810360008301526174ba8161681d565b9050919050565b600060208201905081810360008301526174da8161685d565b9050919050565b600060208201905081810360008301526174fa8161689d565b9050919050565b6000602082019050818103600083015261751a81616903565b9050919050565b6000602082019050818103600083015261753a81616943565b9050919050565b6000602082019050818103600083015261755a81616983565b9050919050565b6000602082019050818103600083015261757a816169c3565b9050919050565b6000602082019050818103600083015261759a81616a29565b9050919050565b600060208201905081810360008301526175ba81616a8f565b9050919050565b600060208201905081810360008301526175da81616acf565b9050919050565b600060208201905081810360008301526175fa81616b0f565b9050919050565b6000602082019050818103600083015261761a81616b75565b9050919050565b6000602082019050818103600083015261763a81616bdb565b9050919050565b6000602082019050818103600083015261765a81616c1b565b9050919050565b6000602082019050818103600083015261767a81616c81565b9050919050565b6000602082019050818103600083015261769a81616cc1565b9050919050565b600060208201905081810360008301526176ba81616d27565b9050919050565b600060208201905081810360008301526176da81616d67565b9050919050565b600060208201905081810360008301526176fa81616dcd565b9050919050565b6000602082019050818103600083015261771a81616e33565b9050919050565b6000602082019050818103600083015261773a81616e73565b9050919050565b6000602082019050818103600083015261775a81616eb3565b9050919050565b6000602082019050818103600083015261777a81616ef3565b9050919050565b6000602082019050818103600083015261779a81616f33565b9050919050565b600060208201905081810360008301526177ba81616f73565b9050919050565b600060208201905081810360008301526177db8184616fb3565b905092915050565b60006020820190506177f86000830184617080565b92915050565b60006060820190506178136000830186617080565b81810360208301526178258185616335565b905081810360408301526178398184616335565b9050949350505050565b6000604051905081810181811067ffffffffffffffff8211171561786657600080fd5b8060405250919050565b600067ffffffffffffffff82111561788757600080fd5b601f19601f8301169050602081019050919050565b600067ffffffffffffffff8211156178b357600080fd5b601f19601f8301169050602081019050919050565b6000819050602082019050919050565b600081519050919050565b600081519050919050565b600081519050919050565b6000602082019050919050565b600082825260208201905092915050565b600082825260208201905092915050565b600081905092915050565b600082825260208201905092915050565b600082825260208201905092915050565b600081905092915050565b600061796b826179bc565b9050919050565b600061797d826179bc565b9050919050565b60008115159050919050565b60007fffffffff0000000000000000000000000000000000000000000000000000000082169050919050565b600073ffffffffffffffffffffffffffffffffffffffff82169050919050565b6000819050919050565b60006179f1826179f8565b9050919050565b6000617a0382617a0a565b9050919050565b6000617a15826179bc565b9050919050565b82818337600083830152505050565b60005b83811015617a49578082015181840152602081019050617a2e565b83811115617a58576000848401525b50505050565b6000601f19601f8301169050919050565b617a7881617960565b8114617a8357600080fd5b50565b617a8f81617984565b8114617a9a57600080fd5b50565b617aa681617990565b8114617ab157600080fd5b50565b617abd816179dc565b8114617ac857600080fd5b5056fe4552433732313a207472616e7366657220746f206e6f6e20455243373231526563656976657220696d706c656d656e7465724552433732313a206f776e657220717565727920666f72206e6f6e6578697374656e7420746f6b656ea26469706673582212202613db1bdf38c8046fec7a9ebcce00ac52948cfd924b2cbc0b96e8e88865206664736f6c634300060c0033",
  "immutableReferences": {},
  "source": "// SPDX-License-Identifier: MIT\npragma solidity ^0.6.0;\npragma experimental ABIEncoderV2;\n\nimport \"./ERC721.sol\";\nimport \"./EnumerableSet.sol\";\nimport \"./Math.sol\";\nimport \"./WebaverseERC20.sol\";\n\n/**\n * @title Extension of {ERC721} for Webaverse non-fungible tokens\n * @dev NFTs can be packed with fungible tokens, and can have special features\n * I.E. collaborators and separate creatorship and ownership\n */\ncontract WebaverseERC721 is ERC721 {\n    using EnumerableSet for EnumerableSet.UintSet;\n\n    WebaverseERC20 internal erc20Contract; // ERC20 contract for fungible tokens\n    uint256 internal mintFee; // ERC20 fee to mint ERC721\n    address internal treasuryAddress; // address into which we deposit minting fees\n    bool internal isSingleIssue; // whether the token is single issue (name based) or no (hash based)\n    bool internal isPublicallyMintable; // whether anyone can mint tokens in this copy of the contract\n    mapping(address => bool) internal allowedMinters; // addresses allowed to mint in this copy of the contract\n    uint256 internal nextTokenId = 0; // the next token id to use (increases linearly)\n    mapping(uint256 => string) internal tokenIdToHash; // map of token id to hash it represents\n    mapping(string => uint256) internal hashToStartTokenId; // map of hashes to start of token ids for it\n    mapping(string => uint256) internal hashToTotalSupply; // map of hash to total number of tokens for it\n    mapping(string => Metadata[]) internal hashToMetadata; // map of hash to metadata key-value store\n    mapping(string => address[]) internal hashToCollaborators; // map of hash to addresses that can change metadata\n    mapping(uint256 => uint256) internal tokenIdToBalance; // map of tokens to packed balance\n    mapping(uint256 => address) internal minters; // map of tokens to minters\n    mapping(uint256 => Metadata[]) internal tokenIdToMetadata; // map of token id to metadata key-value store\n    mapping(uint256 => address[]) internal tokenIdToCollaborators; // map of token id to addresses that can change metadata\n\n    struct Metadata {\n        string key;\n        string value;\n    }\n\n    struct Token {\n        uint256 id;\n        string hash;\n        string name;\n        string ext;\n        address minter;\n        address owner;\n        uint256 balance;\n        uint256 totalSupply;\n    }\n\n    event MetadataSet(string hash, string key, string value);\n    event SingleMetadataSet(uint256 tokenId, string key, string value);\n    event HashUpdate(string oldHash, string newHash);\n\n    /**\n     * @dev Create this ERC721 contract\n     * @param name Name of the contract (default is \"NFT\")\n     * @param symbol Symbol for the token (default is ???)\n     * @param baseUri Base URI (example is http://)\n     * @param _erc20Contract ERC20 contract attached to fungible tokens\n     * @param _treasuryAddress Address of the treasury account\n     * @param _isSingleIssue Whether the token is single issue (name based) or no (hash based)\n     * @param _isPublicallyMintable Whether anyone can mint tokens with this contract\n     * I.E. collaborators and separate creatorship and ownership\n     */\n    constructor(\n        string memory name,\n        string memory symbol,\n        string memory baseUri,\n        WebaverseERC20 _erc20Contract,\n        uint256 _mintFee,\n        address _treasuryAddress,\n        bool _isSingleIssue,\n        bool _isPublicallyMintable\n    ) public ERC721(name, symbol) {\n        _setBaseURI(baseUri);\n        erc20Contract = _erc20Contract;\n        mintFee = _mintFee;\n        treasuryAddress = _treasuryAddress;\n        isSingleIssue = _isSingleIssue;\n        isPublicallyMintable = _isPublicallyMintable;\n        allowedMinters[msg.sender] = true;\n    }\n\n    /**\n     * @dev Set the price to mint\n     * @param _mintFee Minting fee, default is 10 FT\n     */\n    function setMintFee(uint256 _mintFee) public {\n        require(\n            msg.sender == treasuryAddress,\n            \"must be set from treasury address\"\n        );\n        mintFee = _mintFee;\n    }\n\n    /**\n     * @dev Set the treasury address\n     * @param _treasuryAddress Account address of the treasurer\n     */\n    function setTreasuryAddress(address _treasuryAddress) public {\n        require(\n            msg.sender == treasuryAddress,\n            \"must be set from treasury address\"\n        );\n        treasuryAddress = _treasuryAddress;\n    }\n\n    /**\n     * @dev Get the balance of fungible tokens packed into this non-fungible token\n     * @param tokenId ID of the non-fungible ERC721 token\n     */\n    function getPackedBalance(uint256 tokenId) public view returns (uint256) {\n        return tokenIdToBalance[tokenId];\n    }\n\n    /**\n     * @dev Pack fungible tokens into this non-fungible token\n     * @param from Address of who is packing the token\n     * @param tokenId ID of the token\n     * @param amount Amount to pack\n     */\n    function pack(\n        address from,\n        uint256 tokenId,\n        uint256 amount\n    ) public {\n        require(_exists(tokenId), \"token id does not exist\");\n\n        tokenIdToBalance[tokenId] = SafeMath.add(\n            tokenIdToBalance[tokenId],\n            amount\n        );\n\n        require(\n            erc20Contract.transferFrom(from, address(this), amount),\n            \"transfer failed\"\n        );\n    }\n\n    /**\n     * @dev Unpack fungible tokens from this non-fungible token\n     * @param to Address of who is packing the token\n     * @param tokenId ID of the token\n     * @param amount Amount to unpack\n     */\n    function unpack(\n        address to,\n        uint256 tokenId,\n        uint256 amount\n    ) public {\n        require(ownerOf(tokenId) == msg.sender, \"not your token\");\n        require(tokenIdToBalance[tokenId] >= amount, \"insufficient balance\");\n\n        tokenIdToBalance[tokenId] = SafeMath.sub(\n            tokenIdToBalance[tokenId],\n            amount\n        );\n\n        require(erc20Contract.transfer(to, amount), \"transfer failed\");\n    }\n\n    /**\n     * @dev Mint one or more non-fungible tokens with this contract\n     * @param to Address of who is receiving the token on mint\n     * Example: 0x08E242bB06D85073e69222aF8273af419d19E4f6\n     * @param hash Hash of the file to mint\n     * Example: 0x1\n     * @param name Name of the token\n     * @param ext File extension of the token\n     * Example: \"png\"\n     * @param description Description of the token (set by user)\n     * @param count Number of tokens to mint (ie: 1)\n     */\n    function mint(\n        address to,\n        string memory hash,\n        string memory name,\n        string memory ext,\n        string memory description,\n        uint256 count\n    ) public {\n        require(!isSingleIssue, \"wrong mint method called\"); // Single issue tokens should use mintSingle\n        require(\n            isPublicallyMintable || isAllowedMinter(msg.sender),\n            \"not allowed to mint\"\n        ); // Only allowed minters can mint\n        require(bytes(hash).length > 0, \"hash cannot be empty\"); // Hash cannot be empty (minting null items)\n        require(count > 0, \"count must be greater than zero\"); // Count must be 1 or more (cannot mint no items)\n        require(hashToTotalSupply[hash] == 0, \"hash already exists\"); // Prevent multiple mints of the same file (all files minted must be unique)\n\n        hashToStartTokenId[hash] = nextTokenId + 1; // Increment token ID by one\n\n        uint256 i = 0;\n        while (i < count) {\n            // Each token gets a new token ID, even if minted in a set\n            nextTokenId = SafeMath.add(nextTokenId, 1);\n            uint256 tokenId = nextTokenId;\n\n            _mint(to, tokenId);\n            minters[tokenId] = to;\n\n            tokenIdToHash[tokenId] = hash;\n            i++;\n        }\n        hashToTotalSupply[hash] = count;\n        hashToMetadata[hash].push(Metadata(\"name\", name));\n        hashToMetadata[hash].push(Metadata(\"ext\", ext));\n        hashToMetadata[hash].push(Metadata(\"description\", description));\n        hashToCollaborators[hash].push(to);\n\n        // Unless the mint free, transfer fungible tokens and attempt to pay the fee\n        if (mintFee != 0) {\n            require(\n                erc20Contract.transferFrom(\n                    msg.sender,\n                    treasuryAddress,\n                    mintFee\n                ),\n                \"mint transfer failed\"\n            );\n        }\n    }\n\n    /**\n     * @dev Mint one non-fungible tokens with this contract\n     * @param to Address of who is receiving the token on mint\n     * Example: 0x08E242bB06D85073e69222aF8273af419d19E4f6\n     * @param hash Hash of the file to mint\n     */\n    function mintSingle(address to, string memory hash) public {\n        require(isSingleIssue, \"wrong mint method called\");\n        require(\n            isPublicallyMintable || isAllowedMinter(msg.sender),\n            \"not allowed to mint\"\n        );\n        require(hashToTotalSupply[hash] == 0, \"hash already exists\");\n\n        nextTokenId = SafeMath.add(nextTokenId, 1);\n        uint256 tokenId = nextTokenId;\n        _mint(to, tokenId);\n        minters[tokenId] = to;\n\n        tokenIdToHash[tokenId] = hash;\n        hashToTotalSupply[hash] = 1;\n        hashToCollaborators[hash].push(to);\n\n        if (mintFee != 0) {\n            require(\n                erc20Contract.transferFrom(\n                    msg.sender,\n                    treasuryAddress,\n                    mintFee\n                ),\n                \"mint transfer failed\"\n            );\n        }\n    }\n\n    /**\n     * @dev Get the address for for the minter of the token\n     * @param tokenId ID of the token we are querying\n     * @return Address of the minter\n     */\n    function getMinter(uint256 tokenId) public view returns (address) {\n        return minters[tokenId];\n    }\n\n    /**\n     * @dev Check if two strings are equal\n     * @param a First string to compare\n     * @param b Second string to compare\n     * @return Returns true if strings are equal\n     */\n    function streq(string memory a, string memory b)\n        internal\n        pure\n        returns (bool)\n    {\n        return (keccak256(abi.encodePacked((a))) ==\n            keccak256(abi.encodePacked((b))));\n    }\n\n    /**\n     * @dev Mint a token with a specific ID\n     * @param to Who should receive the minted token\n     * @param tokenId ID of the token to mint (ie: 250)\n     */\n    function mintTokenId(address to, uint256 tokenId) public {\n        require(isAllowedMinter(msg.sender), \"minter not allowed\");\n\n        _mint(to, tokenId);\n    }\n\n    /**\n     * @dev Set the base URI for this contract\n     * @param baseURI_ Base URI to send to\n     */\n    function setBaseURI(string memory baseURI_) public {\n        require(\n            allowedMinters[msg.sender],\n            \"only minters can set the base uri\"\n        );\n        _setBaseURI(baseURI_);\n    }\n\n    /**\n     * @dev Get the URI of a token\n     * @param tokenId Token to get the URI from (ie: 250)\n     * @return URI of the token to retrieve\n     */\n    function tokenURI(uint256 tokenId)\n        public\n        view\n        override\n        returns (string memory)\n    {\n        return string(abi.encodePacked(baseURI(), uint2str(tokenId)));\n    }\n\n    /**\n     * @dev Check if the token exists\n     * @param tokenId Token to test\n     * @return Returns true if the token exists\n     */\n    function tokenExists(uint256 tokenId) public view returns (bool) {\n        return _exists(tokenId);\n    }\n\n    /**\n     * @dev Check if an account is allowed to mint tokens\n     * @param a Address to check\n     * @return Returns true if the acount can mint\n     */\n    function isAllowedMinter(address a) public view returns (bool) {\n        return allowedMinters[a];\n    }\n\n    /**\n     * @dev Add a minter to the approved list to mint tokens\n     * @param a Address to whitelist\n     */\n    function addAllowedMinter(address a) public {\n        require(isAllowedMinter(msg.sender));\n        require(!isAllowedMinter(a), \"target is already a minter\");\n        allowedMinters[a] = true;\n    }\n\n    /**\n     * @dev Remove a minter from the approved list to mint tokens\n     * @param a Address to remove from whitelist\n     */\n    function removeAllowedMinter(address a) public {\n        require(isAllowedMinter(msg.sender), \"sender is not a minter\");\n        require(isAllowedMinter(a), \"target is not a minter\");\n        allowedMinters[a] = false;\n    }\n\n    /**\n     * @dev Check is an address has access as a collaborator (for development of a token between multiple users)\n     * @param hash Hash of the token to test\n     * @param a Address to query\n     * @return Returns true if the address is a collaborator on this token\n     */\n    function isCollaborator(string memory hash, address a)\n        public\n        view\n        returns (bool)\n    {\n        for (uint256 i = 0; i < hashToCollaborators[hash].length; i++) {\n            if (hashToCollaborators[hash][i] == a) {\n                return true;\n            }\n        }\n        return false;\n    }\n\n    /**\n     * @dev Add collaborator to a token\n     * @param hash Hash of the token to add the collaborator to\n     * @param a Address to whitelist\n     */\n    function addCollaborator(string memory hash, address a) public {\n        require(isCollaborator(hash, msg.sender), \"you are not a collaborator\");\n        require(!isCollaborator(hash, a), \"they are already a collaborator\");\n        hashToCollaborators[hash].push(a);\n    }\n\n    /**\n     * @dev Remove collaborator from a token\n     * @param hash Hash of the token to remove the collaborator from\n     * @param a Address to remove from whitelist\n     */\n    function removeCollaborator(string memory hash, address a) public {\n        require(isCollaborator(hash, msg.sender), \"you are not a collaborator\");\n        require(\n            isCollaborator(hash, msg.sender),\n            \"they are not a collaborator\"\n        );\n\n        uint256 newSize = 0;\n        for (uint256 i = 0; i < hashToCollaborators[hash].length; i++) {\n            if (hashToCollaborators[hash][i] != a) {\n                newSize++;\n            }\n        }\n\n        address[] memory newCollaborators = new address[](newSize);\n        uint256 index = 0;\n        for (uint256 i = 0; i < hashToCollaborators[hash].length; i++) {\n            address oldCollaborator = hashToCollaborators[hash][i];\n            if (oldCollaborator != a) {\n                newCollaborators[index++] = oldCollaborator;\n            }\n        }\n        hashToCollaborators[hash] = newCollaborators;\n    }\n\n    /**\n     * @dev Check if this address is a collaborator on a single issue token (like land)\n     * @param tokenId ID of the token\n     * @param a Address to check\n     * @return Returns true if the address is a collaborator on the token\n     */\n    function isSingleCollaborator(uint256 tokenId, address a)\n        public\n        view\n        returns (bool)\n    {\n        for (uint256 i = 0; i < tokenIdToCollaborators[tokenId].length; i++) {\n            if (tokenIdToCollaborators[tokenId][i] == a) {\n                return true;\n            }\n        }\n        return false;\n    }\n\n    /**\n     * @dev Add a collaborator to a single token (like land)\n     * @param tokenId ID of the token\n     * @param a Address to whitelist\n     */\n    function addSingleCollaborator(uint256 tokenId, address a) public {\n        require(\n            ownerOf(tokenId) == a || isSingleCollaborator(tokenId, msg.sender),\n            \"you are not a collaborator\"\n        );\n        require(\n            !isSingleCollaborator(tokenId, a),\n            \"they are already a collaborator\"\n        );\n        tokenIdToCollaborators[tokenId].push(a);\n    }\n\n    /**\n     * @dev Remove a collaborator from a single token (like land)\n     * @param tokenId ID of the token\n     * @param a Address to remove from whitelist\n     */\n    function removeSingleCollaborator(uint256 tokenId, address a) public {\n        require(\n            ownerOf(tokenId) == a || isSingleCollaborator(tokenId, msg.sender),\n            \"you are not a collaborator\"\n        );\n        require(\n            isSingleCollaborator(tokenId, msg.sender),\n            \"they are not a collaborator\"\n        );\n\n        uint256 newSize = 0;\n        for (uint256 i = 0; i < tokenIdToCollaborators[tokenId].length; i++) {\n            if (tokenIdToCollaborators[tokenId][i] != a) {\n                newSize++;\n            }\n        }\n\n        address[] memory newTokenIdCollaborators = new address[](newSize);\n        uint256 index = 0;\n        for (uint256 i = 0; i < tokenIdToCollaborators[tokenId].length; i++) {\n            address oldTokenIdCollaborator = tokenIdToCollaborators[tokenId][i];\n            if (oldTokenIdCollaborator != a) {\n                newTokenIdCollaborators[index++] = oldTokenIdCollaborator;\n            }\n        }\n        tokenIdToCollaborators[tokenId] = newTokenIdCollaborators;\n    }\n\n    /**\n     * @dev Seal the token forever and remove collaborators so that it can't be altered\n     * @param hash Hash of the collaborative token\n     */\n    function seal(string memory hash) public {\n        require(isCollaborator(hash, msg.sender), \"not a collaborator\");\n        delete hashToCollaborators[hash];\n    }\n\n    /**\n     * @dev Get the hash of a token by ID\n     * @param tokenId Token to get the hash from\n     * @return Returns a string containing the token hash\n     */\n    function getHash(uint256 tokenId) public view returns (string memory) {\n        return tokenIdToHash[tokenId];\n    }\n\n    /**\n     * @dev Get the number of tokens associated with a specific hash held by the token owner\n     * For example, if collaborators are working on a token series, this would return all of them for one collaborator\n     * @param owner Address of the owner of the token\n     * @param hash Hash to query\n     * @return Return the balance as a number of tokens\n     * Example args: 0x08E242bB06D85073e69222aF8273af419d19E4f6, 0x1\n     */\n    function balanceOfHash(address owner, string memory hash)\n        public\n        view\n        returns (uint256)\n    {\n        uint256 count = 0;\n        uint256 balance = balanceOf(owner);\n        for (uint256 i = 0; i < balance; i++) {\n            uint256 tokenId = tokenOfOwnerByIndex(owner, i);\n            string memory h = tokenIdToHash[tokenId];\n            if (streq(h, hash)) {\n                count++;\n            }\n        }\n        return count;\n    }\n\n    /**\n     * @dev Get the total supply of a hash\n     * @param hash Hash to query\n     * @return Total supply of the token\n     */\n    function totalSupplyOfHash(string memory hash)\n        public\n        view\n        returns (uint256)\n    {\n        return hashToTotalSupply[hash];\n    }\n\n    /**\n     * @dev List the tokens IDs owned by an account\n     * @param owner Address to query\n     * @return Array of token IDs\n     */\n    function getTokenIdsOf(address owner)\n        public\n        view\n        returns (uint256[] memory)\n    {\n        uint256 count = balanceOf(owner);\n        uint256[] memory ids = new uint256[](count);\n        for (uint256 i = 0; i < count; i++) {\n            ids[i] = tokenOfOwnerByIndex(owner, i);\n        }\n        return ids;\n    }\n\n    /**\n     * @dev Get the complete information for a token from it's ID\n     * @param tokenId Token ID to query\n     * @return Token struct containing token data\n     */\n    function tokenByIdFull(uint256 tokenId) public view returns (Token memory) {\n        string memory hash;\n        string memory name;\n        string memory ext;\n        if (isSingleIssue) {\n            hash = getSingleMetadata(tokenId, \"hash\");\n            name = tokenIdToHash[tokenId];\n            ext = getSingleMetadata(tokenId, \"ext\");\n        } else {\n            hash = tokenIdToHash[tokenId];\n            name = getMetadata(hash, \"name\");\n            ext = getMetadata(hash, \"ext\");\n        }\n\n        address minter = minters[tokenId];\n        address owner = _exists(tokenId) ? ownerOf(tokenId) : address(0);\n        uint256 totalSupply = hashToTotalSupply[hash];\n        return Token(tokenId, hash, name, ext, minter, owner, 0, totalSupply);\n    }\n\n    /**\n     * @dev Get the full Token struct from an owner address at a specific index\n     * @param owner Owner to query\n     * @param index Index in owner's balance to query\n     * @return Token struct containing token data\n     */\n    function tokenOfOwnerByIndexFull(address owner, uint256 index)\n        public\n        view\n        returns (Token memory)\n    {\n        uint256 tokenId = tokenOfOwnerByIndex(owner, index);\n        string memory hash;\n        string memory name;\n        string memory ext;\n        if (isSingleIssue) {\n            hash = getSingleMetadata(tokenId, \"hash\");\n            name = tokenIdToHash[tokenId];\n            ext = getSingleMetadata(tokenId, \"ext\");\n        } else {\n            hash = tokenIdToHash[tokenId];\n            name = getMetadata(hash, \"name\");\n            ext = getMetadata(hash, \"ext\");\n        }\n        address minter = minters[tokenId];\n        uint256 balance = balanceOfHash(owner, hash);\n        uint256 totalSupply = hashToTotalSupply[hash];\n        return\n            Token(\n                tokenId,\n                hash,\n                name,\n                ext,\n                minter,\n                owner,\n                balance,\n                totalSupply\n            );\n    }\n\n    /**\n     * @dev Get metadata for the token. Metadata is a key-value store that can be set by owners and collaborators\n     * @param hash Token hash to query for metadata\n     * @param key Key to query for a value\n     * @return Value corresponding to metadata key\n     */\n    function getMetadata(string memory hash, string memory key)\n        public\n        view\n        returns (string memory)\n    {\n        for (uint256 i = 0; i < hashToMetadata[hash].length; i++) {\n            if (streq(hashToMetadata[hash][i].key, key)) {\n                return hashToMetadata[hash][i].value;\n            }\n        }\n        return \"\";\n    }\n\n    /**\n     * @dev Set metadata for the token. Metadata is a key-value store that can be set by owners and collaborators\n     * @param hash Token hash to add metadata to\n     * @param key Key to store value at\n     * @param value Value to store\n     */\n    function setMetadata(\n        string memory hash,\n        string memory key,\n        string memory value\n    ) public {\n        require(isCollaborator(hash, msg.sender), \"not a collaborator\");\n\n        bool keyFound = false;\n        for (uint256 i = 0; i < hashToMetadata[hash].length; i++) {\n            if (streq(hashToMetadata[hash][i].key, key)) {\n                hashToMetadata[hash][i].value = value;\n                keyFound = true;\n                break;\n            }\n        }\n        if (!keyFound) {\n            hashToMetadata[hash].push(Metadata(key, value));\n        }\n\n        emit MetadataSet(hash, key, value);\n    }\n\n    /**\n     * @dev Get metadata for a single token (non-hashed)\n     * @param tokenId Token hash to add metadata to\n     * @param key Key to retrieve value for\n     * @return Returns the value stored for the key\n     */\n    function getSingleMetadata(uint256 tokenId, string memory key)\n        public\n        view\n        returns (string memory)\n    {\n        for (uint256 i = 0; i < tokenIdToMetadata[tokenId].length; i++) {\n            if (streq(tokenIdToMetadata[tokenId][i].key, key)) {\n                return tokenIdToMetadata[tokenId][i].value;\n            }\n        }\n        return \"\";\n    }\n\n    /**\n     * @dev Set metadata for a single token (non-hashed)\n     * @param tokenId Token hash to add metadata to\n     * @param key Key to store value at\n     * @param value Value to store\n     */\n    function setSingleMetadata(\n        uint256 tokenId,\n        string memory key,\n        string memory value\n    ) public {\n        require(\n            ownerOf(tokenId) == msg.sender ||\n                isSingleCollaborator(tokenId, msg.sender),\n            \"not an owner or collaborator\"\n        );\n\n        bool keyFound = false;\n        for (uint256 i = 0; i < tokenIdToMetadata[tokenId].length; i++) {\n            if (streq(tokenIdToMetadata[tokenId][i].key, key)) {\n                tokenIdToMetadata[tokenId][i].value = value;\n                keyFound = true;\n                break;\n            }\n        }\n        if (!keyFound) {\n            tokenIdToMetadata[tokenId].push(Metadata(key, value));\n        }\n\n        emit SingleMetadataSet(tokenId, key, value);\n    }\n\n    /**\n     * @dev Update token hash with a new hash\n     * @param oldHash Old hash to query\n     * @param newHash New hash to set\n     */\n    function updateHash(string memory oldHash, string memory newHash) public {\n        require(hashToTotalSupply[oldHash] > 0, \"old hash does not exist\");\n        require(hashToTotalSupply[newHash] == 0, \"new hash already exists\");\n        require(isCollaborator(oldHash, msg.sender), \"not a collaborator\");\n\n        uint256 startTokenId = hashToStartTokenId[oldHash];\n        uint256 totalSupply = hashToTotalSupply[oldHash];\n        for (uint256 i = 0; i < totalSupply; i++) {\n            tokenIdToHash[startTokenId + i] = newHash;\n        }\n\n        hashToStartTokenId[newHash] = hashToStartTokenId[oldHash];\n        hashToTotalSupply[newHash] = hashToTotalSupply[oldHash];\n        hashToMetadata[newHash] = hashToMetadata[oldHash];\n        hashToCollaborators[newHash] = hashToCollaborators[oldHash];\n\n        delete hashToStartTokenId[oldHash];\n        delete hashToTotalSupply[oldHash];\n        delete hashToMetadata[oldHash];\n        delete hashToCollaborators[oldHash];\n\n        emit HashUpdate(oldHash, newHash);\n    }\n\n    /**@dev Helper function to convert a uint to a string\n     * @param _i uint to convert\n     * @return _uintAsString string converted from uint\n     */\n    function uint2str(uint256 _i)\n        internal\n        pure\n        returns (string memory _uintAsString)\n    {\n        if (_i == 0) {\n            return \"0\";\n        }\n        uint256 j = _i;\n        uint256 len;\n        while (j != 0) {\n            len++;\n            j /= 10;\n        }\n        bytes memory bstr = new bytes(len);\n        uint256 k = len - 1;\n        while (_i != 0) {\n            bstr[k--] = bytes1(uint8(48 + (_i % 10)));\n            _i /= 10;\n        }\n        return string(bstr);\n    }\n}\n",
  "sourcePath": "/home/beast/Documents/GitHub/contracts/contracts/WebaverseERC721.sol",
  "compiler": {
    "name": "solc",
    "version": "0.6.12+commit.27d51765.Emscripten.clang"
  },
  "schemaVersion": "3.3.4",
  "updatedAt": "2021-03-23T01:11:42.597Z",
  "devdoc": {
    "details": "NFTs can be packed with fungible tokens, and can have special features I.E. collaborators and separate creatorship and ownership",
    "kind": "dev",
    "methods": {
      "addAllowedMinter(address)": {
        "details": "Add a minter to the approved list to mint tokens",
        "params": {
          "a": "Address to whitelist"
        }
      },
      "addCollaborator(string,address)": {
        "details": "Add collaborator to a token",
        "params": {
          "a": "Address to whitelist",
          "hash": "Hash of the token to add the collaborator to"
        }
      },
      "addSingleCollaborator(uint256,address)": {
        "details": "Add a collaborator to a single token (like land)",
        "params": {
          "a": "Address to whitelist",
          "tokenId": "ID of the token"
        }
      },
      "approve(address,uint256)": {
        "details": "See {IERC721-approve}."
      },
      "balanceOf(address)": {
        "details": "See {IERC721-balanceOf}."
      },
      "balanceOfHash(address,string)": {
        "details": "Get the number of tokens associated with a specific hash held by the token owner For example, if collaborators are working on a token series, this would return all of them for one collaborator",
        "params": {
          "hash": "Hash to query",
          "owner": "Address of the owner of the token"
        },
        "returns": {
          "_0": "Return the balance as a number of tokens Example args: 0x08E242bB06D85073e69222aF8273af419d19E4f6, 0x1"
        }
      },
      "baseURI()": {
        "details": "Returns the base URI set via {_setBaseURI}. This will be automatically added as a prefix in {tokenURI} to each token's URI, or to the token ID if no specific URI is set for that token ID."
      },
      "constructor": {
        "details": "Create this ERC721 contract",
        "params": {
          "_erc20Contract": "ERC20 contract attached to fungible tokens",
          "_isPublicallyMintable": "Whether anyone can mint tokens with this contract I.E. collaborators and separate creatorship and ownership",
          "_isSingleIssue": "Whether the token is single issue (name based) or no (hash based)",
          "_treasuryAddress": "Address of the treasury account",
          "baseUri": "Base URI (example is http://)",
          "name": "Name of the contract (default is \"NFT\")",
          "symbol": "Symbol for the token (default is ???)"
        }
      },
      "getApproved(uint256)": {
        "details": "See {IERC721-getApproved}."
      },
      "getHash(uint256)": {
        "details": "Get the hash of a token by ID",
        "params": {
          "tokenId": "Token to get the hash from"
        },
        "returns": {
          "_0": "Returns a string containing the token hash"
        }
      },
      "getMetadata(string,string)": {
        "details": "Get metadata for the token. Metadata is a key-value store that can be set by owners and collaborators",
        "params": {
          "hash": "Token hash to query for metadata",
          "key": "Key to query for a value"
        },
        "returns": {
          "_0": "Value corresponding to metadata key"
        }
      },
      "getMinter(uint256)": {
        "details": "Get the address for for the minter of the token",
        "params": {
          "tokenId": "ID of the token we are querying"
        },
        "returns": {
          "_0": "Address of the minter"
        }
      },
      "getPackedBalance(uint256)": {
        "details": "Get the balance of fungible tokens packed into this non-fungible token",
        "params": {
          "tokenId": "ID of the non-fungible ERC721 token"
        }
      },
      "getSingleMetadata(uint256,string)": {
        "details": "Get metadata for a single token (non-hashed)",
        "params": {
          "key": "Key to retrieve value for",
          "tokenId": "Token hash to add metadata to"
        },
        "returns": {
          "_0": "Returns the value stored for the key"
        }
      },
      "getTokenIdsOf(address)": {
        "details": "List the tokens IDs owned by an account",
        "params": {
          "owner": "Address to query"
        },
        "returns": {
          "_0": "Array of token IDs"
        }
      },
      "isAllowedMinter(address)": {
        "details": "Check if an account is allowed to mint tokens",
        "params": {
          "a": "Address to check"
        },
        "returns": {
          "_0": "Returns true if the acount can mint"
        }
      },
      "isApprovedForAll(address,address)": {
        "details": "See {IERC721-isApprovedForAll}."
      },
      "isCollaborator(string,address)": {
        "details": "Check is an address has access as a collaborator (for development of a token between multiple users)",
        "params": {
          "a": "Address to query",
          "hash": "Hash of the token to test"
        },
        "returns": {
          "_0": "Returns true if the address is a collaborator on this token"
        }
      },
      "isSingleCollaborator(uint256,address)": {
        "details": "Check if this address is a collaborator on a single issue token (like land)",
        "params": {
          "a": "Address to check",
          "tokenId": "ID of the token"
        },
        "returns": {
          "_0": "Returns true if the address is a collaborator on the token"
        }
      },
      "mint(address,string,string,string,string,uint256)": {
        "details": "Mint one or more non-fungible tokens with this contract",
        "params": {
          "count": "Number of tokens to mint (ie: 1)",
          "description": "Description of the token (set by user)",
          "ext": "File extension of the token Example: \"png\"",
          "hash": "Hash of the file to mint Example: 0x1",
          "name": "Name of the token",
          "to": "Address of who is receiving the token on mint Example: 0x08E242bB06D85073e69222aF8273af419d19E4f6"
        }
      },
      "mintSingle(address,string)": {
        "details": "Mint one non-fungible tokens with this contract",
        "params": {
          "hash": "Hash of the file to mint",
          "to": "Address of who is receiving the token on mint Example: 0x08E242bB06D85073e69222aF8273af419d19E4f6"
        }
      },
      "mintTokenId(address,uint256)": {
        "details": "Mint a token with a specific ID",
        "params": {
          "to": "Who should receive the minted token",
          "tokenId": "ID of the token to mint (ie: 250)"
        }
      },
      "name()": {
        "details": "See {IERC721Metadata-name}."
      },
      "ownerOf(uint256)": {
        "details": "See {IERC721-ownerOf}."
      },
      "pack(address,uint256,uint256)": {
        "details": "Pack fungible tokens into this non-fungible token",
        "params": {
          "amount": "Amount to pack",
          "from": "Address of who is packing the token",
          "tokenId": "ID of the token"
        }
      },
      "removeAllowedMinter(address)": {
        "details": "Remove a minter from the approved list to mint tokens",
        "params": {
          "a": "Address to remove from whitelist"
        }
      },
      "removeCollaborator(string,address)": {
        "details": "Remove collaborator from a token",
        "params": {
          "a": "Address to remove from whitelist",
          "hash": "Hash of the token to remove the collaborator from"
        }
      },
      "removeSingleCollaborator(uint256,address)": {
        "details": "Remove a collaborator from a single token (like land)",
        "params": {
          "a": "Address to remove from whitelist",
          "tokenId": "ID of the token"
        }
      },
      "safeTransferFrom(address,address,uint256)": {
        "details": "See {IERC721-safeTransferFrom}."
      },
      "safeTransferFrom(address,address,uint256,bytes)": {
        "details": "See {IERC721-safeTransferFrom}."
      },
      "seal(string)": {
        "details": "Seal the token forever and remove collaborators so that it can't be altered",
        "params": {
          "hash": "Hash of the collaborative token"
        }
      },
      "setApprovalForAll(address,bool)": {
        "details": "See {IERC721-setApprovalForAll}."
      },
      "setBaseURI(string)": {
        "details": "Set the base URI for this contract",
        "params": {
          "baseURI_": "Base URI to send to"
        }
      },
      "setMetadata(string,string,string)": {
        "details": "Set metadata for the token. Metadata is a key-value store that can be set by owners and collaborators",
        "params": {
          "hash": "Token hash to add metadata to",
          "key": "Key to store value at",
          "value": "Value to store"
        }
      },
      "setMintFee(uint256)": {
        "details": "Set the price to mint",
        "params": {
          "_mintFee": "Minting fee, default is 10 FT"
        }
      },
      "setSingleMetadata(uint256,string,string)": {
        "details": "Set metadata for a single token (non-hashed)",
        "params": {
          "key": "Key to store value at",
          "tokenId": "Token hash to add metadata to",
          "value": "Value to store"
        }
      },
      "setTreasuryAddress(address)": {
        "details": "Set the treasury address",
        "params": {
          "_treasuryAddress": "Account address of the treasurer"
        }
      },
      "supportsInterface(bytes4)": {
        "details": "See {IERC165-supportsInterface}. Time complexity O(1), guaranteed to always use less than 30 000 gas."
      },
      "symbol()": {
        "details": "See {IERC721Metadata-symbol}."
      },
      "tokenByIdFull(uint256)": {
        "details": "Get the complete information for a token from it's ID",
        "params": {
          "tokenId": "Token ID to query"
        },
        "returns": {
          "_0": "Token struct containing token data"
        }
      },
      "tokenByIndex(uint256)": {
        "details": "See {IERC721Enumerable-tokenByIndex}."
      },
      "tokenExists(uint256)": {
        "details": "Check if the token exists",
        "params": {
          "tokenId": "Token to test"
        },
        "returns": {
          "_0": "Returns true if the token exists"
        }
      },
      "tokenOfOwnerByIndex(address,uint256)": {
        "details": "See {IERC721Enumerable-tokenOfOwnerByIndex}."
      },
      "tokenOfOwnerByIndexFull(address,uint256)": {
        "details": "Get the full Token struct from an owner address at a specific index",
        "params": {
          "index": "Index in owner's balance to query",
          "owner": "Owner to query"
        },
        "returns": {
          "_0": "Token struct containing token data"
        }
      },
      "tokenURI(uint256)": {
        "details": "Get the URI of a token",
        "params": {
          "tokenId": "Token to get the URI from (ie: 250)"
        },
        "returns": {
          "_0": "URI of the token to retrieve"
        }
      },
      "totalSupply()": {
        "details": "See {IERC721Enumerable-totalSupply}."
      },
      "totalSupplyOfHash(string)": {
        "details": "Get the total supply of a hash",
        "params": {
          "hash": "Hash to query"
        },
        "returns": {
          "_0": "Total supply of the token"
        }
      },
      "transferFrom(address,address,uint256)": {
        "details": "See {IERC721-transferFrom}."
      },
      "unpack(address,uint256,uint256)": {
        "details": "Unpack fungible tokens from this non-fungible token",
        "params": {
          "amount": "Amount to unpack",
          "to": "Address of who is packing the token",
          "tokenId": "ID of the token"
        }
      },
      "updateHash(string,string)": {
        "details": "Update token hash with a new hash",
        "params": {
          "newHash": "New hash to set",
          "oldHash": "Old hash to query"
        }
      }
    },
    "title": "Extension of {ERC721} for Webaverse non-fungible tokens",
    "version": 1
  },
  "userdoc": {
    "kind": "user",
    "methods": {},
    "version": 1
  }
}