{
  "contractName": "WebaverseERC721Proxy",
  "abi": [
    {
      "inputs": [
        {
          "internalType": "address",
          "name": "parentAddress",
          "type": "address"
        },
        {
          "internalType": "address",
          "name": "signerAddress",
          "type": "address"
        },
        {
          "internalType": "uint256",
          "name": "_chainId",
          "type": "uint256"
        }
      ],
      "stateMutability": "nonpayable",
      "type": "constructor"
    },
    {
      "anonymous": false,
      "inputs": [
        {
          "indexed": true,
          "internalType": "address",
          "name": "to",
          "type": "address"
        },
        {
          "indexed": true,
          "internalType": "uint256",
          "name": "tokenId",
          "type": "uint256"
        }
      ],
      "name": "Deposited",
      "type": "event"
    },
    {
      "anonymous": false,
      "inputs": [
        {
          "indexed": true,
          "internalType": "address",
          "name": "from",
          "type": "address"
        },
        {
          "indexed": true,
          "internalType": "uint256",
          "name": "tokenId",
          "type": "uint256"
        },
        {
          "indexed": true,
          "internalType": "uint256",
          "name": "timestamp",
          "type": "uint256"
        }
      ],
      "name": "Withdrew",
      "type": "event"
    },
    {
      "inputs": [
        {
          "internalType": "address",
          "name": "newSigner",
          "type": "address"
        }
      ],
      "name": "setSigner",
      "outputs": [],
      "stateMutability": "nonpayable",
      "type": "function"
    },
    {
      "inputs": [
        {
          "internalType": "address",
          "name": "newParent",
          "type": "address"
        }
      ],
      "name": "setERC721Parent",
      "outputs": [],
      "stateMutability": "nonpayable",
      "type": "function"
    },
    {
      "inputs": [
        {
          "internalType": "address",
          "name": "to",
          "type": "address"
        },
        {
          "internalType": "uint256",
          "name": "tokenId",
          "type": "uint256"
        },
        {
          "internalType": "uint256",
          "name": "timestamp",
          "type": "uint256"
        },
        {
          "internalType": "bytes32",
          "name": "r",
          "type": "bytes32"
        },
        {
          "internalType": "bytes32",
          "name": "s",
          "type": "bytes32"
        },
        {
          "internalType": "uint8",
          "name": "v",
          "type": "uint8"
        }
      ],
      "name": "withdraw",
      "outputs": [],
      "stateMutability": "nonpayable",
      "type": "function"
    },
    {
      "inputs": [
        {
          "internalType": "address",
          "name": "to",
          "type": "address"
        },
        {
          "internalType": "uint256",
          "name": "tokenId",
          "type": "uint256"
        }
      ],
      "name": "deposit",
      "outputs": [],
      "stateMutability": "nonpayable",
      "type": "function"
    },
    {
      "inputs": [
        {
          "internalType": "address",
          "name": "to",
          "type": "address"
        },
        {
          "internalType": "uint256",
          "name": "tokenId",
          "type": "uint256"
        },
        {
          "internalType": "uint256",
          "name": "timestamp",
          "type": "uint256"
        }
      ],
      "name": "withdrawNonceUsed",
      "outputs": [
        {
          "internalType": "bool",
          "name": "",
          "type": "bool"
        }
      ],
      "stateMutability": "view",
      "type": "function"
    }
  ],
  "bytecode": "0x60806040526040518060400160405280601c81526020017f19457468657265756d205369676e6564204d6573736167653a0a333200000000815250600590805190602001906200005192919062000116565b503480156200005f57600080fd5b506040516200117d3803806200117d8339818101604052810190620000859190620001ea565b816000806101000a81548173ffffffffffffffffffffffffffffffffffffffff021916908373ffffffffffffffffffffffffffffffffffffffff1602179055508060018190555082600260006101000a81548173ffffffffffffffffffffffffffffffffffffffff021916908373ffffffffffffffffffffffffffffffffffffffff160217905550505050620002b2565b828054600181600116156101000203166002900490600052602060002090601f016020900481019282601f106200015957805160ff19168380011785556200018a565b828001600101855582156200018a579182015b82811115620001895782518255916020019190600101906200016c565b5b5090506200019991906200019d565b5090565b5b80821115620001b85760008160009055506001016200019e565b5090565b600081519050620001cd816200027e565b92915050565b600081519050620001e48162000298565b92915050565b6000806000606084860312156200020057600080fd5b60006200021086828701620001bc565b93505060206200022386828701620001bc565b92505060406200023686828701620001d3565b9150509250925092565b60006200024d8262000254565b9050919050565b600073ffffffffffffffffffffffffffffffffffffffff82169050919050565b6000819050919050565b620002898162000240565b81146200029557600080fd5b50565b620002a38162000274565b8114620002af57600080fd5b50565b610ebb80620002c26000396000f3fe608060405234801561001057600080fd5b50600436106100575760003560e01c806311eb33ec1461005c5780634757ef131461007857806347e7ef24146100a85780636c19e783146100c4578063cbb40dae146100e0575b600080fd5b6100766004803603810190610071919061081d565b6100fc565b005b610092600480360381019061008d9190610882565b6101ce565b60405161009f9190610c74565b60405180910390f35b6100c260048036038101906100bd9190610846565b610256565b005b6100de60048036038101906100d9919061081d565b610367565b005b6100fa60048036038101906100f591906108d1565b610438565b005b60008054906101000a900473ffffffffffffffffffffffffffffffffffffffff1673ffffffffffffffffffffffffffffffffffffffff163373ffffffffffffffffffffffffffffffffffffffff161461018a576040517f08c379a000000000000000000000000000000000000000000000000000000000815260040161018190610d14565b60405180910390fd5b80600260006101000a81548173ffffffffffffffffffffffffffffffffffffffff021916908373ffffffffffffffffffffffffffffffffffffffff16021790555050565b60008060058585856001546040516020016101ec9493929190610b9e565b60405160208183030381529060405280519060200120604051602001610213929190610bec565b6040516020818303038152906040528051906020012090506004600082815260200190815260200160002060009054906101000a900460ff169150509392505050565b60016003600083815260200190815260200160002060006101000a81548160ff021916908315150217905550808273ffffffffffffffffffffffffffffffffffffffff167f2da466a7b24304f47e87fa2e1e5a81b9831ce54fec19055ce277ca2f39ba42c460405160405180910390a360003390506000309050600260009054906101000a900473ffffffffffffffffffffffffffffffffffffffff1673ffffffffffffffffffffffffffffffffffffffff166323b872dd8383866040518463ffffffff1660e01b815260040161032f93929190610c14565b600060405180830381600087803b15801561034957600080fd5b505af115801561035d573d6000803e3d6000fd5b5050505050505050565b60008054906101000a900473ffffffffffffffffffffffffffffffffffffffff1673ffffffffffffffffffffffffffffffffffffffff163373ffffffffffffffffffffffffffffffffffffffff16146103f5576040517f08c379a00000000000000000000000000000000000000000000000000000000081526004016103ec90610d34565b60405180910390fd5b806000806101000a81548173ffffffffffffffffffffffffffffffffffffffff021916908373ffffffffffffffffffffffffffffffffffffffff16021790555050565b600060058787876001546040516020016104559493929190610b9e565b6040516020818303038152906040528051906020012060405160200161047c929190610bec565b604051602081830303815290604052805190602001209050600030905060008054906101000a900473ffffffffffffffffffffffffffffffffffffffff1673ffffffffffffffffffffffffffffffffffffffff16600183858888604051600081526020016040526040516104f39493929190610c8f565b6020604051602081039080840390855afa158015610515573d6000803e3d6000fd5b5050506020604051035173ffffffffffffffffffffffffffffffffffffffff1614610575576040517f08c379a000000000000000000000000000000000000000000000000000000000815260040161056c90610cd4565b60405180910390fd5b6004600083815260200190815260200160002060009054906101000a900460ff16156105d6576040517f08c379a00000000000000000000000000000000000000000000000000000000081526004016105cd90610cf4565b60405180910390fd5b60016004600084815260200190815260200160002060006101000a81548160ff02191690831515021790555060006003600089815260200190815260200160002060009054906101000a900460ff1690506000600360008a815260200190815260200160002060006101000a81548160ff02191690831515021790555086888a73ffffffffffffffffffffffffffffffffffffffff167fadec52fcd1408589179b85e44b434374db078b4eaf793e7d1a1bb0ae4ecfeee560405160405180910390a48061072d57600260009054906101000a900473ffffffffffffffffffffffffffffffffffffffff1673ffffffffffffffffffffffffffffffffffffffff166332761d16838a6040518363ffffffff1660e01b81526004016106fa929190610c4b565b600060405180830381600087803b15801561071457600080fd5b505af1158015610728573d6000803e3d6000fd5b505050505b600260009054906101000a900473ffffffffffffffffffffffffffffffffffffffff1673ffffffffffffffffffffffffffffffffffffffff166323b872dd838b8b6040518463ffffffff1660e01b815260040161078c93929190610c14565b600060405180830381600087803b1580156107a657600080fd5b505af11580156107ba573d6000803e3d6000fd5b50505050505050505050505050565b6000813590506107d881610e29565b92915050565b6000813590506107ed81610e40565b92915050565b60008135905061080281610e57565b92915050565b60008135905061081781610e6e565b92915050565b60006020828403121561082f57600080fd5b600061083d848285016107c9565b91505092915050565b6000806040838503121561085957600080fd5b6000610867858286016107c9565b9250506020610878858286016107f3565b9150509250929050565b60008060006060848603121561089757600080fd5b60006108a5868287016107c9565b93505060206108b6868287016107f3565b92505060406108c7868287016107f3565b9150509250925092565b60008060008060008060c087890312156108ea57600080fd5b60006108f889828a016107c9565b965050602061090989828a016107f3565b955050604061091a89828a016107f3565b945050606061092b89828a016107de565b935050608061093c89828a016107de565b92505060a061094d89828a01610808565b9150509295509295509295565b61096381610d85565b82525050565b61097a61097582610d85565b610de4565b82525050565b61098981610d97565b82525050565b61099881610da3565b82525050565b6109af6109aa82610da3565b610df6565b82525050565b6000815460018116600081146109d257600181146109f757610a3b565b607f60028304166109e38187610d69565b955060ff1983168652808601935050610a3b565b60028204610a058187610d69565b9550610a1085610d54565b60005b82811015610a3257815481890152600182019150602081019050610a13565b82880195505050505b505092915050565b6000610a50601183610d74565b91507f696e76616c6964207369676e61747572650000000000000000000000000000006000830152602082019050919050565b6000610a90601183610d74565b91507f6861736820616c726561647920757365640000000000000000000000000000006000830152602082019050919050565b6000610ad0600e83610d74565b91507f6d757374206265207369676e65720000000000000000000000000000000000006000830152602082019050919050565b6000610b10602883610d74565b91507f6e6577207369676e65722063616e206f6e6c7920626520736574206279206f6c60008301527f64207369676e65720000000000000000000000000000000000000000000000006020830152604082019050919050565b610b7281610dcd565b82525050565b610b89610b8482610dcd565b610e12565b82525050565b610b9881610dd7565b82525050565b6000610baa8287610969565b601482019150610bba8286610b78565b602082019150610bca8285610b78565b602082019150610bda8284610b78565b60208201915081905095945050505050565b6000610bf882856109b5565b9150610c04828461099e565b6020820191508190509392505050565b6000606082019050610c29600083018661095a565b610c36602083018561095a565b610c436040830184610b69565b949350505050565b6000604082019050610c60600083018561095a565b610c6d6020830184610b69565b9392505050565b6000602082019050610c896000830184610980565b92915050565b6000608082019050610ca4600083018761098f565b610cb16020830186610b8f565b610cbe604083018561098f565b610ccb606083018461098f565b95945050505050565b60006020820190508181036000830152610ced81610a43565b9050919050565b60006020820190508181036000830152610d0d81610a83565b9050919050565b60006020820190508181036000830152610d2d81610ac3565b9050919050565b60006020820190508181036000830152610d4d81610b03565b9050919050565b60008190508160005260206000209050919050565b600081905092915050565b600082825260208201905092915050565b6000610d9082610dad565b9050919050565b60008115159050919050565b6000819050919050565b600073ffffffffffffffffffffffffffffffffffffffff82169050919050565b6000819050919050565b600060ff82169050919050565b6000610def82610e00565b9050919050565b6000819050919050565b6000610e0b82610e1c565b9050919050565b6000819050919050565b60008160601b9050919050565b610e3281610d85565b8114610e3d57600080fd5b50565b610e4981610da3565b8114610e5457600080fd5b50565b610e6081610dcd565b8114610e6b57600080fd5b50565b610e7781610dd7565b8114610e8257600080fd5b5056fea26469706673582212203acbe10319d89b760ac65b486f68b26ce13e27ecf5499b85add15cbbee71fb1b64736f6c634300060c0033",
  "immutableReferences": {},
  "source": "// SPDX-License-Identifier: MIT\npragma solidity ^0.6.0;\npragma experimental ABIEncoderV2;\n\nimport \"./WebaverseERC721.sol\";\n\n/** @title ERC721 Proxy contract.\n * @dev Manages ERC721 tokens using the Webaverse signing oracle for validation and cross-chain transfer\n */\n/* is IERC721Receiver */\ncontract WebaverseERC721Proxy {\n    address internal signer; // signer oracle address\n    uint256 internal chainId; // unique chain id\n    WebaverseERC721 internal parent; // managed ERC721 contract\n    mapping(uint256 => bool) internal deposits; // whether the token has been deposited in this contract\n    mapping(bytes32 => bool) internal usedWithdrawHashes; // deposit hashes that have been used up (replay protection)\n\n    bytes internal prefix = \"\\x19Ethereum Signed Message:\\n32\";\n\n    event Withdrew(\n        address indexed from,\n        uint256 indexed tokenId,\n        uint256 indexed timestamp\n    ); // logs the fact that we withdrew an oracle-signed token\n    event Deposited(address indexed to, uint256 indexed tokenId); // used by the oracle when signing\n\n    /**\n     * @dev Construct the proxy with a managed parent and chain ID\n     * @param parentAddress Address of the managed ERC721 contract\n     * @param signerAddress Address of an authorized signer\n     * @param _chainId Chain ID this contract is attached to\n     * Default parent address: 0xd7523103ba15c1dfcf0f5ea1c553bc18179ac656\n     * Default signer address: 0xfa80e7480e9c42a9241e16d6c1e7518c1b1757e4\n     */\n    constructor(\n        address parentAddress,\n        address signerAddress,\n        uint256 _chainId\n    ) public {\n        signer = signerAddress;\n        chainId = _chainId;\n        parent = WebaverseERC721(parentAddress);\n    }\n\n    /** @dev Set the address for the signer oracle\n     * @param newSigner Address of the new signer\n     */\n    function setSigner(address newSigner) public {\n        require(\n            msg.sender == signer,\n            \"new signer can only be set by old signer\"\n        );\n        signer = newSigner;\n    }\n\n    /** @dev Set the parent contract that this proxy manages\n     * @param newParent Address of parent contract\n     */\n    function setERC721Parent(address newParent) public {\n        require(msg.sender == signer, \"must be signer\");\n        parent = WebaverseERC721(newParent);\n    }\n\n    /** @dev Withdraw an ERC721 token to an address\n     * @param to Address to withdraw to\n     * Example is 0x08E242bB06D85073e69222aF8273af419d19E4f6\n     * @param tokenId Token ID to withdraw\n     * @param timestamp Timestamp of the transaction\n     * @param r ECDSA output\n     * Example is 0xc336b0bb5cac4584d79e77b1680ab789171ebc95f44f68bb1cc0a7b1174058ad\n     * @param s ECDSA output\n     * Example is 0x72b888e952c0c39a8054f2b6dc41df645f5d4dc3d9cc6118535d88aa34945440\n     * @param v Recovery ID\n     * Example is 0x1c\n     */\n    function withdraw(\n        address to,\n        uint256 tokenId,\n        uint256 timestamp,\n        bytes32 r,\n        bytes32 s,\n        uint8 v\n    ) public {\n        bytes32 prefixedHash =\n            keccak256(\n                abi.encodePacked(\n                    prefix,\n                    keccak256(abi.encodePacked(to, tokenId, timestamp, chainId))\n                )\n            );\n        address contractAddress = address(this);\n        require(\n            ecrecover(prefixedHash, v, r, s) == signer,\n            \"invalid signature\"\n        );\n        require(!usedWithdrawHashes[prefixedHash], \"hash already used\");\n        usedWithdrawHashes[prefixedHash] = true;\n\n        bool oldDeposits = deposits[tokenId];\n\n        deposits[tokenId] = false;\n\n        emit Withdrew(to, tokenId, timestamp);\n\n        if (!oldDeposits) {\n            parent.mintTokenId(contractAddress, tokenId);\n        }\n\n        parent.transferFrom(contractAddress, to, tokenId);\n    }\n\n    /** @dev Deposit an ERC721 token to an address\n     * @param to Address to deposit to\n     * Example is 0x08E242bB06D85073e69222aF8273af419d19E4f6\n     * @param tokenId Token ID to withdraw\n     */\n    function deposit(address to, uint256 tokenId) public {\n        deposits[tokenId] = true;\n\n        emit Deposited(to, tokenId);\n\n        address from = msg.sender;\n        address contractAddress = address(this);\n        parent.transferFrom(from, contractAddress, tokenId);\n    }\n\n    /** @dev Check if this nonce has already been used on a withdraw (to prevent replay attack)\n     * @param to Address to deposit to\n     * Example is 0x08E242bB06D85073e69222aF8273af419d19E4f6\n     * @param tokenId Token ID to withdraw\n     * @param timestamp Timestamp of the transaction\n     * @return Returns true if the nonce has already been used to sign a transaction\n     */\n    function withdrawNonceUsed(\n        address to,\n        uint256 tokenId,\n        uint256 timestamp\n    ) public view returns (bool) {\n        bytes32 prefixedHash =\n            keccak256(\n                abi.encodePacked(\n                    prefix,\n                    keccak256(abi.encodePacked(to, tokenId, timestamp, chainId))\n                )\n            );\n        return usedWithdrawHashes[prefixedHash];\n    }\n}\n",
  "sourcePath": "/home/beast/Documents/GitHub/contracts/ethereum/WebaverseERC721Proxy.sol",
  "compiler": {
    "name": "solc",
    "version": "0.6.12+commit.27d51765.Emscripten.clang"
  },
  "schemaVersion": "3.3.4",
  "updatedAt": "2021-03-23T02:28:20.039Z",
  "networkType": "ethereum",
  "devdoc": {
    "details": "Manages ERC721 tokens using the Webaverse signing oracle for validation and cross-chain transfer",
    "kind": "dev",
    "methods": {
      "constructor": {
        "details": "Construct the proxy with a managed parent and chain ID",
        "params": {
          "_chainId": "Chain ID this contract is attached to Default parent address: 0xd7523103ba15c1dfcf0f5ea1c553bc18179ac656 Default signer address: 0xfa80e7480e9c42a9241e16d6c1e7518c1b1757e4",
          "parentAddress": "Address of the managed ERC721 contract",
          "signerAddress": "Address of an authorized signer"
        }
      },
      "deposit(address,uint256)": {
        "details": "Deposit an ERC721 token to an address",
        "params": {
          "to": "Address to deposit to Example is 0x08E242bB06D85073e69222aF8273af419d19E4f6",
          "tokenId": "Token ID to withdraw"
        }
      },
      "setERC721Parent(address)": {
        "details": "Set the parent contract that this proxy manages",
        "params": {
          "newParent": "Address of parent contract"
        }
      },
      "setSigner(address)": {
        "details": "Set the address for the signer oracle",
        "params": {
          "newSigner": "Address of the new signer"
        }
      },
      "withdraw(address,uint256,uint256,bytes32,bytes32,uint8)": {
        "details": "Withdraw an ERC721 token to an address",
        "params": {
          "r": "ECDSA output Example is 0xc336b0bb5cac4584d79e77b1680ab789171ebc95f44f68bb1cc0a7b1174058ad",
          "s": "ECDSA output Example is 0x72b888e952c0c39a8054f2b6dc41df645f5d4dc3d9cc6118535d88aa34945440",
          "timestamp": "Timestamp of the transaction",
          "to": "Address to withdraw to Example is 0x08E242bB06D85073e69222aF8273af419d19E4f6",
          "tokenId": "Token ID to withdraw",
          "v": "Recovery ID Example is 0x1c"
        }
      },
      "withdrawNonceUsed(address,uint256,uint256)": {
        "details": "Check if this nonce has already been used on a withdraw (to prevent replay attack)",
        "params": {
          "timestamp": "Timestamp of the transaction",
          "to": "Address to deposit to Example is 0x08E242bB06D85073e69222aF8273af419d19E4f6",
          "tokenId": "Token ID to withdraw"
        },
        "returns": {
          "_0": "Returns true if the nonce has already been used to sign a transaction"
        }
      }
    },
    "title": "ERC721 Proxy contract.",
    "version": 1
  },
  "userdoc": {
    "kind": "user",
    "methods": {},
    "version": 1
  }
}