{
  "contractName": "WebaverseAccount",
  "abi": [
    {
      "inputs": [],
      "stateMutability": "nonpayable",
      "type": "constructor"
    },
    {
      "anonymous": false,
      "inputs": [
        {
          "indexed": false,
          "internalType": "address",
          "name": "owner",
          "type": "address"
        },
        {
          "indexed": false,
          "internalType": "string",
          "name": "key",
          "type": "string"
        },
        {
          "indexed": false,
          "internalType": "string",
          "name": "value",
          "type": "string"
        }
      ],
      "name": "MetadataSet",
      "type": "event"
    },
    {
      "inputs": [
        {
          "internalType": "address",
          "name": "owner",
          "type": "address"
        },
        {
          "internalType": "string",
          "name": "key",
          "type": "string"
        }
      ],
      "name": "getMetadata",
      "outputs": [
        {
          "internalType": "string",
          "name": "",
          "type": "string"
        }
      ],
      "stateMutability": "view",
      "type": "function"
    },
    {
      "inputs": [
        {
          "internalType": "address",
          "name": "owner",
          "type": "address"
        },
        {
          "internalType": "string",
          "name": "key",
          "type": "string"
        },
        {
          "internalType": "string",
          "name": "value",
          "type": "string"
        }
      ],
      "name": "setMetadata",
      "outputs": [],
      "stateMutability": "nonpayable",
      "type": "function"
    }
  ],
  "bytecode": "0x608060405234801561001057600080fd5b5061068d806100206000396000f3fe608060405234801561001057600080fd5b50600436106100365760003560e01c8063eb3b0cba1461003b578063f064e8fa14610057575b600080fd5b610055600480360381019061005091906103c5565b610087565b005b610071600480360381019061006c9190610371565b61016e565b60405161007e9190610519565b60405180910390f35b8273ffffffffffffffffffffffffffffffffffffffff163373ffffffffffffffffffffffffffffffffffffffff16146100bf57600080fd5b806000808573ffffffffffffffffffffffffffffffffffffffff1673ffffffffffffffffffffffffffffffffffffffff1681526020019081526020016000208360405161010c91906104bd565b9081526020016040518091039020908051906020019061012d92919061026b565b507f7636379abd2cb1768418cbb261f154b5a4891181912ad6e4725f8262e09d2e84838383604051610161939291906104d4565b60405180910390a1505050565b60606000808473ffffffffffffffffffffffffffffffffffffffff1673ffffffffffffffffffffffffffffffffffffffff168152602001908152602001600020826040516101bc91906104bd565b90815260200160405180910390208054600181600116156101000203166002900480601f01602080910402602001604051908101604052809291908181526020018280546001816001161561010002031660029004801561025e5780601f106102335761010080835404028352916020019161025e565b820191906000526020600020905b81548152906001019060200180831161024157829003601f168201915b5050505050905092915050565b828054600181600116156101000203166002900490600052602060002090601f016020900481019282601f106102ac57805160ff19168380011785556102da565b828001600101855582156102da579182015b828111156102d95782518255916020019190600101906102be565b5b5090506102e791906102eb565b5090565b5b808211156103045760008160009055506001016102ec565b5090565b60008135905061031781610640565b92915050565b600082601f83011261032e57600080fd5b813561034161033c82610568565b61053b565b9150808252602083016020830185838301111561035d57600080fd5b6103688382846105ed565b50505092915050565b6000806040838503121561038457600080fd5b600061039285828601610308565b925050602083013567ffffffffffffffff8111156103af57600080fd5b6103bb8582860161031d565b9150509250929050565b6000806000606084860312156103da57600080fd5b60006103e886828701610308565b935050602084013567ffffffffffffffff81111561040557600080fd5b6104118682870161031d565b925050604084013567ffffffffffffffff81111561042e57600080fd5b61043a8682870161031d565b9150509250925092565b61044d816105bb565b82525050565b600061045e82610594565b610468818561059f565b93506104788185602086016105fc565b6104818161062f565b840191505092915050565b600061049782610594565b6104a181856105b0565b93506104b18185602086016105fc565b80840191505092915050565b60006104c9828461048c565b915081905092915050565b60006060820190506104e96000830186610444565b81810360208301526104fb8185610453565b9050818103604083015261050f8184610453565b9050949350505050565b600060208201905081810360008301526105338184610453565b905092915050565b6000604051905081810181811067ffffffffffffffff8211171561055e57600080fd5b8060405250919050565b600067ffffffffffffffff82111561057f57600080fd5b601f19601f8301169050602081019050919050565b600081519050919050565b600082825260208201905092915050565b600081905092915050565b60006105c6826105cd565b9050919050565b600073ffffffffffffffffffffffffffffffffffffffff82169050919050565b82818337600083830152505050565b60005b8381101561061a5780820151818401526020810190506105ff565b83811115610629576000848401525b50505050565b6000601f19601f8301169050919050565b610649816105bb565b811461065457600080fd5b5056fea2646970667358221220e2112abec585c26997c634fcab059fa62a0b79a18cc746b33236458c7b37e0c864736f6c634300060c0033",
  "immutableReferences": {},
  "source": "// SPDX-License-Identifier: MIT\npragma solidity ^0.6.0;\npragma experimental ABIEncoderV2;\n\n/** @title Webaverse account contract. */\ncontract WebaverseAccount {\n    /** @dev Event called when owner changes metadata value. */\n    event MetadataSet(address owner, string key, string value);\n\n    /** @dev Mapping of a key like \"avatar\" to a token address. */\n    mapping(address => mapping(string => string)) private addressToMetadata;\n\n    /** @dev Constructor is empty. */\n    constructor() public {}\n\n    /**  @dev Set the metadata value for a key\n     *  Example: 0x08E242bB06D85073e69222aF8273af419d19E4f6, \"avatar\"\n     *  @param owner Owner of this account\n     *  @param key Metadata key to retrieve\n     *  @return value as a string\n     */\n    function getMetadata(address owner, string memory key)\n        public\n        view\n        returns (string memory)\n    {\n        return addressToMetadata[owner][key];\n    }\n\n    /**  @dev Set the metadata value for a key\n     *  Example: 0x08E242bB06D85073e69222aF8273af419d19E4f6, \"avatar\", \"<address_of_avatar_token>\"\n     *  @param owner Owner of this account\n     *  @param key Metadata key to store\n     *  @param value Metadata value to store\n     */\n    function setMetadata(\n        address owner,\n        string memory key,\n        string memory value\n    ) public {\n        require(msg.sender == owner); // only allow owner to change metadata\n        addressToMetadata[owner][key] = value; // store the value in the key-value mapping\n\n        emit MetadataSet(owner, key, value); // emit the MetadataSet event\n    }\n}\n",
  "sourcePath": "/home/beast/Documents/GitHub/contracts/ethereum/WebaverseAccount.sol",
  "compiler": {
    "name": "solc",
    "version": "0.6.12+commit.27d51765.Emscripten.clang"
  },
  "schemaVersion": "3.3.4",
  "updatedAt": "2021-03-23T02:28:19.979Z",
  "networkType": "ethereum",
  "devdoc": {
    "events": {
      "MetadataSet(address,string,string)": {
        "details": "Event called when owner changes metadata value. "
      }
    },
    "kind": "dev",
    "methods": {
      "constructor": {
        "details": "Constructor is empty. "
      },
      "getMetadata(address,string)": {
        "details": "Set the metadata value for a key  Example: 0x08E242bB06D85073e69222aF8273af419d19E4f6, \"avatar\"",
        "params": {
          "key": "Metadata key to retrieve",
          "owner": "Owner of this account"
        },
        "returns": {
          "_0": "value as a string"
        }
      },
      "setMetadata(address,string,string)": {
        "details": "Set the metadata value for a key  Example: 0x08E242bB06D85073e69222aF8273af419d19E4f6, \"avatar\", \"<address_of_avatar_token>\"",
        "params": {
          "key": "Metadata key to store",
          "owner": "Owner of this account",
          "value": "Metadata value to store"
        }
      }
    },
    "stateVariables": {
      "addressToMetadata": {
        "details": "Mapping of a key like \"avatar\" to a token address. "
      }
    },
    "title": "Webaverse account contract. ",
    "version": 1
  },
  "userdoc": {
    "kind": "user",
    "methods": {},
    "version": 1
  }
}